{
  "contractName": "GovernanceStructs",
  "abi": [
    {
      "inputs": [
        {
          "internalType": "bytes",
          "name": "encodedUpgrade",
          "type": "bytes"
        }
      ],
      "name": "parseContractUpgrade",
      "outputs": [
        {
          "components": [
            {
              "internalType": "bytes32",
              "name": "module",
              "type": "bytes32"
            },
            {
              "internalType": "uint8",
              "name": "action",
              "type": "uint8"
            },
            {
              "internalType": "uint16",
              "name": "chain",
              "type": "uint16"
            },
            {
              "internalType": "address",
              "name": "newContract",
              "type": "address"
            }
          ],
          "internalType": "struct GovernanceStructs.ContractUpgrade",
          "name": "cu",
          "type": "tuple"
        }
      ],
      "stateMutability": "pure",
      "type": "function"
    },
    {
      "inputs": [
        {
          "internalType": "bytes",
          "name": "encodedUpgrade",
          "type": "bytes"
        }
      ],
      "name": "parseGuardianSetUpgrade",
      "outputs": [
        {
          "components": [
            {
              "internalType": "bytes32",
              "name": "module",
              "type": "bytes32"
            },
            {
              "internalType": "uint8",
              "name": "action",
              "type": "uint8"
            },
            {
              "internalType": "uint16",
              "name": "chain",
              "type": "uint16"
            },
            {
              "components": [
                {
                  "internalType": "address[]",
                  "name": "keys",
                  "type": "address[]"
                },
                {
                  "internalType": "uint32",
                  "name": "expirationTime",
                  "type": "uint32"
                }
              ],
              "internalType": "struct Structs.GuardianSet",
              "name": "newGuardianSet",
              "type": "tuple"
            },
            {
              "internalType": "uint32",
              "name": "newGuardianSetIndex",
              "type": "uint32"
            }
          ],
          "internalType": "struct GovernanceStructs.GuardianSetUpgrade",
          "name": "gsu",
          "type": "tuple"
        }
      ],
      "stateMutability": "pure",
      "type": "function"
    },
    {
      "inputs": [
        {
          "internalType": "bytes",
          "name": "encodedSetMessageFee",
          "type": "bytes"
        }
      ],
      "name": "parseSetMessageFee",
      "outputs": [
        {
          "components": [
            {
              "internalType": "bytes32",
              "name": "module",
              "type": "bytes32"
            },
            {
              "internalType": "uint8",
              "name": "action",
              "type": "uint8"
            },
            {
              "internalType": "uint16",
              "name": "chain",
              "type": "uint16"
            },
            {
              "internalType": "uint256",
              "name": "messageFee",
              "type": "uint256"
            }
          ],
          "internalType": "struct GovernanceStructs.SetMessageFee",
          "name": "smf",
          "type": "tuple"
        }
      ],
      "stateMutability": "pure",
      "type": "function"
    },
    {
      "inputs": [
        {
          "internalType": "bytes",
          "name": "encodedTransferFees",
          "type": "bytes"
        }
      ],
      "name": "parseTransferFees",
      "outputs": [
        {
          "components": [
            {
              "internalType": "bytes32",
              "name": "module",
              "type": "bytes32"
            },
            {
              "internalType": "uint8",
              "name": "action",
              "type": "uint8"
            },
            {
              "internalType": "uint16",
              "name": "chain",
              "type": "uint16"
            },
            {
              "internalType": "uint256",
              "name": "amount",
              "type": "uint256"
            },
            {
              "internalType": "bytes32",
              "name": "recipient",
              "type": "bytes32"
            }
          ],
          "internalType": "struct GovernanceStructs.TransferFees",
          "name": "tf",
          "type": "tuple"
        }
      ],
      "stateMutability": "pure",
      "type": "function"
    }
  ],
  "bytecode": "0x608060405234801561001057600080fd5b50610bed806100206000396000f3fe608060405234801561001057600080fd5b506004361061004c5760003560e01c80630319e59c1461005157806304ca84cf146100b65780634fdc60fa146100d6578063515f32471461012c575b600080fd5b61006461005f3660046109fb565b610179565b6040516100ad9190600060a0820190508251825260ff602084015116602083015261ffff6040840151166040830152606083015160608301526080830151608083015292915050565b60405180910390f35b6100c96100c43660046109fb565b6102d4565b6040516100ad9190610aa5565b6100e96100e43660046109fb565b610508565b6040516100ad91908151815260208083015160ff169082015260408083015161ffff16908201526060918201516001600160a01b03169181019190915260800190565b61013f61013a3660046109fb565b610644565b6040516100ad91908151815260208083015160ff169082015260408083015161ffff16908201526060918201519181019190915260800190565b6040805160a0810182526000808252602082018190529181018290526060810182905260808101829052906101ae8382610773565b82526101bb602082610b58565b90506101c783826107d1565b60ff1660208301526101da600182610b58565b9050816020015160ff1660041461022f5760405162461bcd60e51b8152602060048201526014602482015273696e76616c6964205472616e736665724665657360601b60448201526064015b60405180910390fd5b610239838261082d565b61ffff16604083015261024d600282610b58565b9050610259838261088a565b6060830152610269602082610b58565b90506102758382610773565b6080830152610285602082610b58565b9050808351146102ce5760405162461bcd60e51b8152602060048201526014602482015273696e76616c6964205472616e736665724665657360601b6044820152606401610226565b50919050565b6102dc6109a1565b60006102e88382610773565b82526102f5602082610b58565b905061030183826107d1565b60ff166020830152610314600182610b58565b9050816020015160ff1660021461036d5760405162461bcd60e51b815260206004820152601a60248201527f696e76616c696420477561726469616e536574557067726164650000000000006044820152606401610226565b610377838261082d565b61ffff16604083015261038b600282610b58565b905061039783826108df565b63ffffffff1660808301526103ad600482610b58565b905060006103bb84836107d1565b90506103c8600183610b58565b915060405180604001604052808260ff1667ffffffffffffffff8111156103ff57634e487b7160e01b600052604160045260246000fd5b604051908082528060200260200182016040528015610428578160200160208202803683370190505b5081526000602090910181905260608501919091525b8160ff168110156104b057610453858461093c565b60608501515180518390811061047957634e487b7160e01b600052603260045260246000fd5b6001600160a01b039092166020928302919091019091015261049c601484610b58565b9250806104a881610b70565b91505061043e565b50818451146105015760405162461bcd60e51b815260206004820152601a60248201527f696e76616c696420477561726469616e536574557067726164650000000000006044820152606401610226565b5050919050565b6040805160808101825260008082526020820181905291810182905260608101829052906105368382610773565b8252610543602082610b58565b905061054f83826107d1565b60ff166020830152610562600182610b58565b9050816020015160ff166001146105b55760405162461bcd60e51b8152602060048201526017602482015276696e76616c696420436f6e74726163745570677261646560481b6044820152606401610226565b6105bf838261082d565b61ffff1660408301526105d3600282610b58565b90506105df8382610773565b6001600160a01b031660608301526105f8602082610b58565b9050808351146102ce5760405162461bcd60e51b8152602060048201526017602482015276696e76616c696420436f6e74726163745570677261646560481b6044820152606401610226565b6040805160808101825260008082526020820181905291810182905260608101829052906106728382610773565b825261067f602082610b58565b905061068b83826107d1565b60ff16602083015261069e600182610b58565b9050816020015160ff166003146106ef5760405162461bcd60e51b8152602060048201526015602482015274696e76616c6964205365744d65737361676546656560581b6044820152606401610226565b6106f9838261082d565b61ffff16604083015261070d600282610b58565b9050610719838261088a565b6060830152610729602082610b58565b9050808351146102ce5760405162461bcd60e51b8152602060048201526015602482015274696e76616c6964205365744d65737361676546656560581b6044820152606401610226565b6000610780826020610b58565b835110156107c85760405162461bcd60e51b8152602060048201526015602482015274746f427974657333325f6f75744f66426f756e647360581b6044820152606401610226565b50016020015190565b60006107de826001610b58565b835110156108245760405162461bcd60e51b8152602060048201526013602482015272746f55696e74385f6f75744f66426f756e647360681b6044820152606401610226565b50016001015190565b600061083a826002610b58565b835110156108815760405162461bcd60e51b8152602060048201526014602482015273746f55696e7431365f6f75744f66426f756e647360601b6044820152606401610226565b50016002015190565b6000610897826020610b58565b835110156107c85760405162461bcd60e51b8152602060048201526015602482015274746f55696e743235365f6f75744f66426f756e647360581b6044820152606401610226565b60006108ec826004610b58565b835110156109335760405162461bcd60e51b8152602060048201526014602482015273746f55696e7433325f6f75744f66426f756e647360601b6044820152606401610226565b50016004015190565b6000610949826014610b58565b835110156109915760405162461bcd60e51b8152602060048201526015602482015274746f416464726573735f6f75744f66426f756e647360581b6044820152606401610226565b500160200151600160601b900490565b6040518060a0016040528060008019168152602001600060ff168152602001600061ffff1681526020016109ee604051806040016040528060608152602001600063ffffffff1681525090565b8152600060209091015290565b600060208284031215610a0c578081fd5b813567ffffffffffffffff80821115610a23578283fd5b818401915084601f830112610a36578283fd5b813581811115610a4857610a48610ba1565b604051601f8201601f19908116603f01168101908382118183101715610a7057610a70610ba1565b81604052828152876020848701011115610a88578586fd5b826020860160208301379182016020019490945295945050505050565b6000602080835283518184015260ff8185015116604084015261ffff6040850151166060840152606084015160a0608085015261010084018151604060c08701528181518084526101208801915085830193508692505b80831015610b255783516001600160a01b03168252928501926001929092019190850190610afc565b509383015163ffffffff1660e0870152608087015193610b4d60a088018663ffffffff169052565b979650505050505050565b60008219821115610b6b57610b6b610b8b565b500190565b6000600019821415610b8457610b84610b8b565b5060010190565b634e487b7160e01b600052601160045260246000fd5b634e487b7160e01b600052604160045260246000fdfea26469706673582212208fae193c7ce7b53a5ffd4eb5e285f6b2f2a49924e208fda25658f300a89ab08664736f6c63430008040033",
  "immutableReferences": {},
  "source": "// contracts/GovernanceStructs.sol\r\n// SPDX-License-Identifier: Apache 2\r\n\r\npragma solidity ^0.8.0;\r\n\r\nimport \"./libraries/external/BytesLib.sol\";\r\nimport \"./Structs.sol\";\r\n\r\ncontract GovernanceStructs {\r\n    using BytesLib for bytes;\r\n\r\n    enum GovernanceAction {\r\n        UpgradeContract,\r\n        UpgradeGuardianset\r\n    }\r\n\r\n    struct ContractUpgrade {\r\n        bytes32 module;\r\n        uint8 action;\r\n        uint16 chain;\r\n\r\n        address newContract;\r\n    }\r\n\r\n    struct GuardianSetUpgrade {\r\n        bytes32 module;\r\n        uint8 action;\r\n        uint16 chain;\r\n\r\n        Structs.GuardianSet newGuardianSet;\r\n        uint32 newGuardianSetIndex;\r\n    }\r\n\r\n    struct SetMessageFee {\r\n        bytes32 module;\r\n        uint8 action;\r\n        uint16 chain;\r\n\r\n        uint256 messageFee;\r\n    }\r\n\r\n    struct TransferFees {\r\n        bytes32 module;\r\n        uint8 action;\r\n        uint16 chain;\r\n\r\n        uint256 amount;\r\n        bytes32 recipient;\r\n    }\r\n\r\n    function parseContractUpgrade(bytes memory encodedUpgrade) public pure returns (ContractUpgrade memory cu) {\r\n        uint index = 0;\r\n\r\n        cu.module = encodedUpgrade.toBytes32(index);\r\n        index += 32;\r\n\r\n        cu.action = encodedUpgrade.toUint8(index);\r\n        index += 1;\r\n\r\n        require(cu.action == 1, \"invalid ContractUpgrade\");\r\n\r\n        cu.chain = encodedUpgrade.toUint16(index);\r\n        index += 2;\r\n\r\n        cu.newContract = address(uint160(uint256(encodedUpgrade.toBytes32(index))));\r\n        index += 32;\r\n\r\n        require(encodedUpgrade.length == index, \"invalid ContractUpgrade\");\r\n    }\r\n\r\n    function parseGuardianSetUpgrade(bytes memory encodedUpgrade) public pure returns (GuardianSetUpgrade memory gsu) {\r\n        uint index = 0;\r\n\r\n        gsu.module = encodedUpgrade.toBytes32(index);\r\n        index += 32;\r\n\r\n        gsu.action = encodedUpgrade.toUint8(index);\r\n        index += 1;\r\n\r\n        require(gsu.action == 2, \"invalid GuardianSetUpgrade\");\r\n\r\n        gsu.chain = encodedUpgrade.toUint16(index);\r\n        index += 2;\r\n\r\n        gsu.newGuardianSetIndex = encodedUpgrade.toUint32(index);\r\n        index += 4;\r\n\r\n        uint8 guardianLength = encodedUpgrade.toUint8(index);\r\n        index += 1;\r\n\r\n        gsu.newGuardianSet = Structs.GuardianSet({\r\n            keys : new address[](guardianLength),\r\n            expirationTime : 0\r\n        });\r\n\r\n        for(uint i = 0; i < guardianLength; i++) {\r\n            gsu.newGuardianSet.keys[i] = encodedUpgrade.toAddress(index);\r\n            index += 20;\r\n        }\r\n\r\n        require(encodedUpgrade.length == index, \"invalid GuardianSetUpgrade\");\r\n    }\r\n\r\n    function parseSetMessageFee(bytes memory encodedSetMessageFee) public pure returns (SetMessageFee memory smf) {\r\n        uint index = 0;\r\n\r\n        smf.module = encodedSetMessageFee.toBytes32(index);\r\n        index += 32;\r\n\r\n        smf.action = encodedSetMessageFee.toUint8(index);\r\n        index += 1;\r\n\r\n        require(smf.action == 3, \"invalid SetMessageFee\");\r\n\r\n        smf.chain = encodedSetMessageFee.toUint16(index);\r\n        index += 2;\r\n\r\n        smf.messageFee = encodedSetMessageFee.toUint256(index);\r\n        index += 32;\r\n\r\n        require(encodedSetMessageFee.length == index, \"invalid SetMessageFee\");\r\n    }\r\n\r\n    function parseTransferFees(bytes memory encodedTransferFees) public pure returns (TransferFees memory tf) {\r\n        uint index = 0;\r\n\r\n        tf.module = encodedTransferFees.toBytes32(index);\r\n        index += 32;\r\n\r\n        tf.action = encodedTransferFees.toUint8(index);\r\n        index += 1;\r\n\r\n        require(tf.action == 4, \"invalid TransferFees\");\r\n\r\n        tf.chain = encodedTransferFees.toUint16(index);\r\n        index += 2;\r\n\r\n        tf.amount = encodedTransferFees.toUint256(index);\r\n        index += 32;\r\n\r\n        tf.recipient = encodedTransferFees.toBytes32(index);\r\n        index += 32;\r\n\r\n        require(encodedTransferFees.length == index, \"invalid TransferFees\");\r\n    }\r\n}",
  "sourcePath": "D:\\sourcecode\\wormhole\\ethereum\\contracts\\GovernanceStructs.sol",
  "compiler": {
    "name": "solc",
    "version": "0.8.4+commit.c7e474f2.Emscripten.clang"
  },
  "schemaVersion": "3.4.1",
  "updatedAt": "2021-09-16T09:52:26.368Z",
  "devdoc": {
    "kind": "dev",
    "methods": {},
    "version": 1
  },
  "userdoc": {
    "kind": "user",
    "methods": {},
    "version": 1
  }
}