{
  "contractName": "MockNFTBridgeImplementation",
  "abi": [
    {
      "anonymous": false,
      "inputs": [
        {
          "indexed": false,
          "internalType": "address",
          "name": "previousAdmin",
          "type": "address"
        },
        {
          "indexed": false,
          "internalType": "address",
          "name": "newAdmin",
          "type": "address"
        }
      ],
      "name": "AdminChanged",
      "type": "event"
    },
    {
      "anonymous": false,
      "inputs": [
        {
          "indexed": true,
          "internalType": "address",
          "name": "beacon",
          "type": "address"
        }
      ],
      "name": "BeaconUpgraded",
      "type": "event"
    },
    {
      "anonymous": false,
      "inputs": [
        {
          "indexed": true,
          "internalType": "address",
          "name": "oldContract",
          "type": "address"
        },
        {
          "indexed": true,
          "internalType": "address",
          "name": "newContract",
          "type": "address"
        }
      ],
      "name": "ContractUpgraded",
      "type": "event"
    },
    {
      "anonymous": false,
      "inputs": [
        {
          "indexed": true,
          "internalType": "address",
          "name": "implementation",
          "type": "address"
        }
      ],
      "name": "Upgraded",
      "type": "event"
    },
    {
      "inputs": [
        {
          "internalType": "uint16",
          "name": "chainId_",
          "type": "uint16"
        }
      ],
      "name": "bridgeContracts",
      "outputs": [
        {
          "internalType": "bytes32",
          "name": "",
          "type": "bytes32"
        }
      ],
      "stateMutability": "view",
      "type": "function"
    },
    {
      "inputs": [],
      "name": "chainId",
      "outputs": [
        {
          "internalType": "uint16",
          "name": "",
          "type": "uint16"
        }
      ],
      "stateMutability": "view",
      "type": "function"
    },
    {
      "inputs": [
        {
          "internalType": "bytes",
          "name": "encodedVm",
          "type": "bytes"
        }
      ],
      "name": "completeTransfer",
      "outputs": [],
      "stateMutability": "nonpayable",
      "type": "function"
    },
    {
      "inputs": [
        {
          "components": [
            {
              "internalType": "bytes32",
              "name": "tokenAddress",
              "type": "bytes32"
            },
            {
              "internalType": "uint16",
              "name": "tokenChain",
              "type": "uint16"
            },
            {
              "internalType": "bytes32",
              "name": "symbol",
              "type": "bytes32"
            },
            {
              "internalType": "bytes32",
              "name": "name",
              "type": "bytes32"
            },
            {
              "internalType": "uint256",
              "name": "tokenID",
              "type": "uint256"
            },
            {
              "internalType": "string",
              "name": "uri",
              "type": "string"
            },
            {
              "internalType": "bytes32",
              "name": "to",
              "type": "bytes32"
            },
            {
              "internalType": "uint16",
              "name": "toChain",
              "type": "uint16"
            }
          ],
          "internalType": "struct NFTBridgeStructs.Transfer",
          "name": "transfer",
          "type": "tuple"
        }
      ],
      "name": "encodeTransfer",
      "outputs": [
        {
          "internalType": "bytes",
          "name": "encoded",
          "type": "bytes"
        }
      ],
      "stateMutability": "pure",
      "type": "function"
    },
    {
      "inputs": [
        {
          "internalType": "bytes32",
          "name": "hash",
          "type": "bytes32"
        }
      ],
      "name": "governanceActionIsConsumed",
      "outputs": [
        {
          "internalType": "bool",
          "name": "",
          "type": "bool"
        }
      ],
      "stateMutability": "view",
      "type": "function"
    },
    {
      "inputs": [],
      "name": "governanceChainId",
      "outputs": [
        {
          "internalType": "uint16",
          "name": "",
          "type": "uint16"
        }
      ],
      "stateMutability": "view",
      "type": "function"
    },
    {
      "inputs": [],
      "name": "governanceContract",
      "outputs": [
        {
          "internalType": "bytes32",
          "name": "",
          "type": "bytes32"
        }
      ],
      "stateMutability": "view",
      "type": "function"
    },
    {
      "inputs": [],
      "name": "implementation",
      "outputs": [
        {
          "internalType": "address",
          "name": "",
          "type": "address"
        }
      ],
      "stateMutability": "view",
      "type": "function"
    },
    {
      "inputs": [
        {
          "internalType": "address",
          "name": "impl",
          "type": "address"
        }
      ],
      "name": "isInitialized",
      "outputs": [
        {
          "internalType": "bool",
          "name": "",
          "type": "bool"
        }
      ],
      "stateMutability": "view",
      "type": "function"
    },
    {
      "inputs": [
        {
          "internalType": "bytes32",
          "name": "hash",
          "type": "bytes32"
        }
      ],
      "name": "isTransferCompleted",
      "outputs": [
        {
          "internalType": "bool",
          "name": "",
          "type": "bool"
        }
      ],
      "stateMutability": "view",
      "type": "function"
    },
    {
      "inputs": [
        {
          "internalType": "address",
          "name": "token",
          "type": "address"
        }
      ],
      "name": "isWrappedAsset",
      "outputs": [
        {
          "internalType": "bool",
          "name": "",
          "type": "bool"
        }
      ],
      "stateMutability": "view",
      "type": "function"
    },
    {
      "inputs": [
        {
          "internalType": "address",
          "name": "operator",
          "type": "address"
        },
        {
          "internalType": "address",
          "name": "",
          "type": "address"
        },
        {
          "internalType": "uint256",
          "name": "",
          "type": "uint256"
        },
        {
          "internalType": "bytes",
          "name": "",
          "type": "bytes"
        }
      ],
      "name": "onERC721Received",
      "outputs": [
        {
          "internalType": "bytes4",
          "name": "",
          "type": "bytes4"
        }
      ],
      "stateMutability": "view",
      "type": "function"
    },
    {
      "inputs": [
        {
          "internalType": "bytes",
          "name": "encoded",
          "type": "bytes"
        }
      ],
      "name": "parseRegisterChain",
      "outputs": [
        {
          "components": [
            {
              "internalType": "bytes32",
              "name": "module",
              "type": "bytes32"
            },
            {
              "internalType": "uint8",
              "name": "action",
              "type": "uint8"
            },
            {
              "internalType": "uint16",
              "name": "chainId",
              "type": "uint16"
            },
            {
              "internalType": "uint16",
              "name": "emitterChainID",
              "type": "uint16"
            },
            {
              "internalType": "bytes32",
              "name": "emitterAddress",
              "type": "bytes32"
            }
          ],
          "internalType": "struct NFTBridgeStructs.RegisterChain",
          "name": "chain",
          "type": "tuple"
        }
      ],
      "stateMutability": "pure",
      "type": "function"
    },
    {
      "inputs": [
        {
          "internalType": "bytes",
          "name": "encoded",
          "type": "bytes"
        }
      ],
      "name": "parseTransfer",
      "outputs": [
        {
          "components": [
            {
              "internalType": "bytes32",
              "name": "tokenAddress",
              "type": "bytes32"
            },
            {
              "internalType": "uint16",
              "name": "tokenChain",
              "type": "uint16"
            },
            {
              "internalType": "bytes32",
              "name": "symbol",
              "type": "bytes32"
            },
            {
              "internalType": "bytes32",
              "name": "name",
              "type": "bytes32"
            },
            {
              "internalType": "uint256",
              "name": "tokenID",
              "type": "uint256"
            },
            {
              "internalType": "string",
              "name": "uri",
              "type": "string"
            },
            {
              "internalType": "bytes32",
              "name": "to",
              "type": "bytes32"
            },
            {
              "internalType": "uint16",
              "name": "toChain",
              "type": "uint16"
            }
          ],
          "internalType": "struct NFTBridgeStructs.Transfer",
          "name": "transfer",
          "type": "tuple"
        }
      ],
      "stateMutability": "pure",
      "type": "function"
    },
    {
      "inputs": [
        {
          "internalType": "bytes",
          "name": "encoded",
          "type": "bytes"
        }
      ],
      "name": "parseUpgrade",
      "outputs": [
        {
          "components": [
            {
              "internalType": "bytes32",
              "name": "module",
              "type": "bytes32"
            },
            {
              "internalType": "uint8",
              "name": "action",
              "type": "uint8"
            },
            {
              "internalType": "uint16",
              "name": "chainId",
              "type": "uint16"
            },
            {
              "internalType": "bytes32",
              "name": "newContract",
              "type": "bytes32"
            }
          ],
          "internalType": "struct NFTBridgeStructs.UpgradeContract",
          "name": "chain",
          "type": "tuple"
        }
      ],
      "stateMutability": "pure",
      "type": "function"
    },
    {
      "inputs": [
        {
          "internalType": "bytes",
          "name": "encodedVM",
          "type": "bytes"
        }
      ],
      "name": "registerChain",
      "outputs": [],
      "stateMutability": "nonpayable",
      "type": "function"
    },
    {
      "inputs": [],
      "name": "tokenImplementation",
      "outputs": [
        {
          "internalType": "address",
          "name": "",
          "type": "address"
        }
      ],
      "stateMutability": "view",
      "type": "function"
    },
    {
      "inputs": [
        {
          "internalType": "address",
          "name": "token",
          "type": "address"
        },
        {
          "internalType": "uint256",
          "name": "tokenID",
          "type": "uint256"
        },
        {
          "internalType": "uint16",
          "name": "recipientChain",
          "type": "uint16"
        },
        {
          "internalType": "bytes32",
          "name": "recipient",
          "type": "bytes32"
        },
        {
          "internalType": "uint32",
          "name": "nonce",
          "type": "uint32"
        }
      ],
      "name": "transferNFT",
      "outputs": [
        {
          "internalType": "uint64",
          "name": "sequence",
          "type": "uint64"
        }
      ],
      "stateMutability": "payable",
      "type": "function"
    },
    {
      "inputs": [
        {
          "internalType": "bytes",
          "name": "encodedVM",
          "type": "bytes"
        }
      ],
      "name": "upgrade",
      "outputs": [],
      "stateMutability": "nonpayable",
      "type": "function"
    },
    {
      "inputs": [],
      "name": "wormhole",
      "outputs": [
        {
          "internalType": "contract IWormhole",
          "name": "",
          "type": "address"
        }
      ],
      "stateMutability": "view",
      "type": "function"
    },
    {
      "inputs": [
        {
          "internalType": "uint16",
          "name": "tokenChainId",
          "type": "uint16"
        },
        {
          "internalType": "bytes32",
          "name": "tokenAddress",
          "type": "bytes32"
        }
      ],
      "name": "wrappedAsset",
      "outputs": [
        {
          "internalType": "address",
          "name": "",
          "type": "address"
        }
      ],
      "stateMutability": "view",
      "type": "function"
    },
    {
      "inputs": [],
      "name": "initialize",
      "outputs": [],
      "stateMutability": "nonpayable",
      "type": "function"
    },
    {
      "inputs": [],
      "name": "testNewImplementationActive",
      "outputs": [
        {
          "internalType": "bool",
          "name": "",
          "type": "bool"
        }
      ],
      "stateMutability": "pure",
      "type": "function"
    }
  ],
  "bytecode": "0x608060405234801561001057600080fd5b506139d3806100206000396000f3fe6080604052600436106200015b5760003560e01c806384acd1bb11620000c5578063c68785191162000078578063c6878519146200049c578063c96616e114620004c1578063d60b347f14620004f1578063e6a853e0146200052e578063fbe3c2cd1462000562578063fbeeacd9146200058357600080fd5b806384acd1bb146200039e5780639a8a059214620003be578063a5799f9314620003e8578063aa4efa5b146200040d578063ad66a5f11462000441578063b172b222146200048557600080fd5b806325394645116200011e5780632539464514620002bf5780632b51137514620002e65780632c3c02a4146200031a5780632f3a3d5d146200034e5780635c60da1b146200036e5780638129fc1c146200038657600080fd5b806301f532551462000160578063150b7a0214620001de5780631a2be4da146200021d5780631f8cdb2b146200026b5780631ff1e2861462000281575b600080fd5b3480156200016d57600080fd5b50620001856200017f366004620028ae565b620005e3565b604051620001d59190600060a0820190508251825260ff6020840151166020830152604083015161ffff808216604085015280606086015116606085015250506080830151608083015292915050565b60405180910390f35b348015620001eb57600080fd5b5062000203620001fd3660046200275e565b620007eb565b6040516001600160e01b03199091168152602001620001d5565b3480156200022a57600080fd5b506200025a6200023c36600462002741565b6001600160a01b031660009081526008602052604090205460ff1690565b6040519015158152602001620001d5565b3480156200027857600080fd5b5060016200025a565b3480156200028e57600080fd5b50620002a6620002a036600462002ba4565b6200086f565b6040516001600160a01b039091168152602001620001d5565b348015620002cc57600080fd5b50620002e4620002de366004620028ae565b6200089b565b005b348015620002f357600080fd5b506200030b62000305366004620028ae565b6200097f565b604051620001d5919062002da6565b3480156200032757600080fd5b506200025a620003393660046200287c565b60009081526004602052604090205460ff1690565b3480156200035b57600080fd5b506001546001600160a01b0316620002a6565b3480156200037b57600080fd5b50620002a662000b9c565b3480156200039357600080fd5b50620002e462000bb6565b348015620003ab57600080fd5b506000546001600160a01b0316620002a6565b348015620003cb57600080fd5b5060025461ffff165b60405161ffff9091168152602001620001d5565b348015620003f557600080fd5b50620002e462000407366004620028ae565b62000c80565b3480156200041a57600080fd5b506200025a6200042c3660046200287c565b60009081526005602052604090205460ff1690565b3480156200044e57600080fd5b50620004766200046036600462002b66565b61ffff1660009081526009602052604090205490565b604051908152602001620001d5565b3480156200049257600080fd5b5060035462000476565b348015620004a957600080fd5b50620002e4620004bb366004620028ae565b62000d86565b620004d8620004d2366004620027fc565b62000d91565b6040516001600160401b039091168152602001620001d5565b348015620004fe57600080fd5b506200025a6200051036600462002741565b6001600160a01b031660009081526006602052604090205460ff1690565b3480156200053b57600080fd5b50620005536200054d3660046200292e565b620013d6565b604051620001d5919062002d3d565b3480156200056f57600080fd5b5060025462010000900461ffff16620003d4565b3480156200059057600080fd5b50620005a8620005a2366004620028ae565b62001431565b604051620001d591908151815260208083015160ff169082015260408083015161ffff16908201526060918201519181019190915260800190565b6040805160a0810182526000808252602082018190529181018290526060810182905260808101829052906200061a83826200160a565b82526200062960208262002f2c565b8251909150684e465442726964676514620006975760405162461bcd60e51b815260206004820152602360248201527f696e76616c6964205265676973746572436861696e3a2077726f6e67206d6f64604482015262756c6560e81b60648201526084015b60405180910390fd5b620006a383826200166c565b60ff166020830152620006b860018262002f2c565b9050816020015160ff166001146200071f5760405162461bcd60e51b815260206004820152602360248201527f696e76616c6964205265676973746572436861696e3a2077726f6e672061637460448201526234b7b760e91b60648201526084016200068e565b6200072b8382620016cc565b61ffff1660408301526200074160028262002f2c565b90506200074f8382620016cc565b61ffff1660608301526200076560028262002f2c565b90506200077383826200160a565b60808301526200078560208262002f2c565b905080835114620007e55760405162461bcd60e51b815260206004820152602360248201527f696e76616c6964205265676973746572436861696e3a2077726f6e67206c656e6044820152620cee8d60eb1b60648201526084016200068e565b50919050565b60006001600160a01b03861630146200085d5760405162461bcd60e51b815260206004820152602d60248201527f63616e206f6e6c792062726964676520746f6b656e7320766961207472616e7360448201526c19995c939195081b595d1a1bd9609a1b60648201526084016200068e565b50630a85bd0160e11b95945050505050565b61ffff91909116600090815260076020908152604080832093835292905220546001600160a01b031690565b6000806000620008ab846200172d565b925092509250818190620008d45760405162461bcd60e51b81526004016200068e919062002d3d565b50620008fa8361014001516000908152600460205260409020805460ff19166001179055565b60006200090b8460e0015162001431565b90506200091b60025461ffff1690565b61ffff16816040015161ffff1614620009685760405162461bcd60e51b815260206004820152600e60248201526d1ddc9bdb99c818da185a5b881a5960921b60448201526064016200068e565b606081015162000978906200195c565b5050505050565b604080516101008101825260008082526020820181905291810182905260608082018390526080820183905260a082015260c0810182905260e081018290529080620009cc84826200166c565b9050620009db60018362002f2c565b91508060ff1660011462000a255760405162461bcd60e51b815260206004820152601060248201526f34b73b30b634b2102a3930b739b332b960811b60448201526064016200068e565b62000a3184836200160a565b835262000a4060208362002f2c565b915062000a4e8483620016cc565b61ffff16602084015262000a6460028362002f2c565b915062000a7284836200160a565b604084015262000a8460208362002f2c565b915062000a9284836200160a565b606084015262000aa460208362002f2c565b915062000ab2848362001a93565b608084015262000ac460208362002f2c565b9150600062000ad485846200166c565b905062000ae360018462002f2c565b925062000af5858460ff841662001aec565b60a085015262000b0960ff82168462002f2c565b925062000b1785846200160a565b60c085015262000b2960208462002f2c565b925062000b378584620016cc565b61ffff1660e085015262000b4d60028462002f2c565b92508285511462000b945760405162461bcd60e51b815260206004820152601060248201526f34b73b30b634b2102a3930b739b332b960811b60448201526064016200068e565b505050919050565b600062000bb16001546001600160a01b031690565b905090565b600062000bea7f360894a13ba1a3210667c828492db98dca3e2076cc3735a920a3ca505d382bbc546001600160a01b031690565b905062000c0f816001600160a01b031660009081526006602052604090205460ff1690565b1562000c545760405162461bcd60e51b8152602060048201526013602482015272185b1c9958591e481a5b9a5d1a585b1a5e9959606a1b60448201526064016200068e565b62000c7d816001600160a01b03166000908152600660205260409020805460ff19166001179055565b50565b600080600062000c90846200172d565b92509250925081819062000cb95760405162461bcd60e51b81526004016200068e919062002d3d565b5062000cdf8361014001516000908152600460205260409020805460ff19166001179055565b600062000cf08460e00151620005e3565b905062000d0060025461ffff1690565b61ffff16816040015161ffff16148062000d205750604081015161ffff16155b62000d615760405162461bcd60e51b815260206004820152601060248201526f1a5b9d985b1a590818da185a5b881a5960821b60448201526064016200068e565b620009788160600151826080015161ffff909116600090815260096020526040902055565b62000c7d8162001c05565b600080600062000db9886001600160a01b031660009081526008602052604090205460ff1690565b1562000eb357876001600160a01b0316639a8a05926040518163ffffffff1660e01b815260040160206040518083038186803b15801562000df957600080fd5b505afa15801562000e0e573d6000803e3d6000fd5b505050506040513d601f19601f8201168201806040525081019062000e34919062002b85565b9150876001600160a01b0316633d6c043b6040518163ffffffff1660e01b815260040160206040518083038186803b15801562000e7057600080fd5b505afa15801562000e85573d6000803e3d6000fd5b505050506040513d601f19601f8201168201806040525081019062000eab919062002895565b90506200107d565b60025461ffff166040516301ffc9a760e01b81526380ac58cd60e01b60048201529092506001600160a01b038916915081906301ffc9a79060240160206040518083038186803b15801562000f0757600080fd5b505afa15801562000f1c573d6000803e3d6000fd5b505050506040513d601f19601f8201168201806040525081019062000f4291906200285f565b62000f9a5760405162461bcd60e51b815260206004820152602160248201527f6d75737420737570706f7274207468652045524337323120696e7465726661636044820152606560f81b60648201526084016200068e565b6040516301ffc9a760e01b8152635b5e139f60e01b60048201526001600160a01b038916906301ffc9a79060240160206040518083038186803b15801562000fe157600080fd5b505afa15801562000ff6573d6000803e3d6000fd5b505050506040513d601f19601f820116820180604052508101906200101c91906200285f565b6200107d5760405162461bcd60e51b815260206004820152602a60248201527f6d75737420737570706f727420746865204552433732312d4d657461646174616044820152691032bc3a32b739b4b7b760b11b60648201526084016200068e565b60408051600481526024810182526020810180516001600160e01b03166395d89b4160e01b1790529051606091829182916000916001600160a01b038e1691620010c79162002c1d565b600060405180830381855afa9150503d806000811462001104576040519150601f19603f3d011682016040523d82523d6000602084013e62001109565b606091505b5060408051600481526024810182526020810180516001600160e01b03166306fdde0360e01b1790529051919350600092506001600160a01b038f169162001152919062002c1d565b600060405180830381855afa9150503d80600081146200118f576040519150601f19603f3d011682016040523d82523d6000602084013e62001194565b606091505b5091505060008d6001600160a01b03168d604051602401620011b891815260200190565b60408051601f198184030181529181526020820180516001600160e01b031663c87b56dd60e01b17905251620011ef919062002c1d565b600060405180830381855afa9150503d80600081146200122c576040519150601f19603f3d011682016040523d82523d6000602084013e62001231565b606091505b50915050828060200190518101906200124b9190620028f8565b955081806020019051810190620012639190620028f8565b9450808060200190518101906200127b9190620028f8565b60208781015190870151919550935091506200129c905060025461ffff1690565b61ffff168761ffff1614156200131a57604051632142170760e11b8152336004820152306024820152604481018d90526001600160a01b038e16906342842e0e90606401600060405180830381600087803b158015620012fb57600080fd5b505af115801562001310573d6000803e3d6000fd5b5050505062001377565b604051630852cd8d60e31b8152600481018d90526001600160a01b038e16906342966c6890602401600060405180830381600087803b1580156200135d57600080fd5b505af115801562001372573d6000803e3d6000fd5b505050505b620013c56040518061010001604052808881526020018961ffff1681526020018481526020018381526020018e81526020018581526020018c81526020018d61ffff16815250348b62001f9d565b9d9c50505050505050505050505050565b8051602080830151604080850151606086810151608088015160a0890151805160c08b015160e08c01519751959a6200141b9a60019a91999198979394930162002c6e565b6040516020818303038152906040529050919050565b6040805160808101825260008082526020820181905291810182905260608101829052906200146183826200160a565b82526200147060208262002f2c565b8251909150684e465442726964676514620014dc5760405162461bcd60e51b815260206004820152602560248201527f696e76616c69642055706772616465436f6e74726163743a2077726f6e67206d6044820152646f64756c6560d81b60648201526084016200068e565b620014e883826200166c565b60ff166020830152620014fd60018262002f2c565b9050816020015160ff16600214620015665760405162461bcd60e51b815260206004820152602560248201527f696e76616c69642055706772616465436f6e74726163743a2077726f6e67206160448201526431ba34b7b760d91b60648201526084016200068e565b620015728382620016cc565b61ffff1660408301526200158860028262002f2c565b90506200159683826200160a565b6060830152620015a860208262002f2c565b905080835114620007e55760405162461bcd60e51b815260206004820152602560248201527f696e76616c69642055706772616465436f6e74726163743a2077726f6e67206c6044820152640cadccee8d60db1b60648201526084016200068e565b60006200161982602062002f2c565b83511015620016635760405162461bcd60e51b8152602060048201526015602482015274746f427974657333325f6f75744f66426f756e647360581b60448201526064016200068e565b50016020015190565b60006200167b82600162002f2c565b83511015620016c35760405162461bcd60e51b8152602060048201526013602482015272746f55696e74385f6f75744f66426f756e647360681b60448201526064016200068e565b50016001015190565b6000620016db82600262002f2c565b83511015620017245760405162461bcd60e51b8152602060048201526014602482015273746f55696e7431365f6f75744f66426f756e647360601b60448201526064016200068e565b50016002015190565b604080516101608101825260008082526020820181905291810182905260608082018390526080820183905260a0820183905260c0820183905260e082018190526101008201839052610120820152610140810191909152600060606000806000620017a16000546001600160a01b031690565b6001600160a01b031663c0fd8bde886040518263ffffffff1660e01b8152600401620017ce919062002d3d565b60006040518083038186803b158015620017e757600080fd5b505afa158015620017fc573d6000803e3d6000fd5b505050506040513d6000823e601f3d908101601f19168201604052620018269190810190620029f7565b925092509250816200183f579194509250905062001955565b60025462010000900461ffff1661ffff16836060015161ffff16146200189d5750506040805180820190915260168152753bb937b7339033b7bb32b93730b731b29031b430b4b760511b602082015290935060009250905062001955565b600354836080015114620018f057505060408051808201909152601981527f77726f6e6720676f7665726e616e636520636f6e747261637400000000000000602082015290935060009250905062001955565b61014083015160009081526004602052604090205460ff16156200193a578260006040518060600160405280602281526020016200397c6022913995509550955050505062001955565b50506040805160208101909152600081529093506001925090505b9193909250565b6000620019907f360894a13ba1a3210667c828492db98dca3e2076cc3735a920a3ca505d382bbc546001600160a01b031690565b90506200199d8262002052565b60408051600481526024810182526020810180516001600160e01b031663204a7f0760e21b179052905160009182916001600160a01b03861691620019e29162002c1d565b600060405180830381855af49150503d806000811462001a1f576040519150601f19603f3d011682016040523d82523d6000602084013e62001a24565b606091505b509150915081819062001a4c5760405162461bcd60e51b81526004016200068e919062002d3d565b50836001600160a01b0316836001600160a01b03167f2e4cc16c100f0b55e2df82ab0b1a7e294aa9cbd01b48fbaf622683fbc0507a4960405160405180910390a350505050565b600062001aa282602062002f2c565b83511015620016635760405162461bcd60e51b8152602060048201526015602482015274746f55696e743235365f6f75744f66426f756e647360581b60448201526064016200068e565b60608162001afc81601f62002f2c565b101562001b3d5760405162461bcd60e51b815260206004820152600e60248201526d736c6963655f6f766572666c6f7760901b60448201526064016200068e565b62001b49828462002f2c565b8451101562001b8f5760405162461bcd60e51b8152602060048201526011602482015270736c6963655f6f75744f66426f756e647360781b60448201526064016200068e565b60608215801562001bb0576040519150600082526020820160405262001bfc565b6040519150601f8416801560200281840101858101878315602002848b0101015b8183101562001beb57805183526020928301920162001bd1565b5050858452601f01601f1916604052505b50949350505050565b600080600062001c1d6000546001600160a01b031690565b6001600160a01b031663c0fd8bde856040518263ffffffff1660e01b815260040162001c4a919062002d3d565b60006040518083038186803b15801562001c6357600080fd5b505afa15801562001c78573d6000803e3d6000fd5b505050506040513d6000823e601f3d908101601f1916820160405262001ca29190810190620029f7565b92509250925081819062001ccb5760405162461bcd60e51b81526004016200068e919062002d3d565b5062001cd78362002094565b62001d175760405162461bcd60e51b815260206004820152600f60248201526e34b73b30b634b21032b6b4ba3a32b960891b60448201526064016200068e565b600062001d288460e001516200097f565b905062001d4984610140015160009081526005602052604090205460ff1690565b1562001d985760405162461bcd60e51b815260206004820152601a60248201527f7472616e7366657220616c726561647920636f6d706c6574656400000000000060448201526064016200068e565b62001dbd8461014001516000908152600560205260409020805460ff19166001179055565b60025461ffff1661ffff168160e0015161ffff161462001e175760405162461bcd60e51b815260206004820152601460248201527334b73b30b634b2103a30b933b2ba1031b430b4b760611b60448201526064016200068e565b600062001e2760025461ffff1690565b61ffff16826020015161ffff16141562001e445750805162001e8f565b600062001e5a836020015184600001516200086f565b90506001600160a01b03811662001e8c5762001e898360200151846000015185606001518660400151620020d1565b90505b90505b60c082015160025461ffff1661ffff16836020015161ffff161462001f2257608083015160a08401516040516334ff261960e21b81526001600160a01b0385169263d3fc98649262001ee8928692919060040162002d14565b600060405180830381600087803b15801562001f0357600080fd5b505af115801562001f18573d6000803e3d6000fd5b5050505062001f94565b6080830151604051632142170760e11b81523060048201526001600160a01b0383811660248301526044820192909252908316906342842e0e90606401600060405180830381600087803b15801562001f7a57600080fd5b505af115801562001f8f573d6000803e3d6000fd5b505050505b50505050505050565b60008062001fab85620013d6565b905062001fc06000546001600160a01b031690565b6001600160a01b031663b19a437e858584600f6040518563ffffffff1660e01b815260040162001ff39392919062002e24565b6020604051808303818588803b1580156200200d57600080fd5b505af115801562002022573d6000803e3d6000fd5b50505050506040513d601f19601f8201168201806040525081019062002049919062002bd2565b95945050505050565b6200205d816200233c565b6040516001600160a01b038216907fbc7cd75a20ee27fd9adebab32041f755214dbc6bffa90cc0225b39da2e5c2d3b90600090a250565b60008160800151620020ba836060015161ffff1660009081526009602052604090205490565b1415620020c957506001919050565b506000919050565b6000620020e160025461ffff1690565b61ffff168561ffff1614156200214b5760405162461bcd60e51b815260206004820152602860248201527f63616e206f6e6c79207772617020746f6b656e732066726f6d20666f726569676044820152676e20636861696e7360c01b60648201526084016200068e565b60006200215986866200086f565b6001600160a01b031614620021b15760405162461bcd60e51b815260206004820152601c60248201527f7772617070656420617373657420616c7265616479206578697374730000000060448201526064016200068e565b6000627ce50b60e31b620021c585620023e3565b620021d085620023e3565b308989604051602401620021e995949392919062002d52565b60408051601f19818403018152918152602080830180516001600160e01b03166001600160e01b031990951694909417909352519092506000916200223391309185910162002cee565b604051602081830303815290604052905060006040518060200162002258906200251e565b601f1982820381018352601f9091011660408190526200227e9190849060200162002c3b565b60408051601f19818403018152908290526001600160f01b031960f08b901b166020830152602282018990529150600090604201604051602081830303815290604052805190602001209050808251602084016000f59450843b620022e257600080fd5b61ffff891660009081526007602090815260408083208b8452825280832080546001600160a01b0319166001600160a01b038a16908117909155835260089091529020805460ff1916600117905550505050949350505050565b803b620023a25760405162461bcd60e51b815260206004820152602d60248201527f455243313936373a206e657720696d706c656d656e746174696f6e206973206e60448201526c1bdd08184818dbdb9d1c9858dd609a1b60648201526084016200068e565b7f360894a13ba1a3210667c828492db98dca3e2076cc3735a920a3ca505d382bbc80546001600160a01b0319166001600160a01b0392909216919091179055565b606060005b6020811080156200242657508281602081106200241557634e487b7160e01b600052603260045260246000fd5b1a60f81b6001600160f81b03191615155b15620024415780620024388162002f7a565b915050620023e8565b6000816001600160401b038111156200246a57634e487b7160e01b600052604160045260246000fd5b6040519080825280601f01601f19166020018201604052801562002495576020820181803683370190505b50905060005b828110156200251657848160208110620024c557634e487b7160e01b600052603260045260246000fd5b1a60f81b828281518110620024ea57634e487b7160e01b600052603260045260246000fd5b60200101906001600160f81b031916908160001a905350806200250d8162002f7a565b9150506200249b565b509392505050565b6109938062002fe983390190565b6000620025436200253d8462002f02565b62002ecf565b90508281528383830111156200255857600080fd5b828260208301376000602084830101529392505050565b80356001600160a01b03811681146200258757600080fd5b919050565b600082601f8301126200259d578081fd5b815160206001600160401b03821115620025bb57620025bb62002fae565b620025cb818360051b0162002ecf565b80838252828201915082860187848660071b8901011115620025eb578586fd5b855b858110156200265757608080838b03121562002607578788fd5b6200261162002e58565b83518152868401518782015260406200262c8186016200272f565b9082015260606200263f8582016200272f565b908201528552938501939190910190600101620025ed565b5090979650505050505050565b805180151581146200258757600080fd5b600082601f83011262002686578081fd5b8151620026976200253d8262002f02565b818152846020838601011115620026ac578283fd5b620026bf82602083016020870162002f47565b949350505050565b600082601f830112620026d8578081fd5b620026e9838335602085016200252c565b9392505050565b8035620025878162002fc4565b8051620025878162002fc4565b8051620025878162002fd5565b80516001600160401b03811681146200258757600080fd5b805160ff811681146200258757600080fd5b60006020828403121562002753578081fd5b620026e9826200256f565b60008060008060006080868803121562002776578081fd5b62002781866200256f565b945062002791602087016200256f565b93506040860135925060608601356001600160401b0380821115620027b4578283fd5b818801915088601f830112620027c8578283fd5b813581811115620027d7578384fd5b896020828501011115620027e9578384fd5b9699959850939650602001949392505050565b600080600080600060a0868803121562002814578283fd5b6200281f866200256f565b9450602086013593506040860135620028388162002fc4565b9250606086013591506080860135620028518162002fd5565b809150509295509295909350565b60006020828403121562002871578081fd5b620026e98262002664565b6000602082840312156200288e578081fd5b5035919050565b600060208284031215620028a7578081fd5b5051919050565b600060208284031215620028c0578081fd5b81356001600160401b03811115620028d6578182fd5b8201601f81018413620028e7578182fd5b620026bf848235602084016200252c565b6000602082840312156200290a578081fd5b81516001600160401b0381111562002920578182fd5b620026bf8482850162002675565b60006020828403121562002940578081fd5b81356001600160401b038082111562002957578283fd5b9083019061010082860312156200296c578283fd5b6200297662002e83565b823581526200298860208401620026f0565b602082015260408301356040820152606083013560608201526080830135608082015260a083013582811115620029bd578485fd5b620029cb87828601620026c7565b60a08301525060c083013560c0820152620029e960e08401620026f0565b60e082015295945050505050565b60008060006060848603121562002a0c578081fd5b83516001600160401b038082111562002a23578283fd5b90850190610160828803121562002a38578283fd5b62002a4262002ea9565b62002a4d836200272f565b815262002a5d602084016200270a565b602082015262002a70604084016200270a565b604082015262002a8360608401620026fd565b60608201526080830151608082015262002aa060a0840162002717565b60a082015262002ab360c084016200272f565b60c082015260e08301518281111562002aca578485fd5b62002ad88982860162002675565b60e08301525061010062002aee8185016200270a565b90820152610120838101518381111562002b06578586fd5b62002b148a8287016200258c565b91830191909152506101408381015190820152945062002b376020870162002664565b9350604086015191508082111562002b4d578283fd5b5062002b5c8682870162002675565b9150509250925092565b60006020828403121562002b78578081fd5b8135620026e98162002fc4565b60006020828403121562002b97578081fd5b8151620026e98162002fc4565b6000806040838503121562002bb7578182fd5b823562002bc48162002fc4565b946020939093013593505050565b60006020828403121562002be4578081fd5b620026e98262002717565b6000815180845262002c0981602086016020860162002f47565b601f01601f19169290920160200192915050565b6000825162002c3181846020870162002f47565b9190910192915050565b6000835162002c4f81846020880162002f47565b83519083019062002c6581836020880162002f47565b01949350505050565b600060ff60f81b808d60f81b1683528b600184015261ffff60f01b808c60f01b1660218501528a6023850152896043850152886063850152818860f81b1660838501528651915062002cc8826084860160208a0162002f47565b920160848101949094525060f09190911b1660a482015260a60198975050505050505050565b6001600160a01b0383168152604060208201819052600090620026bf9083018462002bef565b60018060a01b038416815282602082015260606040820152600062002049606083018462002bef565b602081526000620026e9602083018462002bef565b60a08152600062002d6760a083018862002bef565b828103602084015262002d7b818862002bef565b6001600160a01b03969096166040840152505061ffff92909216606083015260809091015292915050565b60208152815160208201526000602083015161ffff80821660408501526040850151606085015260608501516080850152608085015160a085015260a085015191506101008060c086015262002e0161012086018462002bef565b925060c086015160e08601528160e0870151168186015250508091505092915050565b63ffffffff8416815260606020820152600062002e45606083018562002bef565b905060ff83166040830152949350505050565b604051608081016001600160401b038111828210171562002e7d5762002e7d62002fae565b60405290565b60405161010081016001600160401b038111828210171562002e7d5762002e7d62002fae565b60405161016081016001600160401b038111828210171562002e7d5762002e7d62002fae565b604051601f8201601f191681016001600160401b038111828210171562002efa5762002efa62002fae565b604052919050565b60006001600160401b0382111562002f1e5762002f1e62002fae565b50601f01601f191660200190565b6000821982111562002f425762002f4262002f98565b500190565b60005b8381101562002f6457818101518382015260200162002f4a565b8381111562002f74576000848401525b50505050565b600060001982141562002f915762002f9162002f98565b5060010190565b634e487b7160e01b600052601160045260246000fd5b634e487b7160e01b600052604160045260246000fd5b61ffff8116811462000c7d57600080fd5b63ffffffff8116811462000c7d57600080fdfe608060405234801561001057600080fd5b5060405161099338038061099383398101604081905261002f9161048e565b818161005c60017fa3f0ad74e5423aebfd80d3ef4346578335a9a72aeaee59ff6cb3582b35133d51610599565b60008051602061094c8339815191521461008657634e487b7160e01b600052600160045260246000fd5b6100928282600061009b565b505050506105fe565b6100a483610175565b6040516001600160a01b038416907f1cf3b03a6cf19fa2baba4df148e9dcabedea7f8a5c07840e207e5c089be95d3e90600090a26000825111806100e55750805b156101705761016e836001600160a01b0316635c60da1b6040518163ffffffff1660e01b815260040160206040518083038186803b15801561012657600080fd5b505afa15801561013a573d6000803e3d6000fd5b505050506040513d601f19601f8201168201806040525081019061015e9190610474565b8361031560201b6100291760201c565b505b505050565b6101888161034160201b6100551760201c565b6101e75760405162461bcd60e51b815260206004820152602560248201527f455243313936373a206e657720626561636f6e206973206e6f74206120636f6e6044820152641d1c9858dd60da1b60648201526084015b60405180910390fd5b61026a816001600160a01b0316635c60da1b6040518163ffffffff1660e01b815260040160206040518083038186803b15801561022357600080fd5b505afa158015610237573d6000803e3d6000fd5b505050506040513d601f19601f8201168201806040525081019061025b9190610474565b61034160201b6100551760201c565b6102cf5760405162461bcd60e51b815260206004820152603060248201527f455243313936373a20626561636f6e20696d706c656d656e746174696f6e206960448201526f1cc81b9bdd08184818dbdb9d1c9858dd60821b60648201526084016101de565b806102f460008051602061094c83398151915260001b61034760201b61005b1760201c565b80546001600160a01b0319166001600160a01b039290921691909117905550565b606061033a838360405180606001604052806027815260200161096c6027913961034a565b9392505050565b3b151590565b90565b6060833b6103a95760405162461bcd60e51b815260206004820152602660248201527f416464726573733a2064656c65676174652063616c6c20746f206e6f6e2d636f6044820152651b9d1c9858dd60d21b60648201526084016101de565b600080856001600160a01b0316856040516103c4919061054a565b600060405180830381855af49150503d80600081146103ff576040519150601f19603f3d011682016040523d82523d6000602084013e610404565b606091505b50909250905061041582828661041f565b9695505050505050565b6060831561042e57508161033a565b82511561043e5782518084602001fd5b8160405162461bcd60e51b81526004016101de9190610566565b80516001600160a01b038116811461046f57600080fd5b919050565b600060208284031215610485578081fd5b61033a82610458565b600080604083850312156104a0578081fd5b6104a983610458565b60208401519092506001600160401b03808211156104c5578283fd5b818501915085601f8301126104d8578283fd5b8151818111156104ea576104ea6105e8565b604051601f8201601f19908116603f01168101908382118183101715610512576105126105e8565b8160405282815288602084870101111561052a578586fd5b61053b8360208301602088016105bc565b80955050505050509250929050565b6000825161055c8184602087016105bc565b9190910192915050565b60208152600082518060208401526105858160408501602087016105bc565b601f01601f19169190910160400192915050565b6000828210156105b757634e487b7160e01b81526011600452602481fd5b500390565b60005b838110156105d75781810151838201526020016105bf565b8381111561016e5750506000910152565b634e487b7160e01b600052604160045260246000fd5b61033f8061060d6000396000f3fe60806040523661001357610011610017565b005b6100115b61002761002261005e565b610106565b565b606061004e83836040518060600160405280602781526020016102e36027913961012a565b9392505050565b3b151590565b90565b60006100917fa3f0ad74e5423aebfd80d3ef4346578335a9a72aeaee59ff6cb3582b35133d50546001600160a01b031690565b6001600160a01b0316635c60da1b6040518163ffffffff1660e01b815260040160206040518083038186803b1580156100c957600080fd5b505afa1580156100dd573d6000803e3d6000fd5b505050506040513d601f19601f82011682018060405250810190610101919061023c565b905090565b3660008037600080366000845af43d6000803e808015610125573d6000f35b3d6000fd5b6060833b61018e5760405162461bcd60e51b815260206004820152602660248201527f416464726573733a2064656c65676174652063616c6c20746f206e6f6e2d636f6044820152651b9d1c9858dd60d21b60648201526084015b60405180910390fd5b600080856001600160a01b0316856040516101a99190610263565b600060405180830381855af49150503d80600081146101e4576040519150601f19603f3d011682016040523d82523d6000602084013e6101e9565b606091505b50915091506101f9828286610203565b9695505050505050565b6060831561021257508161004e565b8251156102225782518084602001fd5b8160405162461bcd60e51b8152600401610185919061027f565b60006020828403121561024d578081fd5b81516001600160a01b038116811461004e578182fd5b600082516102758184602087016102b2565b9190910192915050565b602081526000825180602084015261029e8160408501602087016102b2565b601f01601f19169190910160400192915050565b60005b838110156102cd5781810151838201526020016102b5565b838111156102dc576000848401525b5050505056fe416464726573733a206c6f772d6c6576656c2064656c65676174652063616c6c206661696c6564a2646970667358221220d7066234cc4170f916948edddd5eee84cf2bc07ff5f73b05e535799ff688c9da64736f6c63430008040033a3f0ad74e5423aebfd80d3ef4346578335a9a72aeaee59ff6cb3582b35133d50416464726573733a206c6f772d6c6576656c2064656c65676174652063616c6c206661696c6564676f7665726e616e636520616374696f6e20616c726561647920636f6e73756d6564a26469706673582212207f6ac0e88f671a435aab628d8221b338a4781f9d22ea7d13accc434818261b9364736f6c63430008040033",
  "immutableReferences": {},
  "source": "// contracts/Implementation.sol\n// SPDX-License-Identifier: Apache 2\n\npragma solidity ^0.8.0;\n\nimport \"../NFTBridgeImplementation.sol\";\n\ncontract MockNFTBridgeImplementation is NFTBridgeImplementation {\n    function initialize() initializer public {\n        // this function needs to be exposed for an upgrade to pass\n    }\n\n    function testNewImplementationActive() external pure returns (bool) {\n        return true;\n    }\n}\n",
  "sourcePath": "/Users/blue/sourcecode/wormhole/ethereum/contracts/nft/mock/MockNFTBridgeImplementation.sol",
  "compiler": {
    "name": "solc",
    "version": "0.8.4+commit.c7e474f2.Emscripten.clang"
  },
  "schemaVersion": "3.4.1",
  "updatedAt": "2021-09-15T12:33:03.616Z",
  "devdoc": {
    "kind": "dev",
    "methods": {},
    "version": 1
  },
  "userdoc": {
    "kind": "user",
    "methods": {},
    "version": 1
  }
}