{
  "contractName": "NFTBridge",
  "abi": [
    {
      "anonymous": false,
      "inputs": [
        {
          "indexed": false,
          "internalType": "address",
          "name": "previousAdmin",
          "type": "address"
        },
        {
          "indexed": false,
          "internalType": "address",
          "name": "newAdmin",
          "type": "address"
        }
      ],
      "name": "AdminChanged",
      "type": "event"
    },
    {
      "anonymous": false,
      "inputs": [
        {
          "indexed": true,
          "internalType": "address",
          "name": "beacon",
          "type": "address"
        }
      ],
      "name": "BeaconUpgraded",
      "type": "event"
    },
    {
      "anonymous": false,
      "inputs": [
        {
          "indexed": true,
          "internalType": "address",
          "name": "oldContract",
          "type": "address"
        },
        {
          "indexed": true,
          "internalType": "address",
          "name": "newContract",
          "type": "address"
        }
      ],
      "name": "ContractUpgraded",
      "type": "event"
    },
    {
      "anonymous": false,
      "inputs": [
        {
          "indexed": true,
          "internalType": "address",
          "name": "implementation",
          "type": "address"
        }
      ],
      "name": "Upgraded",
      "type": "event"
    },
    {
      "inputs": [
        {
          "internalType": "uint16",
          "name": "chainId_",
          "type": "uint16"
        }
      ],
      "name": "bridgeContracts",
      "outputs": [
        {
          "internalType": "bytes32",
          "name": "",
          "type": "bytes32"
        }
      ],
      "stateMutability": "view",
      "type": "function"
    },
    {
      "inputs": [],
      "name": "chainId",
      "outputs": [
        {
          "internalType": "uint16",
          "name": "",
          "type": "uint16"
        }
      ],
      "stateMutability": "view",
      "type": "function"
    },
    {
      "inputs": [
        {
          "internalType": "bytes32",
          "name": "hash",
          "type": "bytes32"
        }
      ],
      "name": "governanceActionIsConsumed",
      "outputs": [
        {
          "internalType": "bool",
          "name": "",
          "type": "bool"
        }
      ],
      "stateMutability": "view",
      "type": "function"
    },
    {
      "inputs": [],
      "name": "governanceChainId",
      "outputs": [
        {
          "internalType": "uint16",
          "name": "",
          "type": "uint16"
        }
      ],
      "stateMutability": "view",
      "type": "function"
    },
    {
      "inputs": [],
      "name": "governanceContract",
      "outputs": [
        {
          "internalType": "bytes32",
          "name": "",
          "type": "bytes32"
        }
      ],
      "stateMutability": "view",
      "type": "function"
    },
    {
      "inputs": [
        {
          "internalType": "address",
          "name": "impl",
          "type": "address"
        }
      ],
      "name": "isInitialized",
      "outputs": [
        {
          "internalType": "bool",
          "name": "",
          "type": "bool"
        }
      ],
      "stateMutability": "view",
      "type": "function"
    },
    {
      "inputs": [
        {
          "internalType": "bytes32",
          "name": "hash",
          "type": "bytes32"
        }
      ],
      "name": "isTransferCompleted",
      "outputs": [
        {
          "internalType": "bool",
          "name": "",
          "type": "bool"
        }
      ],
      "stateMutability": "view",
      "type": "function"
    },
    {
      "inputs": [
        {
          "internalType": "address",
          "name": "token",
          "type": "address"
        }
      ],
      "name": "isWrappedAsset",
      "outputs": [
        {
          "internalType": "bool",
          "name": "",
          "type": "bool"
        }
      ],
      "stateMutability": "view",
      "type": "function"
    },
    {
      "inputs": [
        {
          "internalType": "bytes",
          "name": "encoded",
          "type": "bytes"
        }
      ],
      "name": "parseRegisterChain",
      "outputs": [
        {
          "components": [
            {
              "internalType": "bytes32",
              "name": "module",
              "type": "bytes32"
            },
            {
              "internalType": "uint8",
              "name": "action",
              "type": "uint8"
            },
            {
              "internalType": "uint16",
              "name": "chainId",
              "type": "uint16"
            },
            {
              "internalType": "uint16",
              "name": "emitterChainID",
              "type": "uint16"
            },
            {
              "internalType": "bytes32",
              "name": "emitterAddress",
              "type": "bytes32"
            }
          ],
          "internalType": "struct NFTBridgeStructs.RegisterChain",
          "name": "chain",
          "type": "tuple"
        }
      ],
      "stateMutability": "pure",
      "type": "function"
    },
    {
      "inputs": [
        {
          "internalType": "bytes",
          "name": "encoded",
          "type": "bytes"
        }
      ],
      "name": "parseUpgrade",
      "outputs": [
        {
          "components": [
            {
              "internalType": "bytes32",
              "name": "module",
              "type": "bytes32"
            },
            {
              "internalType": "uint8",
              "name": "action",
              "type": "uint8"
            },
            {
              "internalType": "uint16",
              "name": "chainId",
              "type": "uint16"
            },
            {
              "internalType": "bytes32",
              "name": "newContract",
              "type": "bytes32"
            }
          ],
          "internalType": "struct NFTBridgeStructs.UpgradeContract",
          "name": "chain",
          "type": "tuple"
        }
      ],
      "stateMutability": "pure",
      "type": "function"
    },
    {
      "inputs": [
        {
          "internalType": "bytes",
          "name": "encodedVM",
          "type": "bytes"
        }
      ],
      "name": "registerChain",
      "outputs": [],
      "stateMutability": "nonpayable",
      "type": "function"
    },
    {
      "inputs": [],
      "name": "tokenImplementation",
      "outputs": [
        {
          "internalType": "address",
          "name": "",
          "type": "address"
        }
      ],
      "stateMutability": "view",
      "type": "function"
    },
    {
      "inputs": [
        {
          "internalType": "bytes",
          "name": "encodedVM",
          "type": "bytes"
        }
      ],
      "name": "upgrade",
      "outputs": [],
      "stateMutability": "nonpayable",
      "type": "function"
    },
    {
      "inputs": [],
      "name": "wormhole",
      "outputs": [
        {
          "internalType": "contract IWormhole",
          "name": "",
          "type": "address"
        }
      ],
      "stateMutability": "view",
      "type": "function"
    },
    {
      "inputs": [
        {
          "internalType": "uint16",
          "name": "tokenChainId",
          "type": "uint16"
        },
        {
          "internalType": "bytes32",
          "name": "tokenAddress",
          "type": "bytes32"
        }
      ],
      "name": "wrappedAsset",
      "outputs": [
        {
          "internalType": "address",
          "name": "",
          "type": "address"
        }
      ],
      "stateMutability": "view",
      "type": "function"
    },
    {
      "inputs": [
        {
          "internalType": "address",
          "name": "token",
          "type": "address"
        },
        {
          "internalType": "uint256",
          "name": "tokenID",
          "type": "uint256"
        },
        {
          "internalType": "uint16",
          "name": "recipientChain",
          "type": "uint16"
        },
        {
          "internalType": "bytes32",
          "name": "recipient",
          "type": "bytes32"
        },
        {
          "internalType": "uint32",
          "name": "nonce",
          "type": "uint32"
        }
      ],
      "name": "transferNFT",
      "outputs": [
        {
          "internalType": "uint64",
          "name": "sequence",
          "type": "uint64"
        }
      ],
      "stateMutability": "payable",
      "type": "function"
    },
    {
      "inputs": [
        {
          "internalType": "bytes",
          "name": "encodedVm",
          "type": "bytes"
        }
      ],
      "name": "completeTransfer",
      "outputs": [],
      "stateMutability": "nonpayable",
      "type": "function"
    },
    {
      "inputs": [
        {
          "components": [
            {
              "internalType": "bytes32",
              "name": "tokenAddress",
              "type": "bytes32"
            },
            {
              "internalType": "uint16",
              "name": "tokenChain",
              "type": "uint16"
            },
            {
              "internalType": "bytes32",
              "name": "symbol",
              "type": "bytes32"
            },
            {
              "internalType": "bytes32",
              "name": "name",
              "type": "bytes32"
            },
            {
              "internalType": "uint256",
              "name": "tokenID",
              "type": "uint256"
            },
            {
              "internalType": "string",
              "name": "uri",
              "type": "string"
            },
            {
              "internalType": "bytes32",
              "name": "to",
              "type": "bytes32"
            },
            {
              "internalType": "uint16",
              "name": "toChain",
              "type": "uint16"
            }
          ],
          "internalType": "struct NFTBridgeStructs.Transfer",
          "name": "transfer",
          "type": "tuple"
        }
      ],
      "name": "encodeTransfer",
      "outputs": [
        {
          "internalType": "bytes",
          "name": "encoded",
          "type": "bytes"
        }
      ],
      "stateMutability": "pure",
      "type": "function"
    },
    {
      "inputs": [
        {
          "internalType": "bytes",
          "name": "encoded",
          "type": "bytes"
        }
      ],
      "name": "parseTransfer",
      "outputs": [
        {
          "components": [
            {
              "internalType": "bytes32",
              "name": "tokenAddress",
              "type": "bytes32"
            },
            {
              "internalType": "uint16",
              "name": "tokenChain",
              "type": "uint16"
            },
            {
              "internalType": "bytes32",
              "name": "symbol",
              "type": "bytes32"
            },
            {
              "internalType": "bytes32",
              "name": "name",
              "type": "bytes32"
            },
            {
              "internalType": "uint256",
              "name": "tokenID",
              "type": "uint256"
            },
            {
              "internalType": "string",
              "name": "uri",
              "type": "string"
            },
            {
              "internalType": "bytes32",
              "name": "to",
              "type": "bytes32"
            },
            {
              "internalType": "uint16",
              "name": "toChain",
              "type": "uint16"
            }
          ],
          "internalType": "struct NFTBridgeStructs.Transfer",
          "name": "transfer",
          "type": "tuple"
        }
      ],
      "stateMutability": "pure",
      "type": "function"
    },
    {
      "inputs": [
        {
          "internalType": "address",
          "name": "operator",
          "type": "address"
        },
        {
          "internalType": "address",
          "name": "",
          "type": "address"
        },
        {
          "internalType": "uint256",
          "name": "",
          "type": "uint256"
        },
        {
          "internalType": "bytes",
          "name": "",
          "type": "bytes"
        }
      ],
      "name": "onERC721Received",
      "outputs": [
        {
          "internalType": "bytes4",
          "name": "",
          "type": "bytes4"
        }
      ],
      "stateMutability": "view",
      "type": "function"
    }
  ],
  "bytecode": "0x608060405234801561001057600080fd5b50613888806100206000396000f3fe608060405260043610620001375760003560e01c8063a5799f9311620000ad578063c96616e1116200006c578063c96616e11462000457578063d60b347f1462000487578063e6a853e014620004c4578063fbe3c2cd14620004f8578063fbeeacd9146200051957600080fd5b8063a5799f93146200037e578063aa4efa5b14620003a3578063ad66a5f114620003d7578063b172b222146200041b578063c6878519146200043257600080fd5b80632b51137511620000fa5780632b51137514620002ac5780632c3c02a414620002e05780632f3a3d5d146200031457806384acd1bb14620003345780639a8a0592146200035457600080fd5b806301f53255146200013c578063150b7a0214620001ba5780631a2be4da14620001f95780631ff1e2861462000247578063253946451462000285575b600080fd5b3480156200014957600080fd5b50620001616200015b36600462002763565b62000579565b604051620001b19190600060a0820190508251825260ff6020840151166020830152604083015161ffff808216604085015280606086015116606085015250506080830151608083015292915050565b60405180910390f35b348015620001c757600080fd5b50620001df620001d936600462002613565b62000781565b6040516001600160e01b03199091168152602001620001b1565b3480156200020657600080fd5b506200023662000218366004620025f6565b6001600160a01b031660009081526008602052604090205460ff1690565b6040519015158152602001620001b1565b3480156200025457600080fd5b506200026c6200026636600462002a59565b62000805565b6040516001600160a01b039091168152602001620001b1565b3480156200029257600080fd5b50620002aa620002a436600462002763565b62000831565b005b348015620002b957600080fd5b50620002d1620002cb36600462002763565b62000915565b604051620001b1919062002c5b565b348015620002ed57600080fd5b5062000236620002ff36600462002731565b60009081526004602052604090205460ff1690565b3480156200032157600080fd5b506001546001600160a01b03166200026c565b3480156200034157600080fd5b506000546001600160a01b03166200026c565b3480156200036157600080fd5b5060025461ffff165b60405161ffff9091168152602001620001b1565b3480156200038b57600080fd5b50620002aa6200039d36600462002763565b62000b32565b348015620003b057600080fd5b5062000236620003c236600462002731565b60009081526005602052604090205460ff1690565b348015620003e457600080fd5b506200040c620003f636600462002a1b565b61ffff1660009081526009602052604090205490565b604051908152602001620001b1565b3480156200042857600080fd5b506003546200040c565b3480156200043f57600080fd5b50620002aa6200045136600462002763565b62000c38565b6200046e62000468366004620026b1565b62000c46565b6040516001600160401b039091168152602001620001b1565b3480156200049457600080fd5b5062000236620004a6366004620025f6565b6001600160a01b031660009081526006602052604090205460ff1690565b348015620004d157600080fd5b50620004e9620004e3366004620027e3565b6200128b565b604051620001b1919062002bf2565b3480156200050557600080fd5b5060025462010000900461ffff166200036a565b3480156200052657600080fd5b506200053e6200053836600462002763565b620012e6565b604051620001b191908151815260208083015160ff169082015260408083015161ffff16908201526060918201519181019190915260800190565b6040805160a081018252600080825260208201819052918101829052606081018290526080810182905290620005b08382620014bf565b8252620005bf60208262002de1565b8251909150684e4654427269646765146200062d5760405162461bcd60e51b815260206004820152602360248201527f696e76616c6964205265676973746572436861696e3a2077726f6e67206d6f64604482015262756c6560e81b60648201526084015b60405180910390fd5b62000639838262001521565b60ff1660208301526200064e60018262002de1565b9050816020015160ff16600114620006b55760405162461bcd60e51b815260206004820152602360248201527f696e76616c6964205265676973746572436861696e3a2077726f6e672061637460448201526234b7b760e91b606482015260840162000624565b620006c1838262001581565b61ffff166040830152620006d760028262002de1565b9050620006e5838262001581565b61ffff166060830152620006fb60028262002de1565b9050620007098382620014bf565b60808301526200071b60208262002de1565b9050808351146200077b5760405162461bcd60e51b815260206004820152602360248201527f696e76616c6964205265676973746572436861696e3a2077726f6e67206c656e6044820152620cee8d60eb1b606482015260840162000624565b50919050565b60006001600160a01b0386163014620007f35760405162461bcd60e51b815260206004820152602d60248201527f63616e206f6e6c792062726964676520746f6b656e7320766961207472616e7360448201526c19995c939195081b595d1a1bd9609a1b606482015260840162000624565b50630a85bd0160e11b95945050505050565b61ffff91909116600090815260076020908152604080832093835292905220546001600160a01b031690565b60008060006200084184620015e2565b9250925092508181906200086a5760405162461bcd60e51b815260040162000624919062002bf2565b50620008908361014001516000908152600460205260409020805460ff19166001179055565b6000620008a18460e00151620012e6565b9050620008b160025461ffff1690565b61ffff16816040015161ffff1614620008fe5760405162461bcd60e51b815260206004820152600e60248201526d1ddc9bdb99c818da185a5b881a5960921b604482015260640162000624565b60608101516200090e9062001811565b5050505050565b604080516101008101825260008082526020820181905291810182905260608082018390526080820183905260a082015260c0810182905260e08101829052908062000962848262001521565b90506200097160018362002de1565b91508060ff16600114620009bb5760405162461bcd60e51b815260206004820152601060248201526f34b73b30b634b2102a3930b739b332b960811b604482015260640162000624565b620009c78483620014bf565b8352620009d660208362002de1565b9150620009e4848362001581565b61ffff166020840152620009fa60028362002de1565b915062000a088483620014bf565b604084015262000a1a60208362002de1565b915062000a288483620014bf565b606084015262000a3a60208362002de1565b915062000a48848362001948565b608084015262000a5a60208362002de1565b9150600062000a6a858462001521565b905062000a7960018462002de1565b925062000a8b858460ff8416620019a1565b60a085015262000a9f60ff82168462002de1565b925062000aad8584620014bf565b60c085015262000abf60208462002de1565b925062000acd858462001581565b61ffff1660e085015262000ae360028462002de1565b92508285511462000b2a5760405162461bcd60e51b815260206004820152601060248201526f34b73b30b634b2102a3930b739b332b960811b604482015260640162000624565b505050919050565b600080600062000b4284620015e2565b92509250925081819062000b6b5760405162461bcd60e51b815260040162000624919062002bf2565b5062000b918361014001516000908152600460205260409020805460ff19166001179055565b600062000ba28460e0015162000579565b905062000bb260025461ffff1690565b61ffff16816040015161ffff16148062000bd25750604081015161ffff16155b62000c135760405162461bcd60e51b815260206004820152601060248201526f1a5b9d985b1a590818da185a5b881a5960821b604482015260640162000624565b6200090e8160600151826080015161ffff909116600090815260096020526040902055565b62000c438162001aba565b50565b600080600062000c6e886001600160a01b031660009081526008602052604090205460ff1690565b1562000d6857876001600160a01b0316639a8a05926040518163ffffffff1660e01b815260040160206040518083038186803b15801562000cae57600080fd5b505afa15801562000cc3573d6000803e3d6000fd5b505050506040513d601f19601f8201168201806040525081019062000ce9919062002a3a565b9150876001600160a01b0316633d6c043b6040518163ffffffff1660e01b815260040160206040518083038186803b15801562000d2557600080fd5b505afa15801562000d3a573d6000803e3d6000fd5b505050506040513d601f19601f8201168201806040525081019062000d6091906200274a565b905062000f32565b60025461ffff166040516301ffc9a760e01b81526380ac58cd60e01b60048201529092506001600160a01b038916915081906301ffc9a79060240160206040518083038186803b15801562000dbc57600080fd5b505afa15801562000dd1573d6000803e3d6000fd5b505050506040513d601f19601f8201168201806040525081019062000df7919062002714565b62000e4f5760405162461bcd60e51b815260206004820152602160248201527f6d75737420737570706f7274207468652045524337323120696e7465726661636044820152606560f81b606482015260840162000624565b6040516301ffc9a760e01b8152635b5e139f60e01b60048201526001600160a01b038916906301ffc9a79060240160206040518083038186803b15801562000e9657600080fd5b505afa15801562000eab573d6000803e3d6000fd5b505050506040513d601f19601f8201168201806040525081019062000ed1919062002714565b62000f325760405162461bcd60e51b815260206004820152602a60248201527f6d75737420737570706f727420746865204552433732312d4d657461646174616044820152691032bc3a32b739b4b7b760b11b606482015260840162000624565b60408051600481526024810182526020810180516001600160e01b03166395d89b4160e01b1790529051606091829182916000916001600160a01b038e169162000f7c9162002ad2565b600060405180830381855afa9150503d806000811462000fb9576040519150601f19603f3d011682016040523d82523d6000602084013e62000fbe565b606091505b5060408051600481526024810182526020810180516001600160e01b03166306fdde0360e01b1790529051919350600092506001600160a01b038f169162001007919062002ad2565b600060405180830381855afa9150503d806000811462001044576040519150601f19603f3d011682016040523d82523d6000602084013e62001049565b606091505b5091505060008d6001600160a01b03168d6040516024016200106d91815260200190565b60408051601f198184030181529181526020820180516001600160e01b031663c87b56dd60e01b17905251620010a4919062002ad2565b600060405180830381855afa9150503d8060008114620010e1576040519150601f19603f3d011682016040523d82523d6000602084013e620010e6565b606091505b5091505082806020019051810190620011009190620027ad565b955081806020019051810190620011189190620027ad565b945080806020019051810190620011309190620027ad565b602087810151908701519195509350915062001151905060025461ffff1690565b61ffff168761ffff161415620011cf57604051632142170760e11b8152336004820152306024820152604481018d90526001600160a01b038e16906342842e0e90606401600060405180830381600087803b158015620011b057600080fd5b505af1158015620011c5573d6000803e3d6000fd5b505050506200122c565b604051630852cd8d60e31b8152600481018d90526001600160a01b038e16906342966c6890602401600060405180830381600087803b1580156200121257600080fd5b505af115801562001227573d6000803e3d6000fd5b505050505b6200127a6040518061010001604052808881526020018961ffff1681526020018481526020018381526020018e81526020018581526020018c81526020018d61ffff16815250348b62001e52565b9d9c50505050505050505050505050565b8051602080830151604080850151606086810151608088015160a0890151805160c08b015160e08c01519751959a620012d09a60019a91999198979394930162002b23565b6040516020818303038152906040529050919050565b604080516080810182526000808252602082018190529181018290526060810182905290620013168382620014bf565b82526200132560208262002de1565b8251909150684e465442726964676514620013915760405162461bcd60e51b815260206004820152602560248201527f696e76616c69642055706772616465436f6e74726163743a2077726f6e67206d6044820152646f64756c6560d81b606482015260840162000624565b6200139d838262001521565b60ff166020830152620013b260018262002de1565b9050816020015160ff166002146200141b5760405162461bcd60e51b815260206004820152602560248201527f696e76616c69642055706772616465436f6e74726163743a2077726f6e67206160448201526431ba34b7b760d91b606482015260840162000624565b62001427838262001581565b61ffff1660408301526200143d60028262002de1565b90506200144b8382620014bf565b60608301526200145d60208262002de1565b9050808351146200077b5760405162461bcd60e51b815260206004820152602560248201527f696e76616c69642055706772616465436f6e74726163743a2077726f6e67206c6044820152640cadccee8d60db1b606482015260840162000624565b6000620014ce82602062002de1565b83511015620015185760405162461bcd60e51b8152602060048201526015602482015274746f427974657333325f6f75744f66426f756e647360581b604482015260640162000624565b50016020015190565b60006200153082600162002de1565b83511015620015785760405162461bcd60e51b8152602060048201526013602482015272746f55696e74385f6f75744f66426f756e647360681b604482015260640162000624565b50016001015190565b60006200159082600262002de1565b83511015620015d95760405162461bcd60e51b8152602060048201526014602482015273746f55696e7431365f6f75744f66426f756e647360601b604482015260640162000624565b50016002015190565b604080516101608101825260008082526020820181905291810182905260608082018390526080820183905260a0820183905260c0820183905260e082018190526101008201839052610120820152610140810191909152600060606000806000620016566000546001600160a01b031690565b6001600160a01b031663c0fd8bde886040518263ffffffff1660e01b815260040162001683919062002bf2565b60006040518083038186803b1580156200169c57600080fd5b505afa158015620016b1573d6000803e3d6000fd5b505050506040513d6000823e601f3d908101601f19168201604052620016db9190810190620028ac565b92509250925081620016f457919450925090506200180a565b60025462010000900461ffff1661ffff16836060015161ffff1614620017525750506040805180820190915260168152753bb937b7339033b7bb32b93730b731b29031b430b4b760511b60208201529093506000925090506200180a565b600354836080015114620017a557505060408051808201909152601981527f77726f6e6720676f7665726e616e636520636f6e74726163740000000000000060208201529093506000925090506200180a565b61014083015160009081526004602052604090205460ff1615620017ef5782600060405180606001604052806022815260200162003831602291399550955095505050506200180a565b50506040805160208101909152600081529093506001925090505b9193909250565b6000620018457f360894a13ba1a3210667c828492db98dca3e2076cc3735a920a3ca505d382bbc546001600160a01b031690565b9050620018528262001f07565b60408051600481526024810182526020810180516001600160e01b031663204a7f0760e21b179052905160009182916001600160a01b03861691620018979162002ad2565b600060405180830381855af49150503d8060008114620018d4576040519150601f19603f3d011682016040523d82523d6000602084013e620018d9565b606091505b5091509150818190620019015760405162461bcd60e51b815260040162000624919062002bf2565b50836001600160a01b0316836001600160a01b03167f2e4cc16c100f0b55e2df82ab0b1a7e294aa9cbd01b48fbaf622683fbc0507a4960405160405180910390a350505050565b60006200195782602062002de1565b83511015620015185760405162461bcd60e51b8152602060048201526015602482015274746f55696e743235365f6f75744f66426f756e647360581b604482015260640162000624565b606081620019b181601f62002de1565b1015620019f25760405162461bcd60e51b815260206004820152600e60248201526d736c6963655f6f766572666c6f7760901b604482015260640162000624565b620019fe828462002de1565b8451101562001a445760405162461bcd60e51b8152602060048201526011602482015270736c6963655f6f75744f66426f756e647360781b604482015260640162000624565b60608215801562001a65576040519150600082526020820160405262001ab1565b6040519150601f8416801560200281840101858101878315602002848b0101015b8183101562001aa057805183526020928301920162001a86565b5050858452601f01601f1916604052505b50949350505050565b600080600062001ad26000546001600160a01b031690565b6001600160a01b031663c0fd8bde856040518263ffffffff1660e01b815260040162001aff919062002bf2565b60006040518083038186803b15801562001b1857600080fd5b505afa15801562001b2d573d6000803e3d6000fd5b505050506040513d6000823e601f3d908101601f1916820160405262001b579190810190620028ac565b92509250925081819062001b805760405162461bcd60e51b815260040162000624919062002bf2565b5062001b8c8362001f49565b62001bcc5760405162461bcd60e51b815260206004820152600f60248201526e34b73b30b634b21032b6b4ba3a32b960891b604482015260640162000624565b600062001bdd8460e0015162000915565b905062001bfe84610140015160009081526005602052604090205460ff1690565b1562001c4d5760405162461bcd60e51b815260206004820152601a60248201527f7472616e7366657220616c726561647920636f6d706c65746564000000000000604482015260640162000624565b62001c728461014001516000908152600560205260409020805460ff19166001179055565b60025461ffff1661ffff168160e0015161ffff161462001ccc5760405162461bcd60e51b815260206004820152601460248201527334b73b30b634b2103a30b933b2ba1031b430b4b760611b604482015260640162000624565b600062001cdc60025461ffff1690565b61ffff16826020015161ffff16141562001cf95750805162001d44565b600062001d0f8360200151846000015162000805565b90506001600160a01b03811662001d415762001d3e836020015184600001518560600151866040015162001f86565b90505b90505b60c082015160025461ffff1661ffff16836020015161ffff161462001dd757608083015160a08401516040516334ff261960e21b81526001600160a01b0385169263d3fc98649262001d9d928692919060040162002bc9565b600060405180830381600087803b15801562001db857600080fd5b505af115801562001dcd573d6000803e3d6000fd5b5050505062001e49565b6080830151604051632142170760e11b81523060048201526001600160a01b0383811660248301526044820192909252908316906342842e0e90606401600060405180830381600087803b15801562001e2f57600080fd5b505af115801562001e44573d6000803e3d6000fd5b505050505b50505050505050565b60008062001e60856200128b565b905062001e756000546001600160a01b031690565b6001600160a01b031663b19a437e858584600f6040518563ffffffff1660e01b815260040162001ea89392919062002cd9565b6020604051808303818588803b15801562001ec257600080fd5b505af115801562001ed7573d6000803e3d6000fd5b50505050506040513d601f19601f8201168201806040525081019062001efe919062002a87565b95945050505050565b62001f1281620021f1565b6040516001600160a01b038216907fbc7cd75a20ee27fd9adebab32041f755214dbc6bffa90cc0225b39da2e5c2d3b90600090a250565b6000816080015162001f6f836060015161ffff1660009081526009602052604090205490565b141562001f7e57506001919050565b506000919050565b600062001f9660025461ffff1690565b61ffff168561ffff161415620020005760405162461bcd60e51b815260206004820152602860248201527f63616e206f6e6c79207772617020746f6b656e732066726f6d20666f726569676044820152676e20636861696e7360c01b606482015260840162000624565b60006200200e868662000805565b6001600160a01b031614620020665760405162461bcd60e51b815260206004820152601c60248201527f7772617070656420617373657420616c72656164792065786973747300000000604482015260640162000624565b6000627ce50b60e31b6200207a8562002298565b620020858562002298565b3089896040516024016200209e95949392919062002c07565b60408051601f19818403018152918152602080830180516001600160e01b03166001600160e01b03199095169490941790935251909250600091620020e891309185910162002ba3565b60405160208183030381529060405290506000604051806020016200210d90620023d3565b601f1982820381018352601f909101166040819052620021339190849060200162002af0565b60408051601f19818403018152908290526001600160f01b031960f08b901b166020830152602282018990529150600090604201604051602081830303815290604052805190602001209050808251602084016000f59450843b6200219757600080fd5b61ffff891660009081526007602090815260408083208b8452825280832080546001600160a01b0319166001600160a01b038a16908117909155835260089091529020805460ff1916600117905550505050949350505050565b803b620022575760405162461bcd60e51b815260206004820152602d60248201527f455243313936373a206e657720696d706c656d656e746174696f6e206973206e60448201526c1bdd08184818dbdb9d1c9858dd609a1b606482015260840162000624565b7f360894a13ba1a3210667c828492db98dca3e2076cc3735a920a3ca505d382bbc80546001600160a01b0319166001600160a01b0392909216919091179055565b606060005b602081108015620022db5750828160208110620022ca57634e487b7160e01b600052603260045260246000fd5b1a60f81b6001600160f81b03191615155b15620022f65780620022ed8162002e2f565b9150506200229d565b6000816001600160401b038111156200231f57634e487b7160e01b600052604160045260246000fd5b6040519080825280601f01601f1916602001820160405280156200234a576020820181803683370190505b50905060005b82811015620023cb578481602081106200237a57634e487b7160e01b600052603260045260246000fd5b1a60f81b8282815181106200239f57634e487b7160e01b600052603260045260246000fd5b60200101906001600160f81b031916908160001a90535080620023c28162002e2f565b91505062002350565b509392505050565b6109938062002e9e83390190565b6000620023f8620023f28462002db7565b62002d84565b90508281528383830111156200240d57600080fd5b828260208301376000602084830101529392505050565b80356001600160a01b03811681146200243c57600080fd5b919050565b600082601f83011262002452578081fd5b815160206001600160401b0382111562002470576200247062002e63565b62002480818360051b0162002d84565b80838252828201915082860187848660071b8901011115620024a0578586fd5b855b858110156200250c57608080838b031215620024bc578788fd5b620024c662002d0d565b8351815286840151878201526040620024e1818601620025e4565b908201526060620024f4858201620025e4565b908201528552938501939190910190600101620024a2565b5090979650505050505050565b805180151581146200243c57600080fd5b600082601f8301126200253b578081fd5b81516200254c620023f28262002db7565b81815284602083860101111562002561578283fd5b6200257482602083016020870162002dfc565b949350505050565b600082601f8301126200258d578081fd5b6200259e83833560208501620023e1565b9392505050565b80356200243c8162002e79565b80516200243c8162002e79565b80516200243c8162002e8a565b80516001600160401b03811681146200243c57600080fd5b805160ff811681146200243c57600080fd5b60006020828403121562002608578081fd5b6200259e8262002424565b6000806000806000608086880312156200262b578081fd5b620026368662002424565b9450620026466020870162002424565b93506040860135925060608601356001600160401b038082111562002669578283fd5b818801915088601f8301126200267d578283fd5b8135818111156200268c578384fd5b8960208285010111156200269e578384fd5b9699959850939650602001949392505050565b600080600080600060a08688031215620026c9578283fd5b620026d48662002424565b9450602086013593506040860135620026ed8162002e79565b9250606086013591506080860135620027068162002e8a565b809150509295509295909350565b60006020828403121562002726578081fd5b6200259e8262002519565b60006020828403121562002743578081fd5b5035919050565b6000602082840312156200275c578081fd5b5051919050565b60006020828403121562002775578081fd5b81356001600160401b038111156200278b578182fd5b8201601f810184136200279c578182fd5b6200257484823560208401620023e1565b600060208284031215620027bf578081fd5b81516001600160401b03811115620027d5578182fd5b62002574848285016200252a565b600060208284031215620027f5578081fd5b81356001600160401b03808211156200280c578283fd5b90830190610100828603121562002821578283fd5b6200282b62002d38565b823581526200283d60208401620025a5565b602082015260408301356040820152606083013560608201526080830135608082015260a08301358281111562002872578485fd5b62002880878286016200257c565b60a08301525060c083013560c08201526200289e60e08401620025a5565b60e082015295945050505050565b600080600060608486031215620028c1578081fd5b83516001600160401b0380821115620028d8578283fd5b908501906101608288031215620028ed578283fd5b620028f762002d5e565b6200290283620025e4565b81526200291260208401620025bf565b60208201526200292560408401620025bf565b60408201526200293860608401620025b2565b6060820152608083015160808201526200295560a08401620025cc565b60a08201526200296860c08401620025e4565b60c082015260e0830151828111156200297f578485fd5b6200298d898286016200252a565b60e083015250610100620029a3818501620025bf565b908201526101208381015183811115620029bb578586fd5b620029c98a82870162002441565b918301919091525061014083810151908201529450620029ec6020870162002519565b9350604086015191508082111562002a02578283fd5b5062002a11868287016200252a565b9150509250925092565b60006020828403121562002a2d578081fd5b81356200259e8162002e79565b60006020828403121562002a4c578081fd5b81516200259e8162002e79565b6000806040838503121562002a6c578182fd5b823562002a798162002e79565b946020939093013593505050565b60006020828403121562002a99578081fd5b6200259e82620025cc565b6000815180845262002abe81602086016020860162002dfc565b601f01601f19169290920160200192915050565b6000825162002ae681846020870162002dfc565b9190910192915050565b6000835162002b0481846020880162002dfc565b83519083019062002b1a81836020880162002dfc565b01949350505050565b600060ff60f81b808d60f81b1683528b600184015261ffff60f01b808c60f01b1660218501528a6023850152896043850152886063850152818860f81b1660838501528651915062002b7d826084860160208a0162002dfc565b920160848101949094525060f09190911b1660a482015260a60198975050505050505050565b6001600160a01b0383168152604060208201819052600090620025749083018462002aa4565b60018060a01b038416815282602082015260606040820152600062001efe606083018462002aa4565b6020815260006200259e602083018462002aa4565b60a08152600062002c1c60a083018862002aa4565b828103602084015262002c30818862002aa4565b6001600160a01b03969096166040840152505061ffff92909216606083015260809091015292915050565b60208152815160208201526000602083015161ffff80821660408501526040850151606085015260608501516080850152608085015160a085015260a085015191506101008060c086015262002cb661012086018462002aa4565b925060c086015160e08601528160e0870151168186015250508091505092915050565b63ffffffff8416815260606020820152600062002cfa606083018562002aa4565b905060ff83166040830152949350505050565b604051608081016001600160401b038111828210171562002d325762002d3262002e63565b60405290565b60405161010081016001600160401b038111828210171562002d325762002d3262002e63565b60405161016081016001600160401b038111828210171562002d325762002d3262002e63565b604051601f8201601f191681016001600160401b038111828210171562002daf5762002daf62002e63565b604052919050565b60006001600160401b0382111562002dd35762002dd362002e63565b50601f01601f191660200190565b6000821982111562002df75762002df762002e4d565b500190565b60005b8381101562002e1957818101518382015260200162002dff565b8381111562002e29576000848401525b50505050565b600060001982141562002e465762002e4662002e4d565b5060010190565b634e487b7160e01b600052601160045260246000fd5b634e487b7160e01b600052604160045260246000fd5b61ffff8116811462000c4357600080fd5b63ffffffff8116811462000c4357600080fdfe608060405234801561001057600080fd5b5060405161099338038061099383398101604081905261002f9161048e565b818161005c60017fa3f0ad74e5423aebfd80d3ef4346578335a9a72aeaee59ff6cb3582b35133d51610599565b60008051602061094c8339815191521461008657634e487b7160e01b600052600160045260246000fd5b6100928282600061009b565b505050506105fe565b6100a483610175565b6040516001600160a01b038416907f1cf3b03a6cf19fa2baba4df148e9dcabedea7f8a5c07840e207e5c089be95d3e90600090a26000825111806100e55750805b156101705761016e836001600160a01b0316635c60da1b6040518163ffffffff1660e01b815260040160206040518083038186803b15801561012657600080fd5b505afa15801561013a573d6000803e3d6000fd5b505050506040513d601f19601f8201168201806040525081019061015e9190610474565b8361031560201b6100291760201c565b505b505050565b6101888161034160201b6100551760201c565b6101e75760405162461bcd60e51b815260206004820152602560248201527f455243313936373a206e657720626561636f6e206973206e6f74206120636f6e6044820152641d1c9858dd60da1b60648201526084015b60405180910390fd5b61026a816001600160a01b0316635c60da1b6040518163ffffffff1660e01b815260040160206040518083038186803b15801561022357600080fd5b505afa158015610237573d6000803e3d6000fd5b505050506040513d601f19601f8201168201806040525081019061025b9190610474565b61034160201b6100551760201c565b6102cf5760405162461bcd60e51b815260206004820152603060248201527f455243313936373a20626561636f6e20696d706c656d656e746174696f6e206960448201526f1cc81b9bdd08184818dbdb9d1c9858dd60821b60648201526084016101de565b806102f460008051602061094c83398151915260001b61034760201b61005b1760201c565b80546001600160a01b0319166001600160a01b039290921691909117905550565b606061033a838360405180606001604052806027815260200161096c6027913961034a565b9392505050565b3b151590565b90565b6060833b6103a95760405162461bcd60e51b815260206004820152602660248201527f416464726573733a2064656c65676174652063616c6c20746f206e6f6e2d636f6044820152651b9d1c9858dd60d21b60648201526084016101de565b600080856001600160a01b0316856040516103c4919061054a565b600060405180830381855af49150503d80600081146103ff576040519150601f19603f3d011682016040523d82523d6000602084013e610404565b606091505b50909250905061041582828661041f565b9695505050505050565b6060831561042e57508161033a565b82511561043e5782518084602001fd5b8160405162461bcd60e51b81526004016101de9190610566565b80516001600160a01b038116811461046f57600080fd5b919050565b600060208284031215610485578081fd5b61033a82610458565b600080604083850312156104a0578081fd5b6104a983610458565b60208401519092506001600160401b03808211156104c5578283fd5b818501915085601f8301126104d8578283fd5b8151818111156104ea576104ea6105e8565b604051601f8201601f19908116603f01168101908382118183101715610512576105126105e8565b8160405282815288602084870101111561052a578586fd5b61053b8360208301602088016105bc565b80955050505050509250929050565b6000825161055c8184602087016105bc565b9190910192915050565b60208152600082518060208401526105858160408501602087016105bc565b601f01601f19169190910160400192915050565b6000828210156105b757634e487b7160e01b81526011600452602481fd5b500390565b60005b838110156105d75781810151838201526020016105bf565b8381111561016e5750506000910152565b634e487b7160e01b600052604160045260246000fd5b61033f8061060d6000396000f3fe60806040523661001357610011610017565b005b6100115b61002761002261005e565b610106565b565b606061004e83836040518060600160405280602781526020016102e36027913961012a565b9392505050565b3b151590565b90565b60006100917fa3f0ad74e5423aebfd80d3ef4346578335a9a72aeaee59ff6cb3582b35133d50546001600160a01b031690565b6001600160a01b0316635c60da1b6040518163ffffffff1660e01b815260040160206040518083038186803b1580156100c957600080fd5b505afa1580156100dd573d6000803e3d6000fd5b505050506040513d601f19601f82011682018060405250810190610101919061023c565b905090565b3660008037600080366000845af43d6000803e808015610125573d6000f35b3d6000fd5b6060833b61018e5760405162461bcd60e51b815260206004820152602660248201527f416464726573733a2064656c65676174652063616c6c20746f206e6f6e2d636f6044820152651b9d1c9858dd60d21b60648201526084015b60405180910390fd5b600080856001600160a01b0316856040516101a99190610263565b600060405180830381855af49150503d80600081146101e4576040519150601f19603f3d011682016040523d82523d6000602084013e6101e9565b606091505b50915091506101f9828286610203565b9695505050505050565b6060831561021257508161004e565b8251156102225782518084602001fd5b8160405162461bcd60e51b8152600401610185919061027f565b60006020828403121561024d578081fd5b81516001600160a01b038116811461004e578182fd5b600082516102758184602087016102b2565b9190910192915050565b602081526000825180602084015261029e8160408501602087016102b2565b601f01601f19169190910160400192915050565b60005b838110156102cd5781810151838201526020016102b5565b838111156102dc576000848401525b5050505056fe416464726573733a206c6f772d6c6576656c2064656c65676174652063616c6c206661696c6564a2646970667358221220d7066234cc4170f916948edddd5eee84cf2bc07ff5f73b05e535799ff688c9da64736f6c63430008040033a3f0ad74e5423aebfd80d3ef4346578335a9a72aeaee59ff6cb3582b35133d50416464726573733a206c6f772d6c6576656c2064656c65676174652063616c6c206661696c6564676f7665726e616e636520616374696f6e20616c726561647920636f6e73756d6564a264697066735822122016515e2fce271dcfabb58a5ef74aeec6a3ae2aa5f32610d95c63fa72fb4bca7a64736f6c63430008040033",
  "immutableReferences": {},
  "source": "// contracts/Bridge.sol\n// SPDX-License-Identifier: Apache 2\n\npragma solidity ^0.8.0;\n\nimport \"@openzeppelin/contracts/token/ERC721/IERC721.sol\";\nimport \"@openzeppelin/contracts/token/ERC721/IERC721Receiver.sol\";\n\nimport \"../libraries/external/BytesLib.sol\";\n\nimport \"./NFTBridgeGetters.sol\";\nimport \"./NFTBridgeSetters.sol\";\nimport \"./NFTBridgeStructs.sol\";\nimport \"./NFTBridgeGovernance.sol\";\n\nimport \"./token/NFT.sol\";\nimport \"./token/NFTImplementation.sol\";\n\ncontract NFTBridge is NFTBridgeGovernance {\n    using BytesLib for bytes;\n\n    // Initiate a Transfer\n    function transferNFT(address token, uint256 tokenID, uint16 recipientChain, bytes32 recipient, uint32 nonce) public payable returns (uint64 sequence) {\n        // determine token parameters\n        uint16 tokenChain;\n        bytes32 tokenAddress;\n        if (isWrappedAsset(token)) {\n            tokenChain = NFTImplementation(token).chainId();\n            tokenAddress = NFTImplementation(token).nativeContract();\n        } else {\n            tokenChain = chainId();\n            tokenAddress = bytes32(uint256(uint160(token)));\n            // Verify that the correct interfaces are implemented\n            require(ERC165(token).supportsInterface(type(IERC721).interfaceId), \"must support the ERC721 interface\");\n            require(ERC165(token).supportsInterface(type(IERC721Metadata).interfaceId), \"must support the ERC721-Metadata extension\");\n        }\n\n        string memory symbolString;\n        string memory nameString;\n        string memory uriString;\n        {\n            (,bytes memory queriedSymbol) = token.staticcall(abi.encodeWithSignature(\"symbol()\"));\n            (,bytes memory queriedName) = token.staticcall(abi.encodeWithSignature(\"name()\"));\n            (,bytes memory queriedURI) = token.staticcall(abi.encodeWithSignature(\"tokenURI(uint256)\", tokenID));\n\n            symbolString = abi.decode(queriedSymbol, (string));\n            nameString = abi.decode(queriedName, (string));\n            uriString = abi.decode(queriedURI, (string));\n        }\n\n        bytes32 symbol;\n        bytes32 name;\n        assembly {\n            // first 32 bytes hold string length\n            symbol := mload(add(symbolString, 32))\n            name := mload(add(nameString, 32))\n        }\n\n        if (tokenChain == chainId()) {\n            IERC721(token).safeTransferFrom(msg.sender, address(this), tokenID);\n        } else {\n            NFTImplementation(token).burn(tokenID);\n        }\n\n        sequence = logTransfer(NFTBridgeStructs.Transfer({\n            tokenAddress : tokenAddress,\n            tokenChain   : tokenChain,\n            name         : name,\n            symbol       : symbol,\n            tokenID      : tokenID,\n            uri          : uriString,\n            to           : recipient,\n            toChain      : recipientChain\n        }), msg.value, nonce);\n    }\n\n    function logTransfer(NFTBridgeStructs.Transfer memory transfer, uint256 callValue, uint32 nonce) internal returns (uint64 sequence) {\n        bytes memory encoded = encodeTransfer(transfer);\n\n        sequence = wormhole().publishMessage{\n            value : callValue\n        }(nonce, encoded, 15);\n    }\n\n    function completeTransfer(bytes memory encodedVm) public {\n        _completeTransfer(encodedVm);\n    }\n\n    // Execute a Transfer message\n    function _completeTransfer(bytes memory encodedVm) internal {\n        (IWormhole.VM memory vm, bool valid, string memory reason) = wormhole().parseAndVerifyVM(encodedVm);\n\n        require(valid, reason);\n        require(verifyBridgeVM(vm), \"invalid emitter\");\n\n        NFTBridgeStructs.Transfer memory transfer = parseTransfer(vm.payload);\n\n        require(!isTransferCompleted(vm.hash), \"transfer already completed\");\n        setTransferCompleted(vm.hash);\n\n        require(transfer.toChain == chainId(), \"invalid target chain\");\n\n        IERC721 transferToken;\n        if (transfer.tokenChain == chainId()) {\n            transferToken = IERC721(address(uint160(uint256(transfer.tokenAddress))));\n        } else {\n            address wrapped = wrappedAsset(transfer.tokenChain, transfer.tokenAddress);\n\n            // If the wrapped asset does not exist yet, create it\n            if (wrapped == address(0)) {\n                wrapped = _createWrapped(transfer.tokenChain, transfer.tokenAddress, transfer.name, transfer.symbol);\n            }\n\n            transferToken = IERC721(wrapped);\n        }\n\n        // transfer bridged NFT to recipient\n        address transferRecipient = address(uint160(uint256(transfer.to)));\n\n        if (transfer.tokenChain != chainId()) {\n            // mint wrapped asset\n            NFTImplementation(address(transferToken)).mint(transferRecipient, transfer.tokenID, transfer.uri);\n        } else {\n            transferToken.safeTransferFrom(address(this), transferRecipient, transfer.tokenID);\n        }\n    }\n\n    // Creates a wrapped asset using AssetMeta\n    function _createWrapped(uint16 tokenChain, bytes32 tokenAddress, bytes32 name, bytes32 symbol) internal returns (address token) {\n        require(tokenChain != chainId(), \"can only wrap tokens from foreign chains\");\n        require(wrappedAsset(tokenChain, tokenAddress) == address(0), \"wrapped asset already exists\");\n\n        // initialize the NFTImplementation\n        bytes memory initialisationArgs = abi.encodeWithSelector(\n            NFTImplementation.initialize.selector,\n            bytes32ToString(name),\n            bytes32ToString(symbol),\n\n            address(this),\n\n            tokenChain,\n            tokenAddress\n        );\n\n        // initialize the BeaconProxy\n        bytes memory constructorArgs = abi.encode(address(this), initialisationArgs);\n\n        // deployment code\n        bytes memory bytecode = abi.encodePacked(type(BridgeNFT).creationCode, constructorArgs);\n\n        bytes32 salt = keccak256(abi.encodePacked(tokenChain, tokenAddress));\n\n        assembly {\n            token := create2(0, add(bytecode, 0x20), mload(bytecode), salt)\n\n            if iszero(extcodesize(token)) {\n                revert(0, 0)\n            }\n        }\n\n        setWrappedAsset(tokenChain, tokenAddress, token);\n    }\n\n    function verifyBridgeVM(IWormhole.VM memory vm) internal view returns (bool){\n        if (bridgeContracts(vm.emitterChainId) == vm.emitterAddress) {\n            return true;\n        }\n\n        return false;\n    }\n\n    function encodeTransfer(NFTBridgeStructs.Transfer memory transfer) public pure returns (bytes memory encoded) {\n        encoded = abi.encodePacked(\n            uint8(1),\n            transfer.tokenAddress,\n            transfer.tokenChain,\n            transfer.symbol,\n            transfer.name,\n            transfer.tokenID,\n            uint8(bytes(transfer.uri).length),\n            transfer.uri,\n            transfer.to,\n            transfer.toChain\n        );\n    }\n\n    function parseTransfer(bytes memory encoded) public pure returns (NFTBridgeStructs.Transfer memory transfer) {\n        uint index = 0;\n\n        uint8 payloadID = encoded.toUint8(index);\n        index += 1;\n\n        require(payloadID == 1, \"invalid Transfer\");\n\n        transfer.tokenAddress = encoded.toBytes32(index);\n        index += 32;\n\n        transfer.tokenChain = encoded.toUint16(index);\n        index += 2;\n\n        transfer.symbol = encoded.toBytes32(index);\n        index += 32;\n\n        transfer.name = encoded.toBytes32(index);\n        index += 32;\n\n        transfer.tokenID = encoded.toUint256(index);\n        index += 32;\n\n        uint8 len_uri = encoded.toUint8(index);\n        index += 1;\n\n        transfer.uri = string(encoded.slice(index, len_uri));\n        index += len_uri;\n\n        transfer.to = encoded.toBytes32(index);\n        index += 32;\n\n        transfer.toChain = encoded.toUint16(index);\n        index += 2;\n\n        require(encoded.length == index, \"invalid Transfer\");\n    }\n\n    function onERC721Received(\n        address operator,\n        address,\n        uint256,\n        bytes calldata\n    ) external view returns (bytes4){\n        require(operator == address(this), \"can only bridge tokens via transferNFT method\");\n        return type(IERC721Receiver).interfaceId;\n    }\n\n    function bytes32ToString(bytes32 input) internal pure returns (string memory) {\n        uint256 i;\n        while (i < 32 && input[i] != 0) {\n            i++;\n        }\n        bytes memory array = new bytes(i);\n        for (uint c = 0; c < i; c++) {\n            array[c] = input[c];\n        }\n        return string(array);\n    }\n}",
  "sourcePath": "/Users/blue/sourcecode/wormhole/ethereum/contracts/nft/NFTBridge.sol",
  "compiler": {
    "name": "solc",
    "version": "0.8.4+commit.c7e474f2.Emscripten.clang"
  },
  "schemaVersion": "3.4.1",
  "updatedAt": "2021-09-15T12:33:03.550Z",
  "devdoc": {
    "kind": "dev",
    "methods": {},
    "version": 1
  },
  "userdoc": {
    "kind": "user",
    "methods": {},
    "version": 1
  }
}