{
  "contractName": "NFTBridgeGetters",
  "abi": [
    {
      "inputs": [
        {
          "internalType": "bytes32",
          "name": "hash",
          "type": "bytes32"
        }
      ],
      "name": "governanceActionIsConsumed",
      "outputs": [
        {
          "internalType": "bool",
          "name": "",
          "type": "bool"
        }
      ],
      "stateMutability": "view",
      "type": "function"
    },
    {
      "inputs": [
        {
          "internalType": "address",
          "name": "impl",
          "type": "address"
        }
      ],
      "name": "isInitialized",
      "outputs": [
        {
          "internalType": "bool",
          "name": "",
          "type": "bool"
        }
      ],
      "stateMutability": "view",
      "type": "function"
    },
    {
      "inputs": [
        {
          "internalType": "bytes32",
          "name": "hash",
          "type": "bytes32"
        }
      ],
      "name": "isTransferCompleted",
      "outputs": [
        {
          "internalType": "bool",
          "name": "",
          "type": "bool"
        }
      ],
      "stateMutability": "view",
      "type": "function"
    },
    {
      "inputs": [],
      "name": "wormhole",
      "outputs": [
        {
          "internalType": "contract IWormhole",
          "name": "",
          "type": "address"
        }
      ],
      "stateMutability": "view",
      "type": "function"
    },
    {
      "inputs": [],
      "name": "chainId",
      "outputs": [
        {
          "internalType": "uint16",
          "name": "",
          "type": "uint16"
        }
      ],
      "stateMutability": "view",
      "type": "function"
    },
    {
      "inputs": [],
      "name": "governanceChainId",
      "outputs": [
        {
          "internalType": "uint16",
          "name": "",
          "type": "uint16"
        }
      ],
      "stateMutability": "view",
      "type": "function"
    },
    {
      "inputs": [],
      "name": "governanceContract",
      "outputs": [
        {
          "internalType": "bytes32",
          "name": "",
          "type": "bytes32"
        }
      ],
      "stateMutability": "view",
      "type": "function"
    },
    {
      "inputs": [
        {
          "internalType": "uint16",
          "name": "tokenChainId",
          "type": "uint16"
        },
        {
          "internalType": "bytes32",
          "name": "tokenAddress",
          "type": "bytes32"
        }
      ],
      "name": "wrappedAsset",
      "outputs": [
        {
          "internalType": "address",
          "name": "",
          "type": "address"
        }
      ],
      "stateMutability": "view",
      "type": "function"
    },
    {
      "inputs": [
        {
          "internalType": "uint16",
          "name": "chainId_",
          "type": "uint16"
        }
      ],
      "name": "bridgeContracts",
      "outputs": [
        {
          "internalType": "bytes32",
          "name": "",
          "type": "bytes32"
        }
      ],
      "stateMutability": "view",
      "type": "function"
    },
    {
      "inputs": [],
      "name": "tokenImplementation",
      "outputs": [
        {
          "internalType": "address",
          "name": "",
          "type": "address"
        }
      ],
      "stateMutability": "view",
      "type": "function"
    },
    {
      "inputs": [
        {
          "internalType": "address",
          "name": "token",
          "type": "address"
        }
      ],
      "name": "isWrappedAsset",
      "outputs": [
        {
          "internalType": "bool",
          "name": "",
          "type": "bool"
        }
      ],
      "stateMutability": "view",
      "type": "function"
    }
  ],
  "bytecode": "0x608060405234801561001057600080fd5b50610312806100206000396000f3fe608060405234801561001057600080fd5b50600436106100a95760003560e01c80639a8a0592116100715780639a8a059214610186578063aa4efa5b146101a1578063ad66a5f1146101c4578063b172b222146101f6578063d60b347f146101fe578063fbe3c2cd1461022a57600080fd5b80631a2be4da146100ae5780631ff1e286146100ef5780632c3c02a4146101415780632f3a3d5d1461016457806384acd1bb14610175575b600080fd5b6100da6100bc366004610253565b6001600160a01b031660009081526008602052604090205460ff1690565b60405190151581526020015b60405180910390f35b6101296100fd3660046102b3565b61ffff91909116600090815260076020908152604080832093835292905220546001600160a01b031690565b6040516001600160a01b0390911681526020016100e6565b6100da61014f366004610281565b60009081526004602052604090205460ff1690565b6001546001600160a01b0316610129565b6000546001600160a01b0316610129565b60025461ffff165b60405161ffff90911681526020016100e6565b6100da6101af366004610281565b60009081526005602052604090205460ff1690565b6101e86101d2366004610299565b61ffff1660009081526009602052604090205490565b6040519081526020016100e6565b6003546101e8565b6100da61020c366004610253565b6001600160a01b031660009081526006602052604090205460ff1690565b60025462010000900461ffff1661018e565b803561ffff8116811461024e57600080fd5b919050565b600060208284031215610264578081fd5b81356001600160a01b038116811461027a578182fd5b9392505050565b600060208284031215610292578081fd5b5035919050565b6000602082840312156102aa578081fd5b61027a8261023c565b600080604083850312156102c5578081fd5b6102ce8361023c565b94602093909301359350505056fea2646970667358221220c0c687748ddfb6d4cfdb40fe61d00fcc4c2d5537824558d5aee80c9aca7806e064736f6c63430008040033",
  "immutableReferences": {},
  "source": "// contracts/Getters.sol\n// SPDX-License-Identifier: Apache 2\n\npragma solidity ^0.8.0;\n\nimport \"@openzeppelin/contracts/token/ERC20/IERC20.sol\";\n\nimport \"../interfaces/IWormhole.sol\";\n\nimport \"./NFTBridgeState.sol\";\n\ncontract NFTBridgeGetters is NFTBridgeState {\n    function governanceActionIsConsumed(bytes32 hash) public view returns (bool) {\n        return _state.consumedGovernanceActions[hash];\n    }\n\n    function isInitialized(address impl) public view returns (bool) {\n        return _state.initializedImplementations[impl];\n    }\n\n    function isTransferCompleted(bytes32 hash) public view returns (bool) {\n        return _state.completedTransfers[hash];\n    }\n\n    function wormhole() public view returns (IWormhole) {\n        return IWormhole(_state.wormhole);\n    }\n\n    function chainId() public view returns (uint16){\n        return _state.provider.chainId;\n    }\n\n    function governanceChainId() public view returns (uint16){\n        return _state.provider.governanceChainId;\n    }\n\n    function governanceContract() public view returns (bytes32){\n        return _state.provider.governanceContract;\n    }\n\n    function wrappedAsset(uint16 tokenChainId, bytes32 tokenAddress) public view returns (address){\n        return _state.wrappedAssets[tokenChainId][tokenAddress];\n    }\n\n    function bridgeContracts(uint16 chainId_) public view returns (bytes32){\n        return _state.bridgeImplementations[chainId_];\n    }\n\n    function tokenImplementation() public view returns (address){\n        return _state.tokenImplementation;\n    }\n\n    function isWrappedAsset(address token) public view returns (bool){\n        return _state.isWrappedAsset[token];\n    }\n}",
  "sourcePath": "/Users/ssen/Desktop/test/wormhole-2/ethereum/contracts/nft/NFTBridgeGetters.sol",
  "compiler": {
    "name": "solc",
    "version": "0.8.4+commit.c7e474f2.Emscripten.clang"
  },
  "schemaVersion": "3.4.1",
  "updatedAt": "2021-09-15T09:52:58.372Z",
  "devdoc": {
    "kind": "dev",
    "methods": {},
    "version": 1
  },
  "userdoc": {
    "kind": "user",
    "methods": {},
    "version": 1
  }
}