{
  "contractName": "Bridge",
  "abi": [
    {
      "anonymous": false,
      "inputs": [
        {
          "indexed": false,
          "internalType": "address",
          "name": "previousAdmin",
          "type": "address"
        },
        {
          "indexed": false,
          "internalType": "address",
          "name": "newAdmin",
          "type": "address"
        }
      ],
      "name": "AdminChanged",
      "type": "event"
    },
    {
      "anonymous": false,
      "inputs": [
        {
          "indexed": true,
          "internalType": "address",
          "name": "beacon",
          "type": "address"
        }
      ],
      "name": "BeaconUpgraded",
      "type": "event"
    },
    {
      "anonymous": false,
      "inputs": [
        {
          "indexed": true,
          "internalType": "address",
          "name": "oldContract",
          "type": "address"
        },
        {
          "indexed": true,
          "internalType": "address",
          "name": "newContract",
          "type": "address"
        }
      ],
      "name": "ContractUpgraded",
      "type": "event"
    },
    {
      "anonymous": false,
      "inputs": [
        {
          "indexed": true,
          "internalType": "address",
          "name": "implementation",
          "type": "address"
        }
      ],
      "name": "Upgraded",
      "type": "event"
    },
    {
      "inputs": [],
      "name": "WETH",
      "outputs": [
        {
          "internalType": "contract IWETH",
          "name": "",
          "type": "address"
        }
      ],
      "stateMutability": "view",
      "type": "function"
    },
    {
      "inputs": [
        {
          "internalType": "uint16",
          "name": "chainId_",
          "type": "uint16"
        }
      ],
      "name": "bridgeContracts",
      "outputs": [
        {
          "internalType": "bytes32",
          "name": "",
          "type": "bytes32"
        }
      ],
      "stateMutability": "view",
      "type": "function"
    },
    {
      "inputs": [],
      "name": "chainId",
      "outputs": [
        {
          "internalType": "uint16",
          "name": "",
          "type": "uint16"
        }
      ],
      "stateMutability": "view",
      "type": "function"
    },
    {
      "inputs": [
        {
          "internalType": "bytes32",
          "name": "hash",
          "type": "bytes32"
        }
      ],
      "name": "governanceActionIsConsumed",
      "outputs": [
        {
          "internalType": "bool",
          "name": "",
          "type": "bool"
        }
      ],
      "stateMutability": "view",
      "type": "function"
    },
    {
      "inputs": [],
      "name": "governanceChainId",
      "outputs": [
        {
          "internalType": "uint16",
          "name": "",
          "type": "uint16"
        }
      ],
      "stateMutability": "view",
      "type": "function"
    },
    {
      "inputs": [],
      "name": "governanceContract",
      "outputs": [
        {
          "internalType": "bytes32",
          "name": "",
          "type": "bytes32"
        }
      ],
      "stateMutability": "view",
      "type": "function"
    },
    {
      "inputs": [
        {
          "internalType": "address",
          "name": "impl",
          "type": "address"
        }
      ],
      "name": "isInitialized",
      "outputs": [
        {
          "internalType": "bool",
          "name": "",
          "type": "bool"
        }
      ],
      "stateMutability": "view",
      "type": "function"
    },
    {
      "inputs": [
        {
          "internalType": "bytes32",
          "name": "hash",
          "type": "bytes32"
        }
      ],
      "name": "isTransferCompleted",
      "outputs": [
        {
          "internalType": "bool",
          "name": "",
          "type": "bool"
        }
      ],
      "stateMutability": "view",
      "type": "function"
    },
    {
      "inputs": [
        {
          "internalType": "address",
          "name": "token",
          "type": "address"
        }
      ],
      "name": "isWrappedAsset",
      "outputs": [
        {
          "internalType": "bool",
          "name": "",
          "type": "bool"
        }
      ],
      "stateMutability": "view",
      "type": "function"
    },
    {
      "inputs": [
        {
          "internalType": "address",
          "name": "token",
          "type": "address"
        }
      ],
      "name": "outstandingBridged",
      "outputs": [
        {
          "internalType": "uint256",
          "name": "",
          "type": "uint256"
        }
      ],
      "stateMutability": "view",
      "type": "function"
    },
    {
      "inputs": [
        {
          "internalType": "bytes",
          "name": "encoded",
          "type": "bytes"
        }
      ],
      "name": "parseRegisterChain",
      "outputs": [
        {
          "components": [
            {
              "internalType": "bytes32",
              "name": "module",
              "type": "bytes32"
            },
            {
              "internalType": "uint8",
              "name": "action",
              "type": "uint8"
            },
            {
              "internalType": "uint16",
              "name": "chainId",
              "type": "uint16"
            },
            {
              "internalType": "uint16",
              "name": "emitterChainID",
              "type": "uint16"
            },
            {
              "internalType": "bytes32",
              "name": "emitterAddress",
              "type": "bytes32"
            }
          ],
          "internalType": "struct BridgeStructs.RegisterChain",
          "name": "chain",
          "type": "tuple"
        }
      ],
      "stateMutability": "pure",
      "type": "function"
    },
    {
      "inputs": [
        {
          "internalType": "bytes",
          "name": "encoded",
          "type": "bytes"
        }
      ],
      "name": "parseUpgrade",
      "outputs": [
        {
          "components": [
            {
              "internalType": "bytes32",
              "name": "module",
              "type": "bytes32"
            },
            {
              "internalType": "uint8",
              "name": "action",
              "type": "uint8"
            },
            {
              "internalType": "uint16",
              "name": "chainId",
              "type": "uint16"
            },
            {
              "internalType": "bytes32",
              "name": "newContract",
              "type": "bytes32"
            }
          ],
          "internalType": "struct BridgeStructs.UpgradeContract",
          "name": "chain",
          "type": "tuple"
        }
      ],
      "stateMutability": "pure",
      "type": "function"
    },
    {
      "inputs": [
        {
          "internalType": "bytes",
          "name": "encodedVM",
          "type": "bytes"
        }
      ],
      "name": "registerChain",
      "outputs": [],
      "stateMutability": "nonpayable",
      "type": "function"
    },
    {
      "inputs": [],
      "name": "tokenImplementation",
      "outputs": [
        {
          "internalType": "address",
          "name": "",
          "type": "address"
        }
      ],
      "stateMutability": "view",
      "type": "function"
    },
    {
      "inputs": [
        {
          "internalType": "bytes",
          "name": "encodedVM",
          "type": "bytes"
        }
      ],
      "name": "upgrade",
      "outputs": [],
      "stateMutability": "nonpayable",
      "type": "function"
    },
    {
      "inputs": [],
      "name": "wormhole",
      "outputs": [
        {
          "internalType": "contract IWormhole",
          "name": "",
          "type": "address"
        }
      ],
      "stateMutability": "view",
      "type": "function"
    },
    {
      "inputs": [
        {
          "internalType": "uint16",
          "name": "tokenChainId",
          "type": "uint16"
        },
        {
          "internalType": "bytes32",
          "name": "tokenAddress",
          "type": "bytes32"
        }
      ],
      "name": "wrappedAsset",
      "outputs": [
        {
          "internalType": "address",
          "name": "",
          "type": "address"
        }
      ],
      "stateMutability": "view",
      "type": "function"
    },
    {
      "stateMutability": "payable",
      "type": "receive"
    },
    {
      "inputs": [
        {
          "internalType": "address",
          "name": "tokenAddress",
          "type": "address"
        },
        {
          "internalType": "uint32",
          "name": "nonce",
          "type": "uint32"
        }
      ],
      "name": "attestToken",
      "outputs": [
        {
          "internalType": "uint64",
          "name": "sequence",
          "type": "uint64"
        }
      ],
      "stateMutability": "payable",
      "type": "function"
    },
    {
      "inputs": [
        {
          "internalType": "uint16",
          "name": "recipientChain",
          "type": "uint16"
        },
        {
          "internalType": "bytes32",
          "name": "recipient",
          "type": "bytes32"
        },
        {
          "internalType": "uint256",
          "name": "arbiterFee",
          "type": "uint256"
        },
        {
          "internalType": "uint32",
          "name": "nonce",
          "type": "uint32"
        }
      ],
      "name": "wrapAndTransferETH",
      "outputs": [
        {
          "internalType": "uint64",
          "name": "sequence",
          "type": "uint64"
        }
      ],
      "stateMutability": "payable",
      "type": "function"
    },
    {
      "inputs": [
        {
          "internalType": "address",
          "name": "token",
          "type": "address"
        },
        {
          "internalType": "uint256",
          "name": "amount",
          "type": "uint256"
        },
        {
          "internalType": "uint16",
          "name": "recipientChain",
          "type": "uint16"
        },
        {
          "internalType": "bytes32",
          "name": "recipient",
          "type": "bytes32"
        },
        {
          "internalType": "uint256",
          "name": "arbiterFee",
          "type": "uint256"
        },
        {
          "internalType": "uint32",
          "name": "nonce",
          "type": "uint32"
        }
      ],
      "name": "transferTokens",
      "outputs": [
        {
          "internalType": "uint64",
          "name": "sequence",
          "type": "uint64"
        }
      ],
      "stateMutability": "payable",
      "type": "function"
    },
    {
      "inputs": [
        {
          "internalType": "bytes",
          "name": "encodedVm",
          "type": "bytes"
        }
      ],
      "name": "updateWrapped",
      "outputs": [
        {
          "internalType": "address",
          "name": "token",
          "type": "address"
        }
      ],
      "stateMutability": "nonpayable",
      "type": "function"
    },
    {
      "inputs": [
        {
          "internalType": "bytes",
          "name": "encodedVm",
          "type": "bytes"
        }
      ],
      "name": "createWrapped",
      "outputs": [
        {
          "internalType": "address",
          "name": "token",
          "type": "address"
        }
      ],
      "stateMutability": "nonpayable",
      "type": "function"
    },
    {
      "inputs": [
        {
          "internalType": "bytes",
          "name": "encodedVm",
          "type": "bytes"
        }
      ],
      "name": "completeTransfer",
      "outputs": [],
      "stateMutability": "nonpayable",
      "type": "function"
    },
    {
      "inputs": [
        {
          "internalType": "bytes",
          "name": "encodedVm",
          "type": "bytes"
        }
      ],
      "name": "completeTransferAndUnwrapETH",
      "outputs": [],
      "stateMutability": "nonpayable",
      "type": "function"
    },
    {
      "inputs": [
        {
          "components": [
            {
              "internalType": "uint8",
              "name": "payloadID",
              "type": "uint8"
            },
            {
              "internalType": "bytes32",
              "name": "tokenAddress",
              "type": "bytes32"
            },
            {
              "internalType": "uint16",
              "name": "tokenChain",
              "type": "uint16"
            },
            {
              "internalType": "uint8",
              "name": "decimals",
              "type": "uint8"
            },
            {
              "internalType": "bytes32",
              "name": "symbol",
              "type": "bytes32"
            },
            {
              "internalType": "bytes32",
              "name": "name",
              "type": "bytes32"
            }
          ],
          "internalType": "struct BridgeStructs.AssetMeta",
          "name": "meta",
          "type": "tuple"
        }
      ],
      "name": "encodeAssetMeta",
      "outputs": [
        {
          "internalType": "bytes",
          "name": "encoded",
          "type": "bytes"
        }
      ],
      "stateMutability": "pure",
      "type": "function"
    },
    {
      "inputs": [
        {
          "components": [
            {
              "internalType": "uint8",
              "name": "payloadID",
              "type": "uint8"
            },
            {
              "internalType": "uint256",
              "name": "amount",
              "type": "uint256"
            },
            {
              "internalType": "bytes32",
              "name": "tokenAddress",
              "type": "bytes32"
            },
            {
              "internalType": "uint16",
              "name": "tokenChain",
              "type": "uint16"
            },
            {
              "internalType": "bytes32",
              "name": "to",
              "type": "bytes32"
            },
            {
              "internalType": "uint16",
              "name": "toChain",
              "type": "uint16"
            },
            {
              "internalType": "uint256",
              "name": "fee",
              "type": "uint256"
            }
          ],
          "internalType": "struct BridgeStructs.Transfer",
          "name": "transfer",
          "type": "tuple"
        }
      ],
      "name": "encodeTransfer",
      "outputs": [
        {
          "internalType": "bytes",
          "name": "encoded",
          "type": "bytes"
        }
      ],
      "stateMutability": "pure",
      "type": "function"
    },
    {
      "inputs": [
        {
          "internalType": "bytes",
          "name": "encoded",
          "type": "bytes"
        }
      ],
      "name": "parseAssetMeta",
      "outputs": [
        {
          "components": [
            {
              "internalType": "uint8",
              "name": "payloadID",
              "type": "uint8"
            },
            {
              "internalType": "bytes32",
              "name": "tokenAddress",
              "type": "bytes32"
            },
            {
              "internalType": "uint16",
              "name": "tokenChain",
              "type": "uint16"
            },
            {
              "internalType": "uint8",
              "name": "decimals",
              "type": "uint8"
            },
            {
              "internalType": "bytes32",
              "name": "symbol",
              "type": "bytes32"
            },
            {
              "internalType": "bytes32",
              "name": "name",
              "type": "bytes32"
            }
          ],
          "internalType": "struct BridgeStructs.AssetMeta",
          "name": "meta",
          "type": "tuple"
        }
      ],
      "stateMutability": "pure",
      "type": "function"
    },
    {
      "inputs": [
        {
          "internalType": "bytes",
          "name": "encoded",
          "type": "bytes"
        }
      ],
      "name": "parseTransfer",
      "outputs": [
        {
          "components": [
            {
              "internalType": "uint8",
              "name": "payloadID",
              "type": "uint8"
            },
            {
              "internalType": "uint256",
              "name": "amount",
              "type": "uint256"
            },
            {
              "internalType": "bytes32",
              "name": "tokenAddress",
              "type": "bytes32"
            },
            {
              "internalType": "uint16",
              "name": "tokenChain",
              "type": "uint16"
            },
            {
              "internalType": "bytes32",
              "name": "to",
              "type": "bytes32"
            },
            {
              "internalType": "uint16",
              "name": "toChain",
              "type": "uint16"
            },
            {
              "internalType": "uint256",
              "name": "fee",
              "type": "uint256"
            }
          ],
          "internalType": "struct BridgeStructs.Transfer",
          "name": "transfer",
          "type": "tuple"
        }
      ],
      "stateMutability": "pure",
      "type": "function"
    }
  ],
  "bytecode": "0x608060405234801561001057600080fd5b50614a88806100206000396000f3fe608060405260043610620001df5760003560e01c8063aa4efa5b11620000ff578063c68785191162000095578063f768441f116200006c578063f768441f146200070c578063fbe3c2cd1462000731578063fbeeacd91462000752578063ff200cde14620007b257600080fd5b8063c68785191462000685578063d60b347f14620006aa578063e805981014620006e757600080fd5b8063b046223b11620000d6578063b046223b14620005f8578063b172b222146200061d578063b96c7e4d1462000634578063c48fa115146200066e57600080fd5b8063aa4efa5b1462000560578063ad5c46481462000594578063ad66a5f114620005b457600080fd5b80632c3c02a4116200017557806384acd1bb116200014c57806384acd1bb14620004da5780639981509f14620004fa5780639a8a05921462000511578063a5799f93146200053b57600080fd5b80632c3c02a414620004525780632f3a3d5d14620004865780635f85426614620004a657600080fd5b80631a2be4da11620001b65780631a2be4da14620003165780631ff1e28614620003645780632539464514620003a25780632b51137514620003c957600080fd5b806301f5325514620001ec57806307dfd8fb146200026a5780630f5287b014620002e657600080fd5b36620001e757005b600080fd5b348015620001f957600080fd5b50620002116200020b36600462003781565b620007d7565b604051620002619190600060a0820190508251825260ff6020840151166020830152604083015161ffff808216604085015280606086015116606085015250506080830151608083015292915050565b60405180910390f35b3480156200027757600080fd5b506200028f6200028936600462003781565b620009e1565b604051620002619190600060c08201905060ff83511682526020830151602083015261ffff604084015116604083015260ff60608401511660608301526080830151608083015260a083015160a083015292915050565b620002fd620002f73660046200368c565b62000b70565b6040516001600160401b03909116815260200162000261565b3480156200032357600080fd5b5062000353620003353660046200366f565b6001600160a01b031660009081526009602052604090205460ff1690565b604051901515815260200162000261565b3480156200037157600080fd5b50620003896200038336600462003b1d565b62000e69565b6040516001600160a01b03909116815260200162000261565b348015620003af57600080fd5b50620003c7620003c136600462003781565b62000e98565b005b348015620003d657600080fd5b50620003ee620003e836600462003781565b62000f7c565b604051620002619190600060e08201905060ff83511682526020830151602083015260408301516040830152606083015161ffff8082166060850152608085015160808501528060a08601511660a0850152505060c083015160c083015292915050565b3480156200045f57600080fd5b5062000353620004713660046200374f565b60009081526005602052604090205460ff1690565b3480156200049357600080fd5b506001546001600160a01b031662000389565b348015620004b357600080fd5b50620004cb620004c5366004620038cb565b62001131565b60405162000261919062003c7a565b348015620004e757600080fd5b506000546001600160a01b031662000389565b620002fd6200050b36600462003b4b565b620011c6565b3480156200051e57600080fd5b5060025461ffff165b60405161ffff909116815260200162000261565b3480156200054857600080fd5b50620003c76200055a36600462003781565b62001460565b3480156200056d57600080fd5b50620003536200057f3660046200374f565b60009081526006602052604090205460ff1690565b348015620005a157600080fd5b506004546001600160a01b031662000389565b348015620005c157600080fd5b50620005e9620005d336600462003adf565b61ffff166000908152600b602052604090205490565b60405190815260200162000261565b3480156200060557600080fd5b50620004cb6200061736600462003831565b620015cd565b3480156200062a57600080fd5b50600354620005e9565b3480156200064157600080fd5b50620005e9620006533660046200366f565b6001600160a01b03166000908152600a602052604090205490565b620002fd6200067f366004620036f7565b62001646565b3480156200069257600080fd5b50620003c7620006a436600462003781565b62001946565b348015620006b757600080fd5b5062000353620006c93660046200366f565b6001600160a01b031660009081526007602052604090205460ff1690565b348015620006f457600080fd5b50620003896200070636600462003781565b62001956565b3480156200071957600080fd5b50620003896200072b36600462003781565b62001a75565b3480156200073e57600080fd5b5060025462010000900461ffff1662000527565b3480156200075f57600080fd5b50620007776200077136600462003781565b62001b8a565b6040516200026191908151815260208083015160ff169082015260408083015161ffff16908201526060918201519181019190915260800190565b348015620007bf57600080fd5b50620003c7620007d136600462003781565b62001d65565b6040805160a0810182526000808252602082018190529181018290526060810182905260808101829052906200080e838262001d72565b82526200081d60208262003e4a565b82519091506a546f6b656e427269646765146200088d5760405162461bcd60e51b815260206004820152602360248201527f696e76616c6964205265676973746572436861696e3a2077726f6e67206d6f64604482015262756c6560e81b60648201526084015b60405180910390fd5b62000899838262001dd4565b60ff166020830152620008ae60018262003e4a565b9050816020015160ff16600114620009155760405162461bcd60e51b815260206004820152602360248201527f696e76616c6964205265676973746572436861696e3a2077726f6e672061637460448201526234b7b760e91b606482015260840162000884565b62000921838262001e34565b61ffff1660408301526200093760028262003e4a565b905062000945838262001e34565b61ffff1660608301526200095b60028262003e4a565b905062000969838262001d72565b60808301526200097b60208262003e4a565b905080835114620009db5760405162461bcd60e51b815260206004820152602360248201527f696e76616c6964205265676973746572436861696e3a2077726f6e67206c656e6044820152620cee8d60eb1b606482015260840162000884565b50919050565b6040805160c081018252600080825260208201819052918101829052606081018290526080810182905260a081018290529062000a1f838262001dd4565b60ff16825262000a3160018262003e4a565b9050816000015160ff1660021462000a805760405162461bcd60e51b8152602060048201526011602482015270696e76616c69642041737365744d65746160781b604482015260640162000884565b62000a8c838262001d72565b60208084019190915262000aa1908262003e4a565b905062000aaf838262001e34565b61ffff16604083015262000ac560028262003e4a565b905062000ad3838262001dd4565b60ff16606083015262000ae860018262003e4a565b905062000af6838262001d72565b608083015262000b0860208262003e4a565b905062000b16838262001d72565b60a083015262000b2860208262003e4a565b905080835114620009db5760405162461bcd60e51b8152602060048201526011602482015270696e76616c69642041737365744d65746160781b604482015260640162000884565b600080600062000b98896001600160a01b031660009081526009602052604090205460ff1690565b1562000c9257886001600160a01b0316639a8a05926040518163ffffffff1660e01b815260040160206040518083038186803b15801562000bd857600080fd5b505afa15801562000bed573d6000803e3d6000fd5b505050506040513d601f19601f8201168201806040525081019062000c13919062003afe565b9150886001600160a01b0316633d6c043b6040518163ffffffff1660e01b815260040160206040518083038186803b15801562000c4f57600080fd5b505afa15801562000c64573d6000803e3d6000fd5b505050506040513d601f19601f8201168201806040525081019062000c8a919062003768565b905062000ca6565b505060025461ffff166001600160a01b0388165b60408051600481526024810182526020810180516001600160e01b031663313ce56760e01b17905290516000916001600160a01b038c169162000cea919062003c03565b600060405180830381855afa9150503d806000811462000d27576040519150601f19603f3d011682016040523d82523d6000602084013e62000d2c565b606091505b5091505060008180602001905181019062000d48919062003bb6565b90508987600860ff8416111562000da357600062000d6860088562003fca565b62000d7590600a62003ecf565b905062000d83818462003e65565b925062000d91818362003e65565b915062000d9f818462003f8e565b9c50505b60025461ffff8781169116141562000dd55762000dc38d33308f62001e95565b62000dcf8d8362001f08565b62000e46565b62000de38d33308f62001e95565b604051632770a7eb60e21b8152306004820152602481018d90526001600160a01b038e1690639dc29fac90604401600060405180830381600087803b15801562000e2c57600080fd5b505af115801562000e41573d6000803e3d6000fd5b505050505b62000e588686848e8e86348f62001fd5565b9d9c50505050505050505050505050565b61ffff821660009081526008602090815260408083208484529091529020546001600160a01b03165b92915050565b600080600062000ea88462002113565b92509250925081819062000ed15760405162461bcd60e51b815260040162000884919062003c7a565b5062000ef78361014001516000908152600560205260409020805460ff19166001179055565b600062000f088460e0015162001b8a565b905062000f1860025461ffff1690565b61ffff16816040015161ffff161462000f655760405162461bcd60e51b815260206004820152600e60248201526d1ddc9bdb99c818da185a5b881a5960921b604482015260640162000884565b606081015162000f759062002342565b5050505050565b6040805160e081018252600080825260208201819052918101829052606081018290526080810182905260a0810182905260c081018290529062000fc1838262001dd4565b60ff16825262000fd360018262003e4a565b9050816000015160ff16600114620010215760405162461bcd60e51b815260206004820152601060248201526f34b73b30b634b2102a3930b739b332b960811b604482015260640162000884565b6200102d838262002479565b60208084019190915262001042908262003e4a565b905062001050838262001d72565b60408301526200106260208262003e4a565b905062001070838262001e34565b61ffff1660608301526200108660028262003e4a565b905062001094838262001d72565b6080830152620010a660208262003e4a565b9050620010b4838262001e34565b61ffff1660a0830152620010ca60028262003e4a565b9050620010d8838262002479565b60c0830152620010ea60208262003e4a565b905080835114620009db5760405162461bcd60e51b815260206004820152601060248201526f34b73b30b634b2102a3930b739b332b960811b604482015260640162000884565b8051602080830151604080850151606080870151608088015160a089015160c08a0151955160f89990991b6001600160f81b031916978901979097526021880195909552604187019290925260f091821b6001600160f01b03199081166061880152606387019490945293901b909116608384015260858301529060a5015b6040516020818303038152906040529050919050565b600080620011dc6000546001600160a01b031690565b6001600160a01b0316631a90a2196040518163ffffffff1660e01b815260040160206040518083038186803b1580156200121557600080fd5b505afa1580156200122a573d6000803e3d6000fd5b505050506040513d601f19601f8201168201806040525081019062001250919062003768565b9050348110620012ae5760405162461bcd60e51b815260206004820152602260248201527f76616c756520697320736d616c6c6572207468616e20776f726d686f6c652066604482015261656560f01b606482015260840162000884565b6000620012bc823462003fb0565b905080851115620013255760405162461bcd60e51b815260206004820152602c60248201527f66656520697320626967676572207468616e20616d6f756e74206d696e75732060448201526b776f726d686f6c652066656560a01b606482015260840162000884565b6000620013386402540be4008362003e65565b905060006200134d6402540be4008862003e65565b9050600062001362836402540be40062003f8e565b6200136e908562003fb0565b90508015620013a757604051339082156108fc029083906000818181858888f19350505050158015620013a5573d6000803e3d6000fd5b505b6004546001600160a01b031663d0e30db0620013c4838762003fb0565b6040518263ffffffff1660e01b81526004016000604051808303818588803b158015620013f057600080fd5b505af115801562001405573d6000803e3d6000fd5b505050505062001428620014216004546001600160a01b031690565b8462001f08565b620014526200143a60025461ffff1690565b6004546001600160a01b0316858d8d878b8e62001fd5565b9a9950505050505050505050565b6000806000620014708462002113565b925092509250818190620014995760405162461bcd60e51b815260040162000884919062003c7a565b50620014bf8361014001516000908152600560205260409020805460ff19166001179055565b6000620014d08460e00151620007d7565b9050620014e060025461ffff1690565b61ffff16816040015161ffff161480620015005750604081015161ffff16155b620015415760405162461bcd60e51b815260206004820152601060248201526f1a5b9d985b1a590818da185a5b881a5960821b604482015260640162000884565b606081015161ffff166000908152600b602052604081205414620015a85760405162461bcd60e51b815260206004820152601860248201527f636861696e20616c726561647920726567697374657265640000000000000000604482015260640162000884565b62000f758160600151826080015161ffff9091166000908152600b6020526040902055565b8051602080830151604080850151606080870151608088015160a0890151945160f898891b6001600160f81b031990811698820198909852602181019690965260f09390931b6001600160f01b031916604186015290951b909316604383015260448201929092526064810191909152608401620011b0565b60408051600481526024810182526020810180516001600160e01b031663313ce56760e01b179052905160009182916001600160a01b038616916200168b9162003c03565b600060405180830381855afa9150503d8060008114620016c8576040519150601f19603f3d011682016040523d82523d6000602084013e620016cd565b606091505b5060408051600481526024810182526020810180516001600160e01b03166395d89b4160e01b1790529051919350600092506001600160a01b0387169162001716919062003c03565b600060405180830381855afa9150503d806000811462001753576040519150601f19603f3d011682016040523d82523d6000602084013e62001758565b606091505b5060408051600481526024810182526020810180516001600160e01b03166306fdde0360e01b1790529051919350600092506001600160a01b03881691620017a1919062003c03565b600060405180830381855afa9150503d8060008114620017de576040519150601f19603f3d011682016040523d82523d6000602084013e620017e3565b606091505b50915050600083806020019051810190620017ff919062003bb6565b9050600083806020019051810190620018199190620037fb565b9050600083806020019051810190620018339190620037fb565b9050600080602084015191506020830151905060006040518060c00160405280600260ff1681526020018d6001600160a01b031660001b81526020016200187d60025461ffff1690565b61ffff1681526020018760ff1681526020018481526020018381525090506000620018a882620015cd565b9050620018bd6000546001600160a01b031690565b6001600160a01b031663b19a437e348e84600f6040518563ffffffff1660e01b8152600401620018f09392919062003d68565b6020604051808303818588803b1580156200190a57600080fd5b505af11580156200191f573d6000803e3d6000fd5b50505050506040513d601f19601f8201168201806040525081019062000e58919062003b99565b62001953816000620024d2565b50565b6000806000806200196f6000546001600160a01b031690565b6001600160a01b031663c0fd8bde866040518263ffffffff1660e01b81526004016200199c919062003c7a565b60006040518083038186803b158015620019b557600080fd5b505afa158015620019ca573d6000803e3d6000fd5b505050506040513d6000823e601f3d908101601f19168201604052620019f4919081019062003970565b92509250925081819062001a1d5760405162461bcd60e51b815260040162000884919062003c7a565b5062001a298362002bda565b62001a485760405162461bcd60e51b8152600401620008849062003d3f565b600062001a598460e00151620009e1565b905062001a6b818560a0015162002c17565b9695505050505050565b60008060008062001a8e6000546001600160a01b031690565b6001600160a01b031663c0fd8bde866040518263ffffffff1660e01b815260040162001abb919062003c7a565b60006040518083038186803b15801562001ad457600080fd5b505afa15801562001ae9573d6000803e3d6000fd5b505050506040513d6000823e601f3d908101601f1916820160405262001b13919081019062003970565b92509250925081819062001b3c5760405162461bcd60e51b815260040162000884919062003c7a565b5062001b488362002bda565b62001b675760405162461bcd60e51b8152600401620008849062003d3f565b600062001b788460e00151620009e1565b905062001a6b818560a0015162002ec8565b60408051608081018252600080825260208201819052918101829052606081018290529062001bba838262001d72565b825262001bc960208262003e4a565b82519091506a546f6b656e4272696467651462001c375760405162461bcd60e51b815260206004820152602560248201527f696e76616c69642055706772616465436f6e74726163743a2077726f6e67206d6044820152646f64756c6560d81b606482015260840162000884565b62001c43838262001dd4565b60ff16602083015262001c5860018262003e4a565b9050816020015160ff1660021462001cc15760405162461bcd60e51b815260206004820152602560248201527f696e76616c69642055706772616465436f6e74726163743a2077726f6e67206160448201526431ba34b7b760d91b606482015260840162000884565b62001ccd838262001e34565b61ffff16604083015262001ce360028262003e4a565b905062001cf1838262001d72565b606083015262001d0360208262003e4a565b905080835114620009db5760405162461bcd60e51b815260206004820152602560248201527f696e76616c69642055706772616465436f6e74726163743a2077726f6e67206c6044820152640cadccee8d60db1b606482015260840162000884565b62001953816001620024d2565b600062001d8182602062003e4a565b8351101562001dcb5760405162461bcd60e51b8152602060048201526015602482015274746f427974657333325f6f75744f66426f756e647360581b604482015260640162000884565b50016020015190565b600062001de382600162003e4a565b8351101562001e2b5760405162461bcd60e51b8152602060048201526013602482015272746f55696e74385f6f75744f66426f756e647360681b604482015260640162000884565b50016001015190565b600062001e4382600262003e4a565b8351101562001e8c5760405162461bcd60e51b8152602060048201526014602482015273746f55696e7431365f6f75744f66426f756e647360601b604482015260640162000884565b50016002015190565b6040516001600160a01b038085166024830152831660448201526064810182905262001f029085906323b872dd60e01b906084015b60408051601f198184030181529190526020810180516001600160e01b03166001600160e01b03199093169290921790915262002fc3565b50505050565b6001600160a01b0382166000908152600a60205260409020546001600160401b0362001f35838362003e4a565b111562001fa35760405162461bcd60e51b815260206004820152603560248201527f7472616e736665722065786365656473206d6178206f75747374616e64696e6760448201527408189c9a5919d959081d1bdad95b88185b5bdd5b9d605a1b606482015260840162000884565b62001fd08362001fb4848462003e4a565b6001600160a01b039091166000908152600a6020526040902055565b505050565b6000868411156200201e5760405162461bcd60e51b815260206004820152601260248201527119995948195e18d959591cc8185b5bdd5b9d60721b604482015260640162000884565b6040805160e081018252600181526020810189905290810189905261ffff808b16606083015260808201879052871660a082015260c081018590526000620020668262001131565b90506200207b6000546001600160a01b031690565b6001600160a01b031663b19a437e868684600f6040518563ffffffff1660e01b8152600401620020ae9392919062003d68565b6020604051808303818588803b158015620020c857600080fd5b505af1158015620020dd573d6000803e3d6000fd5b50505050506040513d601f19601f8201168201806040525081019062002104919062003b99565b9b9a5050505050505050505050565b604080516101608101825260008082526020820181905291810182905260608082018390526080820183905260a0820183905260c0820183905260e082018190526101008201839052610120820152610140810191909152600060606000806000620021876000546001600160a01b031690565b6001600160a01b031663c0fd8bde886040518263ffffffff1660e01b8152600401620021b4919062003c7a565b60006040518083038186803b158015620021cd57600080fd5b505afa158015620021e2573d6000803e3d6000fd5b505050506040513d6000823e601f3d908101601f191682016040526200220c919081019062003970565b925092509250816200222557919450925090506200233b565b60025462010000900461ffff1661ffff16836060015161ffff1614620022835750506040805180820190915260168152753bb937b7339033b7bb32b93730b731b29031b430b4b760511b60208201529093506000925090506200233b565b600354836080015114620022d657505060408051808201909152601981527f77726f6e6720676f7665726e616e636520636f6e74726163740000000000000060208201529093506000925090506200233b565b61014083015160009081526005602052604090205460ff1615620023205782600060405180606001604052806022815260200162004a31602291399550955095505050506200233b565b50506040805160208101909152600081529093506001925090505b9193909250565b6000620023767f360894a13ba1a3210667c828492db98dca3e2076cc3735a920a3ca505d382bbc546001600160a01b031690565b905062002383826200309c565b60408051600481526024810182526020810180516001600160e01b031663204a7f0760e21b179052905160009182916001600160a01b03861691620023c89162003c03565b600060405180830381855af49150503d806000811462002405576040519150601f19603f3d011682016040523d82523d6000602084013e6200240a565b606091505b5091509150818190620024325760405162461bcd60e51b815260040162000884919062003c7a565b50836001600160a01b0316836001600160a01b03167f2e4cc16c100f0b55e2df82ab0b1a7e294aa9cbd01b48fbaf622683fbc0507a4960405160405180910390a350505050565b60006200248882602062003e4a565b8351101562001dcb5760405162461bcd60e51b8152602060048201526015602482015274746f55696e743235365f6f75744f66426f756e647360581b604482015260640162000884565b6000806000620024ea6000546001600160a01b031690565b6001600160a01b031663c0fd8bde866040518263ffffffff1660e01b815260040162002517919062003c7a565b60006040518083038186803b1580156200253057600080fd5b505afa15801562002545573d6000803e3d6000fd5b505050506040513d6000823e601f3d908101601f191682016040526200256f919081019062003970565b925092509250818190620025985760405162461bcd60e51b815260040162000884919062003c7a565b50620025a48362002bda565b620025c35760405162461bcd60e51b8152600401620008849062003d3f565b6000620025d48460e0015162000f7c565b9050620025f584610140015160009081526006602052604090205460ff1690565b15620026445760405162461bcd60e51b815260206004820152601a60248201527f7472616e7366657220616c726561647920636f6d706c65746564000000000000604482015260640162000884565b620026698461014001516000908152600660205260409020805460ff19166001179055565b60025461ffff1661ffff168160a0015161ffff1614620026c35760405162461bcd60e51b815260206004820152601460248201527334b73b30b634b2103a30b933b2ba1031b430b4b760611b604482015260640162000884565b6000620026d360025461ffff1690565b61ffff16826060015161ffff16141562002705575060408101516020820151620026ff908290620030de565b62002786565b60006200271b8360600151846040015162000e69565b90506001600160a01b038116620027835760405162461bcd60e51b815260206004820152602560248201527f6e6f207772617070657220666f72207468697320746f6b656e2063726561746560448201526419081e595d60da1b606482015260840162000884565b90505b851580620027a157506004546001600160a01b038281169116145b620027fb5760405162461bcd60e51b815260206004820152602360248201527f696e76616c696420746f6b656e2c2063616e206f6e6c7920756e77726170205760448201526208aa8960eb1b606482015260840162000884565b60408051600481526024810182526020810180516001600160e01b031663313ce56760e01b17905290516000916001600160a01b038416916200283f919062003c03565b600060405180830381855afa9150503d80600081146200287c576040519150601f19603f3d011682016040523d82523d6000602084013e62002881565b606091505b509150506000818060200190518101906200289d919062003bb6565b602085015160c086015191925090600860ff84161115620028f4576000620028c760088562003fca565b620028d490600a62003ecf565b9050620028e2818462003f8e565b9250620028f0818362003f8e565b9150505b801562002a815781811115620029585760405162461bcd60e51b815260206004820152602260248201527f66656520686967686572207468616e207472616e7366657272656420616d6f756044820152611b9d60f21b606482015260840162000884565b8915620029f25760048054604051632e1a7d4d60e01b81529182018390526001600160a01b031690632e1a7d4d90602401600060405180830381600087803b158015620029a457600080fd5b505af1158015620029b9573d6000803e3d6000fd5b505060405133925083156108fc02915083906000818181858888f19350505050158015620029eb573d6000803e3d6000fd5b5062002a81565b60025461ffff1661ffff16866060015161ffff161462002a74576040516340c10f1960e01b8152336004820152602481018290526001600160a01b038616906340c10f1990604401600060405180830381600087803b15801562002a5557600080fd5b505af115801562002a6a573d6000803e3d6000fd5b5050505062002a81565b62002a8185338362003114565b600062002a8f828462003fb0565b60808801519091508b1562002b3a5760048054604051632e1a7d4d60e01b81529182018490526001600160a01b031690632e1a7d4d90602401600060405180830381600087803b15801562002ae357600080fd5b505af115801562002af8573d6000803e3d6000fd5b50506040516001600160a01b038416925084156108fc02915084906000818181858888f1935050505015801562002b33573d6000803e3d6000fd5b5062002bcb565b60025461ffff1661ffff16886060015161ffff161462002bbe576040516340c10f1960e01b81526001600160a01b038281166004830152602482018490528816906340c10f1990604401600060405180830381600087803b15801562002b9f57600080fd5b505af115801562002bb4573d6000803e3d6000fd5b5050505062002bcb565b62002bcb87828462003114565b50505050505050505050505050565b6000816080015162002c00836060015161ffff166000908152600b602052604090205490565b141562002c0f57506001919050565b506000919050565b600062002c2760025461ffff1690565b61ffff16836040015161ffff16141562002c955760405162461bcd60e51b815260206004820152602860248201527f63616e206f6e6c79207772617020746f6b656e732066726f6d20666f726569676044820152676e20636861696e7360c01b606482015260840162000884565b60006001600160a01b031662002cb48460400151856020015162000e69565b6001600160a01b03161462002d0c5760405162461bcd60e51b815260206004820152601c60248201527f7772617070656420617373657420616c72656164792065786973747300000000604482015260640162000884565b600063c71f461560e01b62002d258560a0015162003146565b62002d34866080015162003146565b8660600151863089604001518a6020015160405160240162002d5d979695949392919062003cd2565b60408051601f19818403018152918152602080830180516001600160e01b03166001600160e01b0319909516949094179093525190925060009162002da791309185910162003c54565b604051602081830303815290604052905060006040518060200162002dcc90620034b3565b601f1982820381018352601f90910116604081905262002df29190849060200162003c21565b604051602081830303815290604052905060008660400151876020015160405160200162002e3992919060f09290921b6001600160f01b0319168252600282015260220190565b604051602081830303815290604052805190602001209050808251602084016000f59450843b62002e6957600080fd5b6040808801516020808a015161ffff90921660009081526008825283812092815291815282822080546001600160a01b0319166001600160a01b038a1690811790915582526009905220805460ff191660011790555050505092915050565b60008062002edf8460400151856020015162000e69565b90506001600160a01b03811662002f395760405162461bcd60e51b815260206004820152601d60248201527f7772617070656420617373657420646f6573206e6f7420657869737473000000604482015260640162000884565b806001600160a01b031663a18cd7c662002f578660a0015162003146565b62002f66876080015162003146565b866040518463ffffffff1660e01b815260040162002f879392919062003c8f565b600060405180830381600087803b15801562002fa257600080fd5b505af115801562002fb7573d6000803e3d6000fd5b50929695505050505050565b60006200301a826040518060400160405280602081526020017f5361666545524332303a206c6f772d6c6576656c2063616c6c206661696c6564815250856001600160a01b0316620032819092919063ffffffff16565b80519091501562001fd057808060200190518101906200303b919062003732565b62001fd05760405162461bcd60e51b815260206004820152602a60248201527f5361666545524332303a204552433230206f7065726174696f6e20646964206e6044820152691bdd081cdd58d8d9595960b21b606482015260840162000884565b620030a7816200329c565b6040516001600160a01b038216907fbc7cd75a20ee27fd9adebab32041f755214dbc6bffa90cc0225b39da2e5c2d3b90600090a250565b62003110828262003104856001600160a01b03166000908152600a602052604090205490565b62001fb4919062003fb0565b5050565b6040516001600160a01b03831660248201526044810182905262001fd090849063a9059cbb60e01b9060640162001eca565b606060005b6020811080156200318957508281602081106200317857634e487b7160e01b600052603260045260246000fd5b1a60f81b6001600160f81b03191615155b15620031a457806200319b816200401f565b9150506200314b565b6000816001600160401b03811115620031cd57634e487b7160e01b600052604160045260246000fd5b6040519080825280601f01601f191660200182016040528015620031f8576020820181803683370190505b50905060005b8281101562003279578481602081106200322857634e487b7160e01b600052603260045260246000fd5b1a60f81b8282815181106200324d57634e487b7160e01b600052603260045260246000fd5b60200101906001600160f81b031916908160001a9053508062003270816200401f565b915050620031fe565b509392505050565b606062003292848460008562003343565b90505b9392505050565b803b620033025760405162461bcd60e51b815260206004820152602d60248201527f455243313936373a206e657720696d706c656d656e746174696f6e206973206e60448201526c1bdd08184818dbdb9d1c9858dd609a1b606482015260840162000884565b7f360894a13ba1a3210667c828492db98dca3e2076cc3735a920a3ca505d382bbc80546001600160a01b0319166001600160a01b0392909216919091179055565b606082471015620033a65760405162461bcd60e51b815260206004820152602660248201527f416464726573733a20696e73756666696369656e742062616c616e636520666f6044820152651c8818d85b1b60d21b606482015260840162000884565b843b620033f65760405162461bcd60e51b815260206004820152601d60248201527f416464726573733a2063616c6c20746f206e6f6e2d636f6e7472616374000000604482015260640162000884565b600080866001600160a01b0316858760405162003414919062003c03565b60006040518083038185875af1925050503d806000811462003453576040519150601f19603f3d011682016040523d82523d6000602084013e62003458565b606091505b50915091506200346a82828662003475565b979650505050505050565b606083156200348657508162003295565b825115620034975782518084602001fd5b8160405162461bcd60e51b815260040162000884919062003c7a565b610993806200409e83390190565b80356001600160a01b0381168114620034d957600080fd5b919050565b600082601f830112620034ef578081fd5b815160206001600160401b038211156200350d576200350d62004053565b6200351d818360051b0162003ded565b80838252828201915082860187848660071b89010111156200353d578586fd5b855b85811015620035ad57608080838b03121562003559578788fd5b6200356362003d9c565b83518152868401518782015260408085015162003580816200408d565b9082015260608481015162003595816200408d565b9082015285529385019391909101906001016200353f565b5090979650505050505050565b80518015158114620034d957600080fd5b600082601f830112620035dc578081fd5b8151620035f3620035ed8262003e20565b62003ded565b81815284602083860101111562003608578283fd5b6200361b82602083016020870162003ff0565b949350505050565b8035620034d98162004069565b8051620034d98162004069565b8051620034d9816200407a565b80516001600160401b0381168114620034d957600080fd5b8051620034d9816200408d565b60006020828403121562003681578081fd5b6200329582620034c1565b60008060008060008060c08789031215620036a5578182fd5b620036b087620034c1565b9550602087013594506040870135620036c98162004069565b9350606087013592506080870135915060a0870135620036e9816200407a565b809150509295509295509295565b600080604083850312156200370a578182fd5b6200371583620034c1565b9150602083013562003727816200407a565b809150509250929050565b60006020828403121562003744578081fd5b6200329582620035ba565b60006020828403121562003761578081fd5b5035919050565b6000602082840312156200377a578081fd5b5051919050565b60006020828403121562003793578081fd5b81356001600160401b03811115620037a9578182fd5b8201601f81018413620037ba578182fd5b8035620037cb620035ed8262003e20565b818152856020838501011115620037e0578384fd5b81602084016020830137908101602001929092525092915050565b6000602082840312156200380d578081fd5b81516001600160401b0381111562003823578182fd5b6200361b84828501620035cb565b600060c0828403121562003843578081fd5b60405160c081018181106001600160401b038211171562003868576200386862004053565b604052823562003878816200408d565b8152602083810135908201526040830135620038948162004069565b60408201526060830135620038a9816200408d565b60608201526080838101359082015260a0928301359281019290925250919050565b600060e08284031215620038dd578081fd5b60405160e081018181106001600160401b038211171562003902576200390262004053565b604052823562003912816200408d565b80825250602083013560208201526040830135604082015260608301356200393a8162004069565b6060820152608083810135908201526200395760a0840162003623565b60a082015260c083013560c08201528091505092915050565b60008060006060848603121562003985578081fd5b83516001600160401b03808211156200399c578283fd5b908501906101608288031215620039b1578283fd5b620039bb62003dc7565b620039c68362003662565b8152620039d6602084016200363d565b6020820152620039e9604084016200363d565b6040820152620039fc6060840162003630565b60608201526080830151608082015262003a1960a084016200364a565b60a082015262003a2c60c0840162003662565b60c082015260e08301518281111562003a43578485fd5b62003a5189828601620035cb565b60e08301525061010062003a678185016200363d565b90820152610120838101518381111562003a7f578586fd5b62003a8d8a828701620034de565b91830191909152506101408381015190820152945062003ab060208701620035ba565b9350604086015191508082111562003ac6578283fd5b5062003ad586828701620035cb565b9150509250925092565b60006020828403121562003af1578081fd5b8135620032958162004069565b60006020828403121562003b10578081fd5b8151620032958162004069565b6000806040838503121562003b30578182fd5b823562003b3d8162004069565b946020939093013593505050565b6000806000806080858703121562003b61578182fd5b843562003b6e8162004069565b93506020850135925060408501359150606085013562003b8e816200407a565b939692955090935050565b60006020828403121562003bab578081fd5b62003295826200364a565b60006020828403121562003bc8578081fd5b815162003295816200408d565b6000815180845262003bef81602086016020860162003ff0565b601f01601f19169290920160200192915050565b6000825162003c1781846020870162003ff0565b9190910192915050565b6000835162003c3581846020880162003ff0565b83519083019062003c4b81836020880162003ff0565b01949350505050565b6001600160a01b0383168152604060208201819052600090620032929083018462003bd5565b60208152600062003295602083018462003bd5565b60608152600062003ca4606083018662003bd5565b828103602084015262003cb8818662003bd5565b9150506001600160401b0383166040830152949350505050565b60e08152600062003ce760e083018a62003bd5565b828103602084015262003cfb818a62003bd5565b60ff98909816604084015250506001600160401b039490941660608501526001600160a01b0392909216608084015261ffff1660a083015260c09091015292915050565b6020808252600f908201526e34b73b30b634b21032b6b4ba3a32b960891b604082015260600190565b63ffffffff8416815260606020820152600062003d89606083018562003bd5565b905060ff83166040830152949350505050565b604051608081016001600160401b038111828210171562003dc15762003dc162004053565b60405290565b60405161016081016001600160401b038111828210171562003dc15762003dc162004053565b604051601f8201601f191681016001600160401b038111828210171562003e185762003e1862004053565b604052919050565b60006001600160401b0382111562003e3c5762003e3c62004053565b50601f01601f191660200190565b6000821982111562003e605762003e606200403d565b500190565b60008262003e8157634e487b7160e01b81526012600452602481fd5b500490565b600181815b8085111562003ec757816000190482111562003eab5762003eab6200403d565b8085161562003eb957918102915b93841c939080029062003e8b565b509250929050565b60006200329560ff84168360008262003eeb5750600162000e92565b8162003efa5750600062000e92565b816001811462003f13576002811462003f1e5762003f3e565b600191505062000e92565b60ff84111562003f325762003f326200403d565b50506001821b62000e92565b5060208310610133831016604e8410600b841016171562003f63575081810a62000e92565b62003f6f838362003e86565b806000190482111562003f865762003f866200403d565b029392505050565b600081600019048311821515161562003fab5762003fab6200403d565b500290565b60008282101562003fc55762003fc56200403d565b500390565b600060ff821660ff84168082101562003fe75762003fe76200403d565b90039392505050565b60005b838110156200400d57818101518382015260200162003ff3565b8381111562001f025750506000910152565b60006000198214156200403657620040366200403d565b5060010190565b634e487b7160e01b600052601160045260246000fd5b634e487b7160e01b600052604160045260246000fd5b61ffff811681146200195357600080fd5b63ffffffff811681146200195357600080fd5b60ff811681146200195357600080fdfe608060405234801561001057600080fd5b5060405161099338038061099383398101604081905261002f9161048e565b818161005c60017fa3f0ad74e5423aebfd80d3ef4346578335a9a72aeaee59ff6cb3582b35133d51610599565b60008051602061094c8339815191521461008657634e487b7160e01b600052600160045260246000fd5b6100928282600061009b565b505050506105fe565b6100a483610175565b6040516001600160a01b038416907f1cf3b03a6cf19fa2baba4df148e9dcabedea7f8a5c07840e207e5c089be95d3e90600090a26000825111806100e55750805b156101705761016e836001600160a01b0316635c60da1b6040518163ffffffff1660e01b815260040160206040518083038186803b15801561012657600080fd5b505afa15801561013a573d6000803e3d6000fd5b505050506040513d601f19601f8201168201806040525081019061015e9190610474565b8361031560201b6100291760201c565b505b505050565b6101888161034160201b6100551760201c565b6101e75760405162461bcd60e51b815260206004820152602560248201527f455243313936373a206e657720626561636f6e206973206e6f74206120636f6e6044820152641d1c9858dd60da1b60648201526084015b60405180910390fd5b61026a816001600160a01b0316635c60da1b6040518163ffffffff1660e01b815260040160206040518083038186803b15801561022357600080fd5b505afa158015610237573d6000803e3d6000fd5b505050506040513d601f19601f8201168201806040525081019061025b9190610474565b61034160201b6100551760201c565b6102cf5760405162461bcd60e51b815260206004820152603060248201527f455243313936373a20626561636f6e20696d706c656d656e746174696f6e206960448201526f1cc81b9bdd08184818dbdb9d1c9858dd60821b60648201526084016101de565b806102f460008051602061094c83398151915260001b61034760201b61005b1760201c565b80546001600160a01b0319166001600160a01b039290921691909117905550565b606061033a838360405180606001604052806027815260200161096c6027913961034a565b9392505050565b3b151590565b90565b6060833b6103a95760405162461bcd60e51b815260206004820152602660248201527f416464726573733a2064656c65676174652063616c6c20746f206e6f6e2d636f6044820152651b9d1c9858dd60d21b60648201526084016101de565b600080856001600160a01b0316856040516103c4919061054a565b600060405180830381855af49150503d80600081146103ff576040519150601f19603f3d011682016040523d82523d6000602084013e610404565b606091505b50909250905061041582828661041f565b9695505050505050565b6060831561042e57508161033a565b82511561043e5782518084602001fd5b8160405162461bcd60e51b81526004016101de9190610566565b80516001600160a01b038116811461046f57600080fd5b919050565b600060208284031215610485578081fd5b61033a82610458565b600080604083850312156104a0578081fd5b6104a983610458565b60208401519092506001600160401b03808211156104c5578283fd5b818501915085601f8301126104d8578283fd5b8151818111156104ea576104ea6105e8565b604051601f8201601f19908116603f01168101908382118183101715610512576105126105e8565b8160405282815288602084870101111561052a578586fd5b61053b8360208301602088016105bc565b80955050505050509250929050565b6000825161055c8184602087016105bc565b9190910192915050565b60208152600082518060208401526105858160408501602087016105bc565b601f01601f19169190910160400192915050565b6000828210156105b757634e487b7160e01b81526011600452602481fd5b500390565b60005b838110156105d75781810151838201526020016105bf565b8381111561016e5750506000910152565b634e487b7160e01b600052604160045260246000fd5b61033f8061060d6000396000f3fe60806040523661001357610011610017565b005b6100115b61002761002261005e565b610106565b565b606061004e83836040518060600160405280602781526020016102e36027913961012a565b9392505050565b3b151590565b90565b60006100917fa3f0ad74e5423aebfd80d3ef4346578335a9a72aeaee59ff6cb3582b35133d50546001600160a01b031690565b6001600160a01b0316635c60da1b6040518163ffffffff1660e01b815260040160206040518083038186803b1580156100c957600080fd5b505afa1580156100dd573d6000803e3d6000fd5b505050506040513d601f19601f82011682018060405250810190610101919061023c565b905090565b3660008037600080366000845af43d6000803e808015610125573d6000f35b3d6000fd5b6060833b61018e5760405162461bcd60e51b815260206004820152602660248201527f416464726573733a2064656c65676174652063616c6c20746f206e6f6e2d636f6044820152651b9d1c9858dd60d21b60648201526084015b60405180910390fd5b600080856001600160a01b0316856040516101a99190610263565b600060405180830381855af49150503d80600081146101e4576040519150601f19603f3d011682016040523d82523d6000602084013e6101e9565b606091505b50915091506101f9828286610203565b9695505050505050565b6060831561021257508161004e565b8251156102225782518084602001fd5b8160405162461bcd60e51b8152600401610185919061027f565b60006020828403121561024d578081fd5b81516001600160a01b038116811461004e578182fd5b600082516102758184602087016102b2565b9190910192915050565b602081526000825180602084015261029e8160408501602087016102b2565b601f01601f19169190910160400192915050565b60005b838110156102cd5781810151838201526020016102b5565b838111156102dc576000848401525b5050505056fe416464726573733a206c6f772d6c6576656c2064656c65676174652063616c6c206661696c6564a2646970667358221220a3d2edf88a79ea07521d0c76cc1518f9b1afeb95affe78da890561293ad31e0f64736f6c63430008040033a3f0ad74e5423aebfd80d3ef4346578335a9a72aeaee59ff6cb3582b35133d50416464726573733a206c6f772d6c6576656c2064656c65676174652063616c6c206661696c6564676f7665726e616e636520616374696f6e20616c726561647920636f6e73756d6564a26469706673582212200048362f7e87ae5725f239bf6a74c07013905db9dd7dc37723d983e33cc878a364736f6c63430008040033",
  "immutableReferences": {},
  "source": "// contracts/Bridge.sol\r\n// SPDX-License-Identifier: Apache 2\r\n\r\npragma solidity ^0.8.0;\r\n\r\nimport \"@openzeppelin/contracts/token/ERC20/IERC20.sol\";\r\nimport \"@openzeppelin/contracts/token/ERC20/utils/SafeERC20.sol\";\r\n\r\nimport \"../libraries/external/BytesLib.sol\";\r\n\r\nimport \"./BridgeGetters.sol\";\r\nimport \"./BridgeSetters.sol\";\r\nimport \"./BridgeStructs.sol\";\r\nimport \"./BridgeGovernance.sol\";\r\n\r\nimport \"./token/Token.sol\";\r\nimport \"./token/TokenImplementation.sol\";\r\n\r\ncontract Bridge is BridgeGovernance {\r\n    using BytesLib for bytes;\r\n\r\n    // Produce a AssetMeta message for a given token\r\n    function attestToken(address tokenAddress, uint32 nonce) public payable returns (uint64 sequence){\r\n        // decimals, symbol & token are not part of the core ERC20 token standard, so we need to support contracts that dont implement them\r\n        (,bytes memory queriedDecimals) = tokenAddress.staticcall(abi.encodeWithSignature(\"decimals()\"));\r\n        (,bytes memory queriedSymbol) = tokenAddress.staticcall(abi.encodeWithSignature(\"symbol()\"));\r\n        (,bytes memory queriedName) = tokenAddress.staticcall(abi.encodeWithSignature(\"name()\"));\r\n\r\n        uint8 decimals = abi.decode(queriedDecimals, (uint8));\r\n\r\n        string memory symbolString = abi.decode(queriedSymbol, (string));\r\n        string memory nameString = abi.decode(queriedName, (string));\r\n\r\n        bytes32 symbol;\r\n        bytes32 name;\r\n        assembly {\r\n        // first 32 bytes hold string length\r\n            symbol := mload(add(symbolString, 32))\r\n            name := mload(add(nameString, 32))\r\n        }\r\n\r\n        BridgeStructs.AssetMeta memory meta = BridgeStructs.AssetMeta({\r\n        payloadID : 2,\r\n        // Address of the token. Left-zero-padded if shorter than 32 bytes\r\n        tokenAddress : bytes32(uint256(uint160(tokenAddress))),\r\n        // Chain ID of the token\r\n        tokenChain : chainId(),\r\n        // Number of decimals of the token (big-endian uint8)\r\n        decimals : decimals,\r\n        // Symbol of the token (UTF-8)\r\n        symbol : symbol,\r\n        // Name of the token (UTF-8)\r\n        name : name\r\n        });\r\n\r\n        bytes memory encoded = encodeAssetMeta(meta);\r\n\r\n        sequence = wormhole().publishMessage{\r\n        value : msg.value\r\n        }(nonce, encoded, 15);\r\n    }\r\n\r\n    function wrapAndTransferETH(uint16 recipientChain, bytes32 recipient, uint256 arbiterFee, uint32 nonce) public payable returns (uint64 sequence) {\r\n        uint wormholeFee = wormhole().messageFee();\r\n\r\n        require(wormholeFee < msg.value, \"value is smaller than wormhole fee\");\r\n\r\n        uint amount = msg.value - wormholeFee;\r\n\r\n        require(arbiterFee <= amount, \"fee is bigger than amount minus wormhole fee\");\r\n\r\n        uint normalizedAmount = amount / (10 ** 10);\r\n        uint normalizedArbiterFee = arbiterFee / (10 ** 10);\r\n\r\n        // refund dust\r\n        uint dust = amount - (normalizedAmount * (10 ** 10));\r\n        if (dust > 0) {\r\n            payable(msg.sender).transfer(dust);\r\n        }\r\n\r\n        // deposit into WETH\r\n        WETH().deposit{\r\n        value : amount - dust\r\n        }();\r\n\r\n        // track and check outstanding token amounts\r\n        bridgeOut(address(WETH()), normalizedAmount);\r\n\r\n        sequence = logTransfer(chainId(), bytes32(uint256(uint160(address(WETH())))), normalizedAmount, recipientChain, recipient, normalizedArbiterFee, wormholeFee, nonce);\r\n    }\r\n\r\n    // Initiate a Transfer\r\n    function transferTokens(address token, uint256 amount, uint16 recipientChain, bytes32 recipient, uint256 arbiterFee, uint32 nonce) public payable returns (uint64 sequence) {\r\n        // determine token parameters\r\n        uint16 tokenChain;\r\n        bytes32 tokenAddress;\r\n        if (isWrappedAsset(token)) {\r\n            tokenChain = TokenImplementation(token).chainId();\r\n            tokenAddress = TokenImplementation(token).nativeContract();\r\n        } else {\r\n            tokenChain = chainId();\r\n            tokenAddress = bytes32(uint256(uint160(token)));\r\n        }\r\n\r\n        // query tokens decimals\r\n        (,bytes memory queriedDecimals) = token.staticcall(abi.encodeWithSignature(\"decimals()\"));\r\n        uint8 decimals = abi.decode(queriedDecimals, (uint8));\r\n\r\n        // adjust decimals\r\n        uint256 normalizedAmount = amount;\r\n        uint256 normalizedArbiterFee = arbiterFee;\r\n        if (decimals > 8) {\r\n            uint multiplier = 10 ** (decimals - 8);\r\n\r\n            normalizedAmount /= multiplier;\r\n            normalizedArbiterFee /= multiplier;\r\n\r\n            // don't deposit dust that can not be bridged due to the decimal shift\r\n            amount = normalizedAmount * multiplier;\r\n        }\r\n\r\n        if (tokenChain == chainId()) {\r\n            SafeERC20.safeTransferFrom(IERC20(token), msg.sender, address(this), amount);\r\n\r\n            // track and check outstanding token amounts\r\n            bridgeOut(token, normalizedAmount);\r\n        } else {\r\n            SafeERC20.safeTransferFrom(IERC20(token), msg.sender, address(this), amount);\r\n\r\n            TokenImplementation(token).burn(address(this), amount);\r\n        }\r\n\r\n        sequence = logTransfer(tokenChain, tokenAddress, normalizedAmount, recipientChain, recipient, normalizedArbiterFee, msg.value, nonce);\r\n    }\r\n\r\n    function logTransfer(uint16 tokenChain, bytes32 tokenAddress, uint256 amount, uint16 recipientChain, bytes32 recipient, uint256 fee, uint256 callValue, uint32 nonce) internal returns (uint64 sequence) {\r\n        require(fee <= amount, \"fee exceeds amount\");\r\n\r\n        BridgeStructs.Transfer memory transfer = BridgeStructs.Transfer({\r\n        payloadID : 1,\r\n        amount : amount,\r\n        tokenAddress : tokenAddress,\r\n        tokenChain : tokenChain,\r\n        to : recipient,\r\n        toChain : recipientChain,\r\n        fee : fee\r\n        });\r\n\r\n        bytes memory encoded = encodeTransfer(transfer);\r\n\r\n        sequence = wormhole().publishMessage{\r\n        value : callValue\r\n        }(nonce, encoded, 15);\r\n    }\r\n\r\n    function updateWrapped(bytes memory encodedVm) external returns (address token) {\r\n        (IWormhole.VM memory vm, bool valid, string memory reason) = wormhole().parseAndVerifyVM(encodedVm);\r\n\r\n        require(valid, reason);\r\n        require(verifyBridgeVM(vm), \"invalid emitter\");\r\n\r\n        BridgeStructs.AssetMeta memory meta = parseAssetMeta(vm.payload);\r\n        return _updateWrapped(meta, vm.sequence);\r\n    }\r\n\r\n    function _updateWrapped(BridgeStructs.AssetMeta memory meta, uint64 sequence) internal returns (address token) {\r\n        address wrapped = wrappedAsset(meta.tokenChain, meta.tokenAddress);\r\n        require(wrapped != address(0), \"wrapped asset does not exists\");\r\n\r\n        // Update metadata\r\n        TokenImplementation(wrapped).updateDetails(bytes32ToString(meta.name), bytes32ToString(meta.symbol), sequence);\r\n\r\n        return wrapped;\r\n    }\r\n\r\n    function createWrapped(bytes memory encodedVm) external returns (address token) {\r\n        (IWormhole.VM memory vm, bool valid, string memory reason) = wormhole().parseAndVerifyVM(encodedVm);\r\n\r\n        require(valid, reason);\r\n        require(verifyBridgeVM(vm), \"invalid emitter\");\r\n\r\n        BridgeStructs.AssetMeta memory meta = parseAssetMeta(vm.payload);\r\n        return _createWrapped(meta, vm.sequence);\r\n    }\r\n\r\n    // Creates a wrapped asset using AssetMeta\r\n    function _createWrapped(BridgeStructs.AssetMeta memory meta, uint64 sequence) internal returns (address token) {\r\n        require(meta.tokenChain != chainId(), \"can only wrap tokens from foreign chains\");\r\n        require(wrappedAsset(meta.tokenChain, meta.tokenAddress) == address(0), \"wrapped asset already exists\");\r\n\r\n        // initialize the TokenImplementation\r\n        bytes memory initialisationArgs = abi.encodeWithSelector(\r\n            TokenImplementation.initialize.selector,\r\n            bytes32ToString(meta.name),\r\n            bytes32ToString(meta.symbol),\r\n            meta.decimals,\r\n            sequence,\r\n\r\n            address(this),\r\n\r\n            meta.tokenChain,\r\n            meta.tokenAddress\r\n        );\r\n\r\n        // initialize the BeaconProxy\r\n        bytes memory constructorArgs = abi.encode(address(this), initialisationArgs);\r\n\r\n        // deployment code\r\n        bytes memory bytecode = abi.encodePacked(type(BridgeToken).creationCode, constructorArgs);\r\n\r\n        bytes32 salt = keccak256(abi.encodePacked(meta.tokenChain, meta.tokenAddress));\r\n\r\n        assembly {\r\n            token := create2(0, add(bytecode, 0x20), mload(bytecode), salt)\r\n\r\n            if iszero(extcodesize(token)) {\r\n                revert(0, 0)\r\n            }\r\n        }\r\n\r\n        setWrappedAsset(meta.tokenChain, meta.tokenAddress, token);\r\n    }\r\n\r\n    function completeTransfer(bytes memory encodedVm) public {\r\n        _completeTransfer(encodedVm, false);\r\n    }\r\n\r\n    function completeTransferAndUnwrapETH(bytes memory encodedVm) public {\r\n        _completeTransfer(encodedVm, true);\r\n    }\r\n\r\n    // Execute a Transfer message\r\n    function _completeTransfer(bytes memory encodedVm, bool unwrapWETH) internal {\r\n        (IWormhole.VM memory vm, bool valid, string memory reason) = wormhole().parseAndVerifyVM(encodedVm);\r\n\r\n        require(valid, reason);\r\n        require(verifyBridgeVM(vm), \"invalid emitter\");\r\n\r\n        BridgeStructs.Transfer memory transfer = parseTransfer(vm.payload);\r\n\r\n        require(!isTransferCompleted(vm.hash), \"transfer already completed\");\r\n        setTransferCompleted(vm.hash);\r\n\r\n        require(transfer.toChain == chainId(), \"invalid target chain\");\r\n\r\n        IERC20 transferToken;\r\n        if (transfer.tokenChain == chainId()) {\r\n            transferToken = IERC20(address(uint160(uint256(transfer.tokenAddress))));\r\n\r\n            // track outstanding token amounts\r\n            bridgedIn(address(transferToken), transfer.amount);\r\n        } else {\r\n            address wrapped = wrappedAsset(transfer.tokenChain, transfer.tokenAddress);\r\n            require(wrapped != address(0), \"no wrapper for this token created yet\");\r\n\r\n            transferToken = IERC20(wrapped);\r\n        }\r\n\r\n        require(unwrapWETH == false || address(transferToken) == address(WETH()), \"invalid token, can only unwrap WETH\");\r\n\r\n        // query decimals\r\n        (,bytes memory queriedDecimals) = address(transferToken).staticcall(abi.encodeWithSignature(\"decimals()\"));\r\n        uint8 decimals = abi.decode(queriedDecimals, (uint8));\r\n\r\n        // adjust decimals\r\n        uint256 nativeAmount = transfer.amount;\r\n        uint256 nativeFee = transfer.fee;\r\n        if (decimals > 8) {\r\n            uint multiplier = 10 ** (decimals - 8);\r\n            nativeAmount *= multiplier;\r\n            nativeFee *= multiplier;\r\n        }\r\n\r\n        // transfer fee to arbiter\r\n        if (nativeFee > 0) {\r\n            require(nativeFee <= nativeAmount, \"fee higher than transferred amount\");\r\n\r\n            if (unwrapWETH) {\r\n                WETH().withdraw(nativeFee);\r\n\r\n                payable(msg.sender).transfer(nativeFee);\r\n            } else {\r\n                if (transfer.tokenChain != chainId()) {\r\n                    // mint wrapped asset\r\n                    TokenImplementation(address(transferToken)).mint(msg.sender, nativeFee);\r\n                } else {\r\n                    SafeERC20.safeTransfer(transferToken, msg.sender, nativeFee);\r\n                }\r\n            }\r\n        }\r\n\r\n        // transfer bridged amount to recipient\r\n        uint transferAmount = nativeAmount - nativeFee;\r\n        address transferRecipient = address(uint160(uint256(transfer.to)));\r\n\r\n        if (unwrapWETH) {\r\n            WETH().withdraw(transferAmount);\r\n\r\n            payable(transferRecipient).transfer(transferAmount);\r\n        } else {\r\n            if (transfer.tokenChain != chainId()) {\r\n                // mint wrapped asset\r\n                TokenImplementation(address(transferToken)).mint(transferRecipient, transferAmount);\r\n            } else {\r\n                SafeERC20.safeTransfer(transferToken, transferRecipient, transferAmount);\r\n            }\r\n        }\r\n    }\r\n\r\n    function bridgeOut(address token, uint normalizedAmount) internal {\r\n        uint outstanding = outstandingBridged(token);\r\n        require(outstanding + normalizedAmount <= type(uint64).max, \"transfer exceeds max outstanding bridged token amount\");\r\n        setOutstandingBridged(token, outstanding + normalizedAmount);\r\n    }\r\n\r\n    function bridgedIn(address token, uint normalizedAmount) internal {\r\n        setOutstandingBridged(token, outstandingBridged(token) - normalizedAmount);\r\n    }\r\n\r\n    function verifyBridgeVM(IWormhole.VM memory vm) internal view returns (bool){\r\n        if (bridgeContracts(vm.emitterChainId) == vm.emitterAddress) {\r\n            return true;\r\n        }\r\n\r\n        return false;\r\n    }\r\n\r\n    function encodeAssetMeta(BridgeStructs.AssetMeta memory meta) public pure returns (bytes memory encoded) {\r\n        encoded = abi.encodePacked(\r\n            meta.payloadID,\r\n            meta.tokenAddress,\r\n            meta.tokenChain,\r\n            meta.decimals,\r\n            meta.symbol,\r\n            meta.name\r\n        );\r\n    }\r\n\r\n    function encodeTransfer(BridgeStructs.Transfer memory transfer) public pure returns (bytes memory encoded) {\r\n        encoded = abi.encodePacked(\r\n            transfer.payloadID,\r\n            transfer.amount,\r\n            transfer.tokenAddress,\r\n            transfer.tokenChain,\r\n            transfer.to,\r\n            transfer.toChain,\r\n            transfer.fee\r\n        );\r\n    }\r\n\r\n    function parseAssetMeta(bytes memory encoded) public pure returns (BridgeStructs.AssetMeta memory meta) {\r\n        uint index = 0;\r\n\r\n        meta.payloadID = encoded.toUint8(index);\r\n        index += 1;\r\n\r\n        require(meta.payloadID == 2, \"invalid AssetMeta\");\r\n\r\n        meta.tokenAddress = encoded.toBytes32(index);\r\n        index += 32;\r\n\r\n        meta.tokenChain = encoded.toUint16(index);\r\n        index += 2;\r\n\r\n        meta.decimals = encoded.toUint8(index);\r\n        index += 1;\r\n\r\n        meta.symbol = encoded.toBytes32(index);\r\n        index += 32;\r\n\r\n        meta.name = encoded.toBytes32(index);\r\n        index += 32;\r\n\r\n        require(encoded.length == index, \"invalid AssetMeta\");\r\n    }\r\n\r\n    function parseTransfer(bytes memory encoded) public pure returns (BridgeStructs.Transfer memory transfer) {\r\n        uint index = 0;\r\n\r\n        transfer.payloadID = encoded.toUint8(index);\r\n        index += 1;\r\n\r\n        require(transfer.payloadID == 1, \"invalid Transfer\");\r\n\r\n        transfer.amount = encoded.toUint256(index);\r\n        index += 32;\r\n\r\n        transfer.tokenAddress = encoded.toBytes32(index);\r\n        index += 32;\r\n\r\n        transfer.tokenChain = encoded.toUint16(index);\r\n        index += 2;\r\n\r\n        transfer.to = encoded.toBytes32(index);\r\n        index += 32;\r\n\r\n        transfer.toChain = encoded.toUint16(index);\r\n        index += 2;\r\n\r\n        transfer.fee = encoded.toUint256(index);\r\n        index += 32;\r\n\r\n        require(encoded.length == index, \"invalid Transfer\");\r\n    }\r\n\r\n    function bytes32ToString(bytes32 input) internal pure returns (string memory) {\r\n        uint256 i;\r\n        while (i < 32 && input[i] != 0) {\r\n            i++;\r\n        }\r\n        bytes memory array = new bytes(i);\r\n        for (uint c = 0; c < i; c++) {\r\n            array[c] = input[c];\r\n        }\r\n        return string(array);\r\n    }\r\n\r\n    // we need to accept ETH sends to unwrap WETH\r\n    receive() external payable {}\r\n}",
  "sourcePath": "D:\\sourcecode\\wormhole\\ethereum\\contracts\\bridge\\Bridge.sol",
  "compiler": {
    "name": "solc",
    "version": "0.8.4+commit.c7e474f2.Emscripten.clang"
  },
  "schemaVersion": "3.4.1",
  "updatedAt": "2021-09-16T09:52:26.451Z",
  "devdoc": {
    "kind": "dev",
    "methods": {},
    "version": 1
  },
  "userdoc": {
    "kind": "user",
    "methods": {},
    "version": 1
  }
}