{
  "contractName": "NFTBridgeImplementation",
  "abi": [
    {
      "anonymous": false,
      "inputs": [
        {
          "indexed": false,
          "internalType": "address",
          "name": "previousAdmin",
          "type": "address"
        },
        {
          "indexed": false,
          "internalType": "address",
          "name": "newAdmin",
          "type": "address"
        }
      ],
      "name": "AdminChanged",
      "type": "event"
    },
    {
      "anonymous": false,
      "inputs": [
        {
          "indexed": true,
          "internalType": "address",
          "name": "beacon",
          "type": "address"
        }
      ],
      "name": "BeaconUpgraded",
      "type": "event"
    },
    {
      "anonymous": false,
      "inputs": [
        {
          "indexed": true,
          "internalType": "address",
          "name": "oldContract",
          "type": "address"
        },
        {
          "indexed": true,
          "internalType": "address",
          "name": "newContract",
          "type": "address"
        }
      ],
      "name": "ContractUpgraded",
      "type": "event"
    },
    {
      "anonymous": false,
      "inputs": [
        {
          "indexed": true,
          "internalType": "address",
          "name": "implementation",
          "type": "address"
        }
      ],
      "name": "Upgraded",
      "type": "event"
    },
    {
      "inputs": [
        {
          "internalType": "uint16",
          "name": "chainId_",
          "type": "uint16"
        }
      ],
      "name": "bridgeContracts",
      "outputs": [
        {
          "internalType": "bytes32",
          "name": "",
          "type": "bytes32"
        }
      ],
      "stateMutability": "view",
      "type": "function"
    },
    {
      "inputs": [],
      "name": "chainId",
      "outputs": [
        {
          "internalType": "uint16",
          "name": "",
          "type": "uint16"
        }
      ],
      "stateMutability": "view",
      "type": "function"
    },
    {
      "inputs": [
        {
          "internalType": "bytes",
          "name": "encodedVm",
          "type": "bytes"
        }
      ],
      "name": "completeTransfer",
      "outputs": [],
      "stateMutability": "nonpayable",
      "type": "function"
    },
    {
      "inputs": [
        {
          "components": [
            {
              "internalType": "bytes32",
              "name": "tokenAddress",
              "type": "bytes32"
            },
            {
              "internalType": "uint16",
              "name": "tokenChain",
              "type": "uint16"
            },
            {
              "internalType": "bytes32",
              "name": "symbol",
              "type": "bytes32"
            },
            {
              "internalType": "bytes32",
              "name": "name",
              "type": "bytes32"
            },
            {
              "internalType": "uint256",
              "name": "tokenID",
              "type": "uint256"
            },
            {
              "internalType": "string",
              "name": "uri",
              "type": "string"
            },
            {
              "internalType": "bytes32",
              "name": "to",
              "type": "bytes32"
            },
            {
              "internalType": "uint16",
              "name": "toChain",
              "type": "uint16"
            }
          ],
          "internalType": "struct NFTBridgeStructs.Transfer",
          "name": "transfer",
          "type": "tuple"
        }
      ],
      "name": "encodeTransfer",
      "outputs": [
        {
          "internalType": "bytes",
          "name": "encoded",
          "type": "bytes"
        }
      ],
      "stateMutability": "pure",
      "type": "function"
    },
    {
      "inputs": [
        {
          "internalType": "bytes32",
          "name": "hash",
          "type": "bytes32"
        }
      ],
      "name": "governanceActionIsConsumed",
      "outputs": [
        {
          "internalType": "bool",
          "name": "",
          "type": "bool"
        }
      ],
      "stateMutability": "view",
      "type": "function"
    },
    {
      "inputs": [],
      "name": "governanceChainId",
      "outputs": [
        {
          "internalType": "uint16",
          "name": "",
          "type": "uint16"
        }
      ],
      "stateMutability": "view",
      "type": "function"
    },
    {
      "inputs": [],
      "name": "governanceContract",
      "outputs": [
        {
          "internalType": "bytes32",
          "name": "",
          "type": "bytes32"
        }
      ],
      "stateMutability": "view",
      "type": "function"
    },
    {
      "inputs": [
        {
          "internalType": "address",
          "name": "impl",
          "type": "address"
        }
      ],
      "name": "isInitialized",
      "outputs": [
        {
          "internalType": "bool",
          "name": "",
          "type": "bool"
        }
      ],
      "stateMutability": "view",
      "type": "function"
    },
    {
      "inputs": [
        {
          "internalType": "bytes32",
          "name": "hash",
          "type": "bytes32"
        }
      ],
      "name": "isTransferCompleted",
      "outputs": [
        {
          "internalType": "bool",
          "name": "",
          "type": "bool"
        }
      ],
      "stateMutability": "view",
      "type": "function"
    },
    {
      "inputs": [
        {
          "internalType": "address",
          "name": "token",
          "type": "address"
        }
      ],
      "name": "isWrappedAsset",
      "outputs": [
        {
          "internalType": "bool",
          "name": "",
          "type": "bool"
        }
      ],
      "stateMutability": "view",
      "type": "function"
    },
    {
      "inputs": [
        {
          "internalType": "address",
          "name": "operator",
          "type": "address"
        },
        {
          "internalType": "address",
          "name": "",
          "type": "address"
        },
        {
          "internalType": "uint256",
          "name": "",
          "type": "uint256"
        },
        {
          "internalType": "bytes",
          "name": "",
          "type": "bytes"
        }
      ],
      "name": "onERC721Received",
      "outputs": [
        {
          "internalType": "bytes4",
          "name": "",
          "type": "bytes4"
        }
      ],
      "stateMutability": "view",
      "type": "function"
    },
    {
      "inputs": [
        {
          "internalType": "bytes",
          "name": "encoded",
          "type": "bytes"
        }
      ],
      "name": "parseRegisterChain",
      "outputs": [
        {
          "components": [
            {
              "internalType": "bytes32",
              "name": "module",
              "type": "bytes32"
            },
            {
              "internalType": "uint8",
              "name": "action",
              "type": "uint8"
            },
            {
              "internalType": "uint16",
              "name": "chainId",
              "type": "uint16"
            },
            {
              "internalType": "uint16",
              "name": "emitterChainID",
              "type": "uint16"
            },
            {
              "internalType": "bytes32",
              "name": "emitterAddress",
              "type": "bytes32"
            }
          ],
          "internalType": "struct NFTBridgeStructs.RegisterChain",
          "name": "chain",
          "type": "tuple"
        }
      ],
      "stateMutability": "pure",
      "type": "function"
    },
    {
      "inputs": [
        {
          "internalType": "bytes",
          "name": "encoded",
          "type": "bytes"
        }
      ],
      "name": "parseTransfer",
      "outputs": [
        {
          "components": [
            {
              "internalType": "bytes32",
              "name": "tokenAddress",
              "type": "bytes32"
            },
            {
              "internalType": "uint16",
              "name": "tokenChain",
              "type": "uint16"
            },
            {
              "internalType": "bytes32",
              "name": "symbol",
              "type": "bytes32"
            },
            {
              "internalType": "bytes32",
              "name": "name",
              "type": "bytes32"
            },
            {
              "internalType": "uint256",
              "name": "tokenID",
              "type": "uint256"
            },
            {
              "internalType": "string",
              "name": "uri",
              "type": "string"
            },
            {
              "internalType": "bytes32",
              "name": "to",
              "type": "bytes32"
            },
            {
              "internalType": "uint16",
              "name": "toChain",
              "type": "uint16"
            }
          ],
          "internalType": "struct NFTBridgeStructs.Transfer",
          "name": "transfer",
          "type": "tuple"
        }
      ],
      "stateMutability": "pure",
      "type": "function"
    },
    {
      "inputs": [
        {
          "internalType": "bytes",
          "name": "encoded",
          "type": "bytes"
        }
      ],
      "name": "parseUpgrade",
      "outputs": [
        {
          "components": [
            {
              "internalType": "bytes32",
              "name": "module",
              "type": "bytes32"
            },
            {
              "internalType": "uint8",
              "name": "action",
              "type": "uint8"
            },
            {
              "internalType": "uint16",
              "name": "chainId",
              "type": "uint16"
            },
            {
              "internalType": "bytes32",
              "name": "newContract",
              "type": "bytes32"
            }
          ],
          "internalType": "struct NFTBridgeStructs.UpgradeContract",
          "name": "chain",
          "type": "tuple"
        }
      ],
      "stateMutability": "pure",
      "type": "function"
    },
    {
      "inputs": [
        {
          "internalType": "bytes",
          "name": "encodedVM",
          "type": "bytes"
        }
      ],
      "name": "registerChain",
      "outputs": [],
      "stateMutability": "nonpayable",
      "type": "function"
    },
    {
      "inputs": [],
      "name": "tokenImplementation",
      "outputs": [
        {
          "internalType": "address",
          "name": "",
          "type": "address"
        }
      ],
      "stateMutability": "view",
      "type": "function"
    },
    {
      "inputs": [
        {
          "internalType": "address",
          "name": "token",
          "type": "address"
        },
        {
          "internalType": "uint256",
          "name": "tokenID",
          "type": "uint256"
        },
        {
          "internalType": "uint16",
          "name": "recipientChain",
          "type": "uint16"
        },
        {
          "internalType": "bytes32",
          "name": "recipient",
          "type": "bytes32"
        },
        {
          "internalType": "uint32",
          "name": "nonce",
          "type": "uint32"
        }
      ],
      "name": "transferNFT",
      "outputs": [
        {
          "internalType": "uint64",
          "name": "sequence",
          "type": "uint64"
        }
      ],
      "stateMutability": "payable",
      "type": "function"
    },
    {
      "inputs": [
        {
          "internalType": "bytes",
          "name": "encodedVM",
          "type": "bytes"
        }
      ],
      "name": "upgrade",
      "outputs": [],
      "stateMutability": "nonpayable",
      "type": "function"
    },
    {
      "inputs": [],
      "name": "wormhole",
      "outputs": [
        {
          "internalType": "contract IWormhole",
          "name": "",
          "type": "address"
        }
      ],
      "stateMutability": "view",
      "type": "function"
    },
    {
      "inputs": [
        {
          "internalType": "uint16",
          "name": "tokenChainId",
          "type": "uint16"
        },
        {
          "internalType": "bytes32",
          "name": "tokenAddress",
          "type": "bytes32"
        }
      ],
      "name": "wrappedAsset",
      "outputs": [
        {
          "internalType": "address",
          "name": "",
          "type": "address"
        }
      ],
      "stateMutability": "view",
      "type": "function"
    },
    {
      "inputs": [],
      "name": "implementation",
      "outputs": [
        {
          "internalType": "address",
          "name": "",
          "type": "address"
        }
      ],
      "stateMutability": "view",
      "type": "function"
    }
  ],
  "bytecode": "0x608060405234801561001057600080fd5b506138c6806100206000396000f3fe608060405260043610620001435760003560e01c80639a8a059211620000b9578063c68785191162000078578063c68785191462000456578063c96616e1146200047b578063d60b347f14620004ab578063e6a853e014620004e8578063fbe3c2cd146200051c578063fbeeacd9146200053d57600080fd5b80639a8a05921462000378578063a5799f9314620003a2578063aa4efa5b14620003c7578063ad66a5f114620003fb578063b172b222146200043f57600080fd5b80632b51137511620001065780632b51137514620002b85780632c3c02a414620002ec5780632f3a3d5d14620003205780635c60da1b146200034057806384acd1bb146200035857600080fd5b806301f532551462000148578063150b7a0214620001c65780631a2be4da14620002055780631ff1e2861462000253578063253946451462000291575b600080fd5b3480156200015557600080fd5b506200016d62000167366004620027a1565b6200059d565b604051620001bd9190600060a0820190508251825260ff6020840151166020830152604083015161ffff808216604085015280606086015116606085015250506080830151608083015292915050565b60405180910390f35b348015620001d357600080fd5b50620001eb620001e536600462002651565b620007a5565b6040516001600160e01b03199091168152602001620001bd565b3480156200021257600080fd5b50620002426200022436600462002634565b6001600160a01b031660009081526008602052604090205460ff1690565b6040519015158152602001620001bd565b3480156200026057600080fd5b50620002786200027236600462002a97565b62000829565b6040516001600160a01b039091168152602001620001bd565b3480156200029e57600080fd5b50620002b6620002b0366004620027a1565b62000855565b005b348015620002c557600080fd5b50620002dd620002d7366004620027a1565b62000939565b604051620001bd919062002c99565b348015620002f957600080fd5b50620002426200030b3660046200276f565b60009081526004602052604090205460ff1690565b3480156200032d57600080fd5b506001546001600160a01b031662000278565b3480156200034d57600080fd5b506200027862000b56565b3480156200036557600080fd5b506000546001600160a01b031662000278565b3480156200038557600080fd5b5060025461ffff165b60405161ffff9091168152602001620001bd565b348015620003af57600080fd5b50620002b6620003c1366004620027a1565b62000b70565b348015620003d457600080fd5b5062000242620003e63660046200276f565b60009081526005602052604090205460ff1690565b3480156200040857600080fd5b50620004306200041a36600462002a59565b61ffff1660009081526009602052604090205490565b604051908152602001620001bd565b3480156200044c57600080fd5b5060035462000430565b3480156200046357600080fd5b50620002b662000475366004620027a1565b62000c76565b620004926200048c366004620026ef565b62000c84565b6040516001600160401b039091168152602001620001bd565b348015620004b857600080fd5b5062000242620004ca36600462002634565b6001600160a01b031660009081526006602052604090205460ff1690565b348015620004f557600080fd5b506200050d6200050736600462002821565b620012c9565b604051620001bd919062002c30565b3480156200052957600080fd5b5060025462010000900461ffff166200038e565b3480156200054a57600080fd5b50620005626200055c366004620027a1565b62001324565b604051620001bd91908151815260208083015160ff169082015260408083015161ffff16908201526060918201519181019190915260800190565b6040805160a081018252600080825260208201819052918101829052606081018290526080810182905290620005d48382620014fd565b8252620005e360208262002e1f565b8251909150684e465442726964676514620006515760405162461bcd60e51b815260206004820152602360248201527f696e76616c6964205265676973746572436861696e3a2077726f6e67206d6f64604482015262756c6560e81b60648201526084015b60405180910390fd5b6200065d83826200155f565b60ff1660208301526200067260018262002e1f565b9050816020015160ff16600114620006d95760405162461bcd60e51b815260206004820152602360248201527f696e76616c6964205265676973746572436861696e3a2077726f6e672061637460448201526234b7b760e91b606482015260840162000648565b620006e58382620015bf565b61ffff166040830152620006fb60028262002e1f565b9050620007098382620015bf565b61ffff1660608301526200071f60028262002e1f565b90506200072d8382620014fd565b60808301526200073f60208262002e1f565b9050808351146200079f5760405162461bcd60e51b815260206004820152602360248201527f696e76616c6964205265676973746572436861696e3a2077726f6e67206c656e6044820152620cee8d60eb1b606482015260840162000648565b50919050565b60006001600160a01b0386163014620008175760405162461bcd60e51b815260206004820152602d60248201527f63616e206f6e6c792062726964676520746f6b656e7320766961207472616e7360448201526c19995c939195081b595d1a1bd9609a1b606482015260840162000648565b50630a85bd0160e11b95945050505050565b61ffff91909116600090815260076020908152604080832093835292905220546001600160a01b031690565b6000806000620008658462001620565b9250925092508181906200088e5760405162461bcd60e51b815260040162000648919062002c30565b50620008b48361014001516000908152600460205260409020805460ff19166001179055565b6000620008c58460e0015162001324565b9050620008d560025461ffff1690565b61ffff16816040015161ffff1614620009225760405162461bcd60e51b815260206004820152600e60248201526d1ddc9bdb99c818da185a5b881a5960921b604482015260640162000648565b606081015162000932906200184f565b5050505050565b604080516101008101825260008082526020820181905291810182905260608082018390526080820183905260a082015260c0810182905260e0810182905290806200098684826200155f565b90506200099560018362002e1f565b91508060ff16600114620009df5760405162461bcd60e51b815260206004820152601060248201526f34b73b30b634b2102a3930b739b332b960811b604482015260640162000648565b620009eb8483620014fd565b8352620009fa60208362002e1f565b915062000a088483620015bf565b61ffff16602084015262000a1e60028362002e1f565b915062000a2c8483620014fd565b604084015262000a3e60208362002e1f565b915062000a4c8483620014fd565b606084015262000a5e60208362002e1f565b915062000a6c848362001986565b608084015262000a7e60208362002e1f565b9150600062000a8e85846200155f565b905062000a9d60018462002e1f565b925062000aaf858460ff8416620019df565b60a085015262000ac360ff82168462002e1f565b925062000ad18584620014fd565b60c085015262000ae360208462002e1f565b925062000af18584620015bf565b61ffff1660e085015262000b0760028462002e1f565b92508285511462000b4e5760405162461bcd60e51b815260206004820152601060248201526f34b73b30b634b2102a3930b739b332b960811b604482015260640162000648565b505050919050565b600062000b6b6001546001600160a01b031690565b905090565b600080600062000b808462001620565b92509250925081819062000ba95760405162461bcd60e51b815260040162000648919062002c30565b5062000bcf8361014001516000908152600460205260409020805460ff19166001179055565b600062000be08460e001516200059d565b905062000bf060025461ffff1690565b61ffff16816040015161ffff16148062000c105750604081015161ffff16155b62000c515760405162461bcd60e51b815260206004820152601060248201526f1a5b9d985b1a590818da185a5b881a5960821b604482015260640162000648565b620009328160600151826080015161ffff909116600090815260096020526040902055565b62000c818162001af8565b50565b600080600062000cac886001600160a01b031660009081526008602052604090205460ff1690565b1562000da657876001600160a01b0316639a8a05926040518163ffffffff1660e01b815260040160206040518083038186803b15801562000cec57600080fd5b505afa15801562000d01573d6000803e3d6000fd5b505050506040513d601f19601f8201168201806040525081019062000d27919062002a78565b9150876001600160a01b0316633d6c043b6040518163ffffffff1660e01b815260040160206040518083038186803b15801562000d6357600080fd5b505afa15801562000d78573d6000803e3d6000fd5b505050506040513d601f19601f8201168201806040525081019062000d9e919062002788565b905062000f70565b60025461ffff166040516301ffc9a760e01b81526380ac58cd60e01b60048201529092506001600160a01b038916915081906301ffc9a79060240160206040518083038186803b15801562000dfa57600080fd5b505afa15801562000e0f573d6000803e3d6000fd5b505050506040513d601f19601f8201168201806040525081019062000e35919062002752565b62000e8d5760405162461bcd60e51b815260206004820152602160248201527f6d75737420737570706f7274207468652045524337323120696e7465726661636044820152606560f81b606482015260840162000648565b6040516301ffc9a760e01b8152635b5e139f60e01b60048201526001600160a01b038916906301ffc9a79060240160206040518083038186803b15801562000ed457600080fd5b505afa15801562000ee9573d6000803e3d6000fd5b505050506040513d601f19601f8201168201806040525081019062000f0f919062002752565b62000f705760405162461bcd60e51b815260206004820152602a60248201527f6d75737420737570706f727420746865204552433732312d4d657461646174616044820152691032bc3a32b739b4b7b760b11b606482015260840162000648565b60408051600481526024810182526020810180516001600160e01b03166395d89b4160e01b1790529051606091829182916000916001600160a01b038e169162000fba9162002b10565b600060405180830381855afa9150503d806000811462000ff7576040519150601f19603f3d011682016040523d82523d6000602084013e62000ffc565b606091505b5060408051600481526024810182526020810180516001600160e01b03166306fdde0360e01b1790529051919350600092506001600160a01b038f169162001045919062002b10565b600060405180830381855afa9150503d806000811462001082576040519150601f19603f3d011682016040523d82523d6000602084013e62001087565b606091505b5091505060008d6001600160a01b03168d604051602401620010ab91815260200190565b60408051601f198184030181529181526020820180516001600160e01b031663c87b56dd60e01b17905251620010e2919062002b10565b600060405180830381855afa9150503d80600081146200111f576040519150601f19603f3d011682016040523d82523d6000602084013e62001124565b606091505b50915050828060200190518101906200113e9190620027eb565b955081806020019051810190620011569190620027eb565b9450808060200190518101906200116e9190620027eb565b60208781015190870151919550935091506200118f905060025461ffff1690565b61ffff168761ffff1614156200120d57604051632142170760e11b8152336004820152306024820152604481018d90526001600160a01b038e16906342842e0e90606401600060405180830381600087803b158015620011ee57600080fd5b505af115801562001203573d6000803e3d6000fd5b505050506200126a565b604051630852cd8d60e31b8152600481018d90526001600160a01b038e16906342966c6890602401600060405180830381600087803b1580156200125057600080fd5b505af115801562001265573d6000803e3d6000fd5b505050505b620012b86040518061010001604052808881526020018961ffff1681526020018481526020018381526020018e81526020018581526020018c81526020018d61ffff16815250348b62001e90565b9d9c50505050505050505050505050565b8051602080830151604080850151606086810151608088015160a0890151805160c08b015160e08c01519751959a6200130e9a60019a91999198979394930162002b61565b6040516020818303038152906040529050919050565b604080516080810182526000808252602082018190529181018290526060810182905290620013548382620014fd565b82526200136360208262002e1f565b8251909150684e465442726964676514620013cf5760405162461bcd60e51b815260206004820152602560248201527f696e76616c69642055706772616465436f6e74726163743a2077726f6e67206d6044820152646f64756c6560d81b606482015260840162000648565b620013db83826200155f565b60ff166020830152620013f060018262002e1f565b9050816020015160ff16600214620014595760405162461bcd60e51b815260206004820152602560248201527f696e76616c69642055706772616465436f6e74726163743a2077726f6e67206160448201526431ba34b7b760d91b606482015260840162000648565b620014658382620015bf565b61ffff1660408301526200147b60028262002e1f565b9050620014898382620014fd565b60608301526200149b60208262002e1f565b9050808351146200079f5760405162461bcd60e51b815260206004820152602560248201527f696e76616c69642055706772616465436f6e74726163743a2077726f6e67206c6044820152640cadccee8d60db1b606482015260840162000648565b60006200150c82602062002e1f565b83511015620015565760405162461bcd60e51b8152602060048201526015602482015274746f427974657333325f6f75744f66426f756e647360581b604482015260640162000648565b50016020015190565b60006200156e82600162002e1f565b83511015620015b65760405162461bcd60e51b8152602060048201526013602482015272746f55696e74385f6f75744f66426f756e647360681b604482015260640162000648565b50016001015190565b6000620015ce82600262002e1f565b83511015620016175760405162461bcd60e51b8152602060048201526014602482015273746f55696e7431365f6f75744f66426f756e647360601b604482015260640162000648565b50016002015190565b604080516101608101825260008082526020820181905291810182905260608082018390526080820183905260a0820183905260c0820183905260e082018190526101008201839052610120820152610140810191909152600060606000806000620016946000546001600160a01b031690565b6001600160a01b031663c0fd8bde886040518263ffffffff1660e01b8152600401620016c1919062002c30565b60006040518083038186803b158015620016da57600080fd5b505afa158015620016ef573d6000803e3d6000fd5b505050506040513d6000823e601f3d908101601f19168201604052620017199190810190620028ea565b9250925092508162001732579194509250905062001848565b60025462010000900461ffff1661ffff16836060015161ffff1614620017905750506040805180820190915260168152753bb937b7339033b7bb32b93730b731b29031b430b4b760511b602082015290935060009250905062001848565b600354836080015114620017e357505060408051808201909152601981527f77726f6e6720676f7665726e616e636520636f6e747261637400000000000000602082015290935060009250905062001848565b61014083015160009081526004602052604090205460ff16156200182d578260006040518060600160405280602281526020016200386f6022913995509550955050505062001848565b50506040805160208101909152600081529093506001925090505b9193909250565b6000620018837f360894a13ba1a3210667c828492db98dca3e2076cc3735a920a3ca505d382bbc546001600160a01b031690565b9050620018908262001f45565b60408051600481526024810182526020810180516001600160e01b031663204a7f0760e21b179052905160009182916001600160a01b03861691620018d59162002b10565b600060405180830381855af49150503d806000811462001912576040519150601f19603f3d011682016040523d82523d6000602084013e62001917565b606091505b50915091508181906200193f5760405162461bcd60e51b815260040162000648919062002c30565b50836001600160a01b0316836001600160a01b03167f2e4cc16c100f0b55e2df82ab0b1a7e294aa9cbd01b48fbaf622683fbc0507a4960405160405180910390a350505050565b60006200199582602062002e1f565b83511015620015565760405162461bcd60e51b8152602060048201526015602482015274746f55696e743235365f6f75744f66426f756e647360581b604482015260640162000648565b606081620019ef81601f62002e1f565b101562001a305760405162461bcd60e51b815260206004820152600e60248201526d736c6963655f6f766572666c6f7760901b604482015260640162000648565b62001a3c828462002e1f565b8451101562001a825760405162461bcd60e51b8152602060048201526011602482015270736c6963655f6f75744f66426f756e647360781b604482015260640162000648565b60608215801562001aa3576040519150600082526020820160405262001aef565b6040519150601f8416801560200281840101858101878315602002848b0101015b8183101562001ade57805183526020928301920162001ac4565b5050858452601f01601f1916604052505b50949350505050565b600080600062001b106000546001600160a01b031690565b6001600160a01b031663c0fd8bde856040518263ffffffff1660e01b815260040162001b3d919062002c30565b60006040518083038186803b15801562001b5657600080fd5b505afa15801562001b6b573d6000803e3d6000fd5b505050506040513d6000823e601f3d908101601f1916820160405262001b959190810190620028ea565b92509250925081819062001bbe5760405162461bcd60e51b815260040162000648919062002c30565b5062001bca8362001f87565b62001c0a5760405162461bcd60e51b815260206004820152600f60248201526e34b73b30b634b21032b6b4ba3a32b960891b604482015260640162000648565b600062001c1b8460e0015162000939565b905062001c3c84610140015160009081526005602052604090205460ff1690565b1562001c8b5760405162461bcd60e51b815260206004820152601a60248201527f7472616e7366657220616c726561647920636f6d706c65746564000000000000604482015260640162000648565b62001cb08461014001516000908152600560205260409020805460ff19166001179055565b60025461ffff1661ffff168160e0015161ffff161462001d0a5760405162461bcd60e51b815260206004820152601460248201527334b73b30b634b2103a30b933b2ba1031b430b4b760611b604482015260640162000648565b600062001d1a60025461ffff1690565b61ffff16826020015161ffff16141562001d375750805162001d82565b600062001d4d8360200151846000015162000829565b90506001600160a01b03811662001d7f5762001d7c836020015184600001518560600151866040015162001fc4565b90505b90505b60c082015160025461ffff1661ffff16836020015161ffff161462001e1557608083015160a08401516040516334ff261960e21b81526001600160a01b0385169263d3fc98649262001ddb928692919060040162002c07565b600060405180830381600087803b15801562001df657600080fd5b505af115801562001e0b573d6000803e3d6000fd5b5050505062001e87565b6080830151604051632142170760e11b81523060048201526001600160a01b0383811660248301526044820192909252908316906342842e0e90606401600060405180830381600087803b15801562001e6d57600080fd5b505af115801562001e82573d6000803e3d6000fd5b505050505b50505050505050565b60008062001e9e85620012c9565b905062001eb36000546001600160a01b031690565b6001600160a01b031663b19a437e858584600f6040518563ffffffff1660e01b815260040162001ee69392919062002d17565b6020604051808303818588803b15801562001f0057600080fd5b505af115801562001f15573d6000803e3d6000fd5b50505050506040513d601f19601f8201168201806040525081019062001f3c919062002ac5565b95945050505050565b62001f50816200222f565b6040516001600160a01b038216907fbc7cd75a20ee27fd9adebab32041f755214dbc6bffa90cc0225b39da2e5c2d3b90600090a250565b6000816080015162001fad836060015161ffff1660009081526009602052604090205490565b141562001fbc57506001919050565b506000919050565b600062001fd460025461ffff1690565b61ffff168561ffff1614156200203e5760405162461bcd60e51b815260206004820152602860248201527f63616e206f6e6c79207772617020746f6b656e732066726f6d20666f726569676044820152676e20636861696e7360c01b606482015260840162000648565b60006200204c868662000829565b6001600160a01b031614620020a45760405162461bcd60e51b815260206004820152601c60248201527f7772617070656420617373657420616c72656164792065786973747300000000604482015260640162000648565b6000627ce50b60e31b620020b885620022d6565b620020c385620022d6565b308989604051602401620020dc95949392919062002c45565b60408051601f19818403018152918152602080830180516001600160e01b03166001600160e01b031990951694909417909352519092506000916200212691309185910162002be1565b60405160208183030381529060405290506000604051806020016200214b9062002411565b601f1982820381018352601f909101166040819052620021719190849060200162002b2e565b60408051601f19818403018152908290526001600160f01b031960f08b901b166020830152602282018990529150600090604201604051602081830303815290604052805190602001209050808251602084016000f59450843b620021d557600080fd5b61ffff891660009081526007602090815260408083208b8452825280832080546001600160a01b0319166001600160a01b038a16908117909155835260089091529020805460ff1916600117905550505050949350505050565b803b620022955760405162461bcd60e51b815260206004820152602d60248201527f455243313936373a206e657720696d706c656d656e746174696f6e206973206e60448201526c1bdd08184818dbdb9d1c9858dd609a1b606482015260840162000648565b7f360894a13ba1a3210667c828492db98dca3e2076cc3735a920a3ca505d382bbc80546001600160a01b0319166001600160a01b0392909216919091179055565b606060005b6020811080156200231957508281602081106200230857634e487b7160e01b600052603260045260246000fd5b1a60f81b6001600160f81b03191615155b156200233457806200232b8162002e6d565b915050620022db565b6000816001600160401b038111156200235d57634e487b7160e01b600052604160045260246000fd5b6040519080825280601f01601f19166020018201604052801562002388576020820181803683370190505b50905060005b828110156200240957848160208110620023b857634e487b7160e01b600052603260045260246000fd5b1a60f81b828281518110620023dd57634e487b7160e01b600052603260045260246000fd5b60200101906001600160f81b031916908160001a90535080620024008162002e6d565b9150506200238e565b509392505050565b6109938062002edc83390190565b600062002436620024308462002df5565b62002dc2565b90508281528383830111156200244b57600080fd5b828260208301376000602084830101529392505050565b80356001600160a01b03811681146200247a57600080fd5b919050565b600082601f83011262002490578081fd5b815160206001600160401b03821115620024ae57620024ae62002ea1565b620024be818360051b0162002dc2565b80838252828201915082860187848660071b8901011115620024de578586fd5b855b858110156200254a57608080838b031215620024fa578788fd5b6200250462002d4b565b83518152868401518782015260406200251f81860162002622565b9082015260606200253285820162002622565b908201528552938501939190910190600101620024e0565b5090979650505050505050565b805180151581146200247a57600080fd5b600082601f83011262002579578081fd5b81516200258a620024308262002df5565b8181528460208386010111156200259f578283fd5b620025b282602083016020870162002e3a565b949350505050565b600082601f830112620025cb578081fd5b620025dc838335602085016200241f565b9392505050565b80356200247a8162002eb7565b80516200247a8162002eb7565b80516200247a8162002ec8565b80516001600160401b03811681146200247a57600080fd5b805160ff811681146200247a57600080fd5b60006020828403121562002646578081fd5b620025dc8262002462565b60008060008060006080868803121562002669578081fd5b620026748662002462565b9450620026846020870162002462565b93506040860135925060608601356001600160401b0380821115620026a7578283fd5b818801915088601f830112620026bb578283fd5b813581811115620026ca578384fd5b896020828501011115620026dc578384fd5b9699959850939650602001949392505050565b600080600080600060a0868803121562002707578283fd5b620027128662002462565b94506020860135935060408601356200272b8162002eb7565b9250606086013591506080860135620027448162002ec8565b809150509295509295909350565b60006020828403121562002764578081fd5b620025dc8262002557565b60006020828403121562002781578081fd5b5035919050565b6000602082840312156200279a578081fd5b5051919050565b600060208284031215620027b3578081fd5b81356001600160401b03811115620027c9578182fd5b8201601f81018413620027da578182fd5b620025b2848235602084016200241f565b600060208284031215620027fd578081fd5b81516001600160401b0381111562002813578182fd5b620025b28482850162002568565b60006020828403121562002833578081fd5b81356001600160401b03808211156200284a578283fd5b9083019061010082860312156200285f578283fd5b6200286962002d76565b823581526200287b60208401620025e3565b602082015260408301356040820152606083013560608201526080830135608082015260a083013582811115620028b0578485fd5b620028be87828601620025ba565b60a08301525060c083013560c0820152620028dc60e08401620025e3565b60e082015295945050505050565b600080600060608486031215620028ff578081fd5b83516001600160401b038082111562002916578283fd5b9085019061016082880312156200292b578283fd5b6200293562002d9c565b620029408362002622565b81526200295060208401620025fd565b60208201526200296360408401620025fd565b60408201526200297660608401620025f0565b6060820152608083015160808201526200299360a084016200260a565b60a0820152620029a660c0840162002622565b60c082015260e083015182811115620029bd578485fd5b620029cb8982860162002568565b60e083015250610100620029e1818501620025fd565b908201526101208381015183811115620029f9578586fd5b62002a078a8287016200247f565b91830191909152506101408381015190820152945062002a2a6020870162002557565b9350604086015191508082111562002a40578283fd5b5062002a4f8682870162002568565b9150509250925092565b60006020828403121562002a6b578081fd5b8135620025dc8162002eb7565b60006020828403121562002a8a578081fd5b8151620025dc8162002eb7565b6000806040838503121562002aaa578182fd5b823562002ab78162002eb7565b946020939093013593505050565b60006020828403121562002ad7578081fd5b620025dc826200260a565b6000815180845262002afc81602086016020860162002e3a565b601f01601f19169290920160200192915050565b6000825162002b2481846020870162002e3a565b9190910192915050565b6000835162002b4281846020880162002e3a565b83519083019062002b5881836020880162002e3a565b01949350505050565b600060ff60f81b808d60f81b1683528b600184015261ffff60f01b808c60f01b1660218501528a6023850152896043850152886063850152818860f81b1660838501528651915062002bbb826084860160208a0162002e3a565b920160848101949094525060f09190911b1660a482015260a60198975050505050505050565b6001600160a01b0383168152604060208201819052600090620025b29083018462002ae2565b60018060a01b038416815282602082015260606040820152600062001f3c606083018462002ae2565b602081526000620025dc602083018462002ae2565b60a08152600062002c5a60a083018862002ae2565b828103602084015262002c6e818862002ae2565b6001600160a01b03969096166040840152505061ffff92909216606083015260809091015292915050565b60208152815160208201526000602083015161ffff80821660408501526040850151606085015260608501516080850152608085015160a085015260a085015191506101008060c086015262002cf461012086018462002ae2565b925060c086015160e08601528160e0870151168186015250508091505092915050565b63ffffffff8416815260606020820152600062002d38606083018562002ae2565b905060ff83166040830152949350505050565b604051608081016001600160401b038111828210171562002d705762002d7062002ea1565b60405290565b60405161010081016001600160401b038111828210171562002d705762002d7062002ea1565b60405161016081016001600160401b038111828210171562002d705762002d7062002ea1565b604051601f8201601f191681016001600160401b038111828210171562002ded5762002ded62002ea1565b604052919050565b60006001600160401b0382111562002e115762002e1162002ea1565b50601f01601f191660200190565b6000821982111562002e355762002e3562002e8b565b500190565b60005b8381101562002e5757818101518382015260200162002e3d565b8381111562002e67576000848401525b50505050565b600060001982141562002e845762002e8462002e8b565b5060010190565b634e487b7160e01b600052601160045260246000fd5b634e487b7160e01b600052604160045260246000fd5b61ffff8116811462000c8157600080fd5b63ffffffff8116811462000c8157600080fdfe608060405234801561001057600080fd5b5060405161099338038061099383398101604081905261002f9161048e565b818161005c60017fa3f0ad74e5423aebfd80d3ef4346578335a9a72aeaee59ff6cb3582b35133d51610599565b60008051602061094c8339815191521461008657634e487b7160e01b600052600160045260246000fd5b6100928282600061009b565b505050506105fe565b6100a483610175565b6040516001600160a01b038416907f1cf3b03a6cf19fa2baba4df148e9dcabedea7f8a5c07840e207e5c089be95d3e90600090a26000825111806100e55750805b156101705761016e836001600160a01b0316635c60da1b6040518163ffffffff1660e01b815260040160206040518083038186803b15801561012657600080fd5b505afa15801561013a573d6000803e3d6000fd5b505050506040513d601f19601f8201168201806040525081019061015e9190610474565b8361031560201b6100291760201c565b505b505050565b6101888161034160201b6100551760201c565b6101e75760405162461bcd60e51b815260206004820152602560248201527f455243313936373a206e657720626561636f6e206973206e6f74206120636f6e6044820152641d1c9858dd60da1b60648201526084015b60405180910390fd5b61026a816001600160a01b0316635c60da1b6040518163ffffffff1660e01b815260040160206040518083038186803b15801561022357600080fd5b505afa158015610237573d6000803e3d6000fd5b505050506040513d601f19601f8201168201806040525081019061025b9190610474565b61034160201b6100551760201c565b6102cf5760405162461bcd60e51b815260206004820152603060248201527f455243313936373a20626561636f6e20696d706c656d656e746174696f6e206960448201526f1cc81b9bdd08184818dbdb9d1c9858dd60821b60648201526084016101de565b806102f460008051602061094c83398151915260001b61034760201b61005b1760201c565b80546001600160a01b0319166001600160a01b039290921691909117905550565b606061033a838360405180606001604052806027815260200161096c6027913961034a565b9392505050565b3b151590565b90565b6060833b6103a95760405162461bcd60e51b815260206004820152602660248201527f416464726573733a2064656c65676174652063616c6c20746f206e6f6e2d636f6044820152651b9d1c9858dd60d21b60648201526084016101de565b600080856001600160a01b0316856040516103c4919061054a565b600060405180830381855af49150503d80600081146103ff576040519150601f19603f3d011682016040523d82523d6000602084013e610404565b606091505b50909250905061041582828661041f565b9695505050505050565b6060831561042e57508161033a565b82511561043e5782518084602001fd5b8160405162461bcd60e51b81526004016101de9190610566565b80516001600160a01b038116811461046f57600080fd5b919050565b600060208284031215610485578081fd5b61033a82610458565b600080604083850312156104a0578081fd5b6104a983610458565b60208401519092506001600160401b03808211156104c5578283fd5b818501915085601f8301126104d8578283fd5b8151818111156104ea576104ea6105e8565b604051601f8201601f19908116603f01168101908382118183101715610512576105126105e8565b8160405282815288602084870101111561052a578586fd5b61053b8360208301602088016105bc565b80955050505050509250929050565b6000825161055c8184602087016105bc565b9190910192915050565b60208152600082518060208401526105858160408501602087016105bc565b601f01601f19169190910160400192915050565b6000828210156105b757634e487b7160e01b81526011600452602481fd5b500390565b60005b838110156105d75781810151838201526020016105bf565b8381111561016e5750506000910152565b634e487b7160e01b600052604160045260246000fd5b61033f8061060d6000396000f3fe60806040523661001357610011610017565b005b6100115b61002761002261005e565b610106565b565b606061004e83836040518060600160405280602781526020016102e36027913961012a565b9392505050565b3b151590565b90565b60006100917fa3f0ad74e5423aebfd80d3ef4346578335a9a72aeaee59ff6cb3582b35133d50546001600160a01b031690565b6001600160a01b0316635c60da1b6040518163ffffffff1660e01b815260040160206040518083038186803b1580156100c957600080fd5b505afa1580156100dd573d6000803e3d6000fd5b505050506040513d601f19601f82011682018060405250810190610101919061023c565b905090565b3660008037600080366000845af43d6000803e808015610125573d6000f35b3d6000fd5b6060833b61018e5760405162461bcd60e51b815260206004820152602660248201527f416464726573733a2064656c65676174652063616c6c20746f206e6f6e2d636f6044820152651b9d1c9858dd60d21b60648201526084015b60405180910390fd5b600080856001600160a01b0316856040516101a99190610263565b600060405180830381855af49150503d80600081146101e4576040519150601f19603f3d011682016040523d82523d6000602084013e6101e9565b606091505b50915091506101f9828286610203565b9695505050505050565b6060831561021257508161004e565b8251156102225782518084602001fd5b8160405162461bcd60e51b8152600401610185919061027f565b60006020828403121561024d578081fd5b81516001600160a01b038116811461004e578182fd5b600082516102758184602087016102b2565b9190910192915050565b602081526000825180602084015261029e8160408501602087016102b2565b601f01601f19169190910160400192915050565b60005b838110156102cd5781810151838201526020016102b5565b838111156102dc576000848401525b5050505056fe416464726573733a206c6f772d6c6576656c2064656c65676174652063616c6c206661696c6564a2646970667358221220fbb4885e30be577ad5c9016baf925f4b0277732a52985f0b8cd1eac1983964e464736f6c63430008040033a3f0ad74e5423aebfd80d3ef4346578335a9a72aeaee59ff6cb3582b35133d50416464726573733a206c6f772d6c6576656c2064656c65676174652063616c6c206661696c6564676f7665726e616e636520616374696f6e20616c726561647920636f6e73756d6564a26469706673582212200da37bae45b209d5f13d762280c00b9dba67a058458e1d7ca79ea10c3f921abb64736f6c63430008040033",
  "immutableReferences": {},
  "source": "// contracts/Implementation.sol\n// SPDX-License-Identifier: Apache 2\n\npragma solidity ^0.8.0;\npragma experimental ABIEncoderV2;\n\nimport \"@openzeppelin/contracts/proxy/ERC1967/ERC1967Upgrade.sol\";\n\nimport \"./NFTBridge.sol\";\n\n\ncontract NFTBridgeImplementation is NFTBridge {\n    // Beacon getter for the token contracts\n    function implementation() public view returns (address) {\n        return tokenImplementation();\n    }\n\n    modifier initializer() {\n        address impl = ERC1967Upgrade._getImplementation();\n\n        require(\n            !isInitialized(impl),\n            \"already initialized\"\n        );\n\n        setInitialized(impl);\n\n        _;\n    }\n}\n",
  "sourcePath": "/Users/ssen/Desktop/test/wormhole-2/ethereum/contracts/nft/NFTBridgeImplementation.sol",
  "compiler": {
    "name": "solc",
    "version": "0.8.4+commit.c7e474f2.Emscripten.clang"
  },
  "schemaVersion": "3.4.1",
  "updatedAt": "2021-09-15T09:52:58.383Z",
  "devdoc": {
    "kind": "dev",
    "methods": {},
    "version": 1
  },
  "userdoc": {
    "kind": "user",
    "methods": {},
    "version": 1
  }
}